{
	"SimpleStorage.sol": {
		"MedicalRecordsContract": {
			"abi": [
				{
					"inputs": [],
					"name": "AlreadyExists",
					"type": "error"
				},
				{
					"inputs": [],
					"name": "InvalidRole",
					"type": "error"
				},
				{
					"inputs": [],
					"name": "RecordNotFound",
					"type": "error"
				},
				{
					"inputs": [],
					"name": "Unauthorized",
					"type": "error"
				},
				{
					"inputs": [],
					"name": "UserInactive",
					"type": "error"
				},
				{
					"inputs": [],
					"name": "UserNotFound",
					"type": "error"
				},
				{
					"inputs": [
						{
							"internalType": "address",
							"name": "patient",
							"type": "address"
						},
						{
							"internalType": "string",
							"name": "diagnosis",
							"type": "string"
						},
						{
							"internalType": "string",
							"name": "treatment",
							"type": "string"
						}
					],
					"name": "create_record",
					"outputs": [
						{
							"internalType": "uint32",
							"name": "",
							"type": "uint32"
						}
					],
					"stateMutability": "nonpayable",
					"type": "function"
				},
				{
					"inputs": [],
					"name": "get_all_records",
					"outputs": [
						{
							"components": [
								{
									"internalType": "uint32",
									"name": "id",
									"type": "uint32"
								},
								{
									"internalType": "address",
									"name": "patientAddress",
									"type": "address"
								},
								{
									"internalType": "string",
									"name": "patientName",
									"type": "string"
								},
								{
									"internalType": "address",
									"name": "doctorAddress",
									"type": "address"
								},
								{
									"internalType": "string",
									"name": "doctorName",
									"type": "string"
								},
								{
									"internalType": "string",
									"name": "diagnosis",
									"type": "string"
								},
								{
									"internalType": "string",
									"name": "treatment",
									"type": "string"
								},
								{
									"internalType": "uint64",
									"name": "createdAt",
									"type": "uint64"
								},
								{
									"internalType": "uint64",
									"name": "updatedAt",
									"type": "uint64"
								},
								{
									"internalType": "bool",
									"name": "exists",
									"type": "bool"
								}
							],
							"internalType": "struct MedicalRecordsContract.MedicalRecord[]",
							"name": "",
							"type": "tuple[]"
						}
					],
					"stateMutability": "view",
					"type": "function"
				},
				{
					"inputs": [
						{
							"internalType": "uint32",
							"name": "recordId",
							"type": "uint32"
						}
					],
					"name": "get_record",
					"outputs": [
						{
							"components": [
								{
									"internalType": "uint32",
									"name": "id",
									"type": "uint32"
								},
								{
									"internalType": "address",
									"name": "patientAddress",
									"type": "address"
								},
								{
									"internalType": "string",
									"name": "patientName",
									"type": "string"
								},
								{
									"internalType": "address",
									"name": "doctorAddress",
									"type": "address"
								},
								{
									"internalType": "string",
									"name": "doctorName",
									"type": "string"
								},
								{
									"internalType": "string",
									"name": "diagnosis",
									"type": "string"
								},
								{
									"internalType": "string",
									"name": "treatment",
									"type": "string"
								},
								{
									"internalType": "uint64",
									"name": "createdAt",
									"type": "uint64"
								},
								{
									"internalType": "uint64",
									"name": "updatedAt",
									"type": "uint64"
								},
								{
									"internalType": "bool",
									"name": "exists",
									"type": "bool"
								}
							],
							"internalType": "struct MedicalRecordsContract.MedicalRecord",
							"name": "",
							"type": "tuple"
						}
					],
					"stateMutability": "view",
					"type": "function"
				},
				{
					"inputs": [],
					"name": "get_record_count",
					"outputs": [
						{
							"internalType": "uint32",
							"name": "",
							"type": "uint32"
						}
					],
					"stateMutability": "view",
					"type": "function"
				},
				{
					"inputs": [
						{
							"internalType": "address",
							"name": "doctor",
							"type": "address"
						}
					],
					"name": "get_records_by_doctor",
					"outputs": [
						{
							"components": [
								{
									"internalType": "uint32",
									"name": "id",
									"type": "uint32"
								},
								{
									"internalType": "address",
									"name": "patientAddress",
									"type": "address"
								},
								{
									"internalType": "string",
									"name": "patientName",
									"type": "string"
								},
								{
									"internalType": "address",
									"name": "doctorAddress",
									"type": "address"
								},
								{
									"internalType": "string",
									"name": "doctorName",
									"type": "string"
								},
								{
									"internalType": "string",
									"name": "diagnosis",
									"type": "string"
								},
								{
									"internalType": "string",
									"name": "treatment",
									"type": "string"
								},
								{
									"internalType": "uint64",
									"name": "createdAt",
									"type": "uint64"
								},
								{
									"internalType": "uint64",
									"name": "updatedAt",
									"type": "uint64"
								},
								{
									"internalType": "bool",
									"name": "exists",
									"type": "bool"
								}
							],
							"internalType": "struct MedicalRecordsContract.MedicalRecord[]",
							"name": "",
							"type": "tuple[]"
						}
					],
					"stateMutability": "view",
					"type": "function"
				},
				{
					"inputs": [
						{
							"internalType": "address",
							"name": "patient",
							"type": "address"
						}
					],
					"name": "get_records_by_patient",
					"outputs": [
						{
							"components": [
								{
									"internalType": "uint32",
									"name": "id",
									"type": "uint32"
								},
								{
									"internalType": "address",
									"name": "patientAddress",
									"type": "address"
								},
								{
									"internalType": "string",
									"name": "patientName",
									"type": "string"
								},
								{
									"internalType": "address",
									"name": "doctorAddress",
									"type": "address"
								},
								{
									"internalType": "string",
									"name": "doctorName",
									"type": "string"
								},
								{
									"internalType": "string",
									"name": "diagnosis",
									"type": "string"
								},
								{
									"internalType": "string",
									"name": "treatment",
									"type": "string"
								},
								{
									"internalType": "uint64",
									"name": "createdAt",
									"type": "uint64"
								},
								{
									"internalType": "uint64",
									"name": "updatedAt",
									"type": "uint64"
								},
								{
									"internalType": "bool",
									"name": "exists",
									"type": "bool"
								}
							],
							"internalType": "struct MedicalRecordsContract.MedicalRecord[]",
							"name": "",
							"type": "tuple[]"
						}
					],
					"stateMutability": "view",
					"type": "function"
				},
				{
					"inputs": [
						{
							"internalType": "address",
							"name": "addr",
							"type": "address"
						}
					],
					"name": "get_user",
					"outputs": [
						{
							"internalType": "address",
							"name": "userAddress",
							"type": "address"
						},
						{
							"internalType": "enum MedicalRecordsContract.Role",
							"name": "role",
							"type": "uint8"
						},
						{
							"internalType": "string",
							"name": "name",
							"type": "string"
						},
						{
							"internalType": "uint32",
							"name": "age",
							"type": "uint32"
						},
						{
							"internalType": "string",
							"name": "email",
							"type": "string"
						},
						{
							"internalType": "string",
							"name": "specialty",
							"type": "string"
						},
						{
							"internalType": "bool",
							"name": "hasSpecialty",
							"type": "bool"
						},
						{
							"internalType": "bool",
							"name": "isActive",
							"type": "bool"
						},
						{
							"internalType": "uint64",
							"name": "createdAt",
							"type": "uint64"
						}
					],
					"stateMutability": "view",
					"type": "function"
				},
				{
					"inputs": [
						{
							"internalType": "address",
							"name": "userAddress",
							"type": "address"
						},
						{
							"internalType": "enum MedicalRecordsContract.Role",
							"name": "role",
							"type": "uint8"
						},
						{
							"internalType": "string",
							"name": "name",
							"type": "string"
						},
						{
							"internalType": "uint32",
							"name": "age",
							"type": "uint32"
						},
						{
							"internalType": "string",
							"name": "email",
							"type": "string"
						},
						{
							"internalType": "string",
							"name": "specialty",
							"type": "string"
						},
						{
							"internalType": "bool",
							"name": "hasSpecialty",
							"type": "bool"
						}
					],
					"name": "register_user",
					"outputs": [],
					"stateMutability": "nonpayable",
					"type": "function"
				},
				{
					"inputs": [
						{
							"internalType": "address",
							"name": "userAddress",
							"type": "address"
						},
						{
							"internalType": "bool",
							"name": "isActive",
							"type": "bool"
						}
					],
					"name": "set_user_active",
					"outputs": [],
					"stateMutability": "nonpayable",
					"type": "function"
				},
				{
					"inputs": [
						{
							"internalType": "uint32",
							"name": "recordId",
							"type": "uint32"
						},
						{
							"internalType": "string",
							"name": "diagnosis",
							"type": "string"
						},
						{
							"internalType": "string",
							"name": "treatment",
							"type": "string"
						}
					],
					"name": "update_record",
					"outputs": [],
					"stateMutability": "nonpayable",
					"type": "function"
				}
			],
			"devdoc": {
				"kind": "dev",
				"methods": {},
				"title": "MedicalRecordsContract (Solidity port of Soroban version)",
				"version": 1
			},
			"evm": {
				"assembly": "    /* \"SimpleStorage.sol\":422:9178  contract MedicalRecordsContract {... */\n  mstore(0x40, 0x80)\n  callvalue\n  dup1\n  iszero\n  tag_1\n  jumpi\n  revert(0x00, 0x00)\ntag_1:\n  pop\n  dataSize(sub_0)\n  dup1\n  dataOffset(sub_0)\n  0x00\n  codecopy\n  0x00\n  return\nstop\n\nsub_0: assembly {\n        /* \"SimpleStorage.sol\":422:9178  contract MedicalRecordsContract {... */\n      mstore(0x40, 0x80)\n      callvalue\n      dup1\n      iszero\n      tag_1\n      jumpi\n      revert(0x00, 0x00)\n    tag_1:\n      pop\n      jumpi(tag_2, lt(calldatasize, 0x04))\n      shr(0xe0, calldataload(0x00))\n      dup1\n      0x88c952cb\n      gt\n      tag_13\n      jumpi\n      dup1\n      0x88c952cb\n      eq\n      tag_8\n      jumpi\n      dup1\n      0x8fd42163\n      eq\n      tag_9\n      jumpi\n      dup1\n      0x95fb43fe\n      eq\n      tag_10\n      jumpi\n      dup1\n      0xba6eae82\n      eq\n      tag_11\n      jumpi\n      dup1\n      0xbfbb4204\n      eq\n      tag_12\n      jumpi\n      jump(tag_2)\n    tag_13:\n      dup1\n      0x36f32373\n      eq\n      tag_3\n      jumpi\n      dup1\n      0x51bb8110\n      eq\n      tag_4\n      jumpi\n      dup1\n      0x556b22c1\n      eq\n      tag_5\n      jumpi\n      dup1\n      0x62e91515\n      eq\n      tag_6\n      jumpi\n      dup1\n      0x71ad7221\n      eq\n      tag_7\n      jumpi\n    tag_2:\n      revert(0x00, 0x00)\n        /* \"SimpleStorage.sol\":8224:8611  function get_records_by_doctor(address doctor) external view returns (MedicalRecord[] memory) {... */\n    tag_3:\n      tag_14\n      0x04\n      dup1\n      calldatasize\n      sub\n      dup2\n      add\n      swap1\n      tag_15\n      swap2\n      swap1\n      tag_16\n      jump\t// in\n    tag_15:\n      tag_17\n      jump\t// in\n    tag_14:\n      mload(0x40)\n      tag_18\n      swap2\n      swap1\n      tag_19\n      jump\t// in\n    tag_18:\n      mload(0x40)\n      dup1\n      swap2\n      sub\n      swap1\n      return\n        /* \"SimpleStorage.sol\":7503:7713  function get_record(uint32 recordId) public view returns (MedicalRecord memory) {... */\n    tag_4:\n      tag_20\n      0x04\n      dup1\n      calldatasize\n      sub\n      dup2\n      add\n      swap1\n      tag_21\n      swap2\n      swap1\n      tag_22\n      jump\t// in\n    tag_21:\n      tag_23\n      jump\t// in\n    tag_20:\n      mload(0x40)\n      tag_24\n      swap2\n      swap1\n      tag_25\n      jump\t// in\n    tag_24:\n      mload(0x40)\n      dup1\n      swap2\n      sub\n      swap1\n      return\n        /* \"SimpleStorage.sol\":9077:9175  function get_record_count() external view returns (uint32) {... */\n    tag_5:\n      tag_26\n      tag_27\n      jump\t// in\n    tag_26:\n      mload(0x40)\n      tag_28\n      swap2\n      swap1\n      tag_29\n      jump\t// in\n    tag_28:\n      mload(0x40)\n      dup1\n      swap2\n      sub\n      swap1\n      return\n        /* \"SimpleStorage.sol\":8667:9032  function get_all_records() external view returns (MedicalRecord[] memory) {... */\n    tag_6:\n      tag_30\n      tag_31\n      jump\t// in\n    tag_30:\n      mload(0x40)\n      tag_32\n      swap2\n      swap1\n      tag_19\n      jump\t// in\n    tag_32:\n      mload(0x40)\n      dup1\n      swap2\n      sub\n      swap1\n      return\n        /* \"SimpleStorage.sol\":6816:7462  function get_user(address addr) external view returns (... */\n    tag_7:\n      tag_33\n      0x04\n      dup1\n      calldatasize\n      sub\n      dup2\n      add\n      swap1\n      tag_34\n      swap2\n      swap1\n      tag_16\n      jump\t// in\n    tag_34:\n      tag_35\n      jump\t// in\n    tag_33:\n      mload(0x40)\n      tag_36\n      swap10\n      swap9\n      swap8\n      swap7\n      swap6\n      swap5\n      swap4\n      swap3\n      swap2\n      swap1\n      tag_37\n      jump\t// in\n    tag_36:\n      mload(0x40)\n      dup1\n      swap2\n      sub\n      swap1\n      return\n        /* \"SimpleStorage.sol\":4054:4322  function set_user_active(... */\n    tag_8:\n      tag_38\n      0x04\n      dup1\n      calldatasize\n      sub\n      dup2\n      add\n      swap1\n      tag_39\n      swap2\n      swap1\n      tag_40\n      jump\t// in\n    tag_39:\n      tag_41\n      jump\t// in\n    tag_38:\n      stop\n        /* \"SimpleStorage.sol\":4601:6040  function create_record(... */\n    tag_9:\n      tag_42\n      0x04\n      dup1\n      calldatasize\n      sub\n      dup2\n      add\n      swap1\n      tag_43\n      swap2\n      swap1\n      tag_44\n      jump\t// in\n    tag_43:\n      tag_45\n      jump\t// in\n    tag_42:\n      mload(0x40)\n      tag_46\n      swap2\n      swap1\n      tag_29\n      jump\t// in\n    tag_46:\n      mload(0x40)\n      dup1\n      swap2\n      sub\n      swap1\n      return\n        /* \"SimpleStorage.sol\":2841:3868  function register_user(... */\n    tag_10:\n      tag_47\n      0x04\n      dup1\n      calldatasize\n      sub\n      dup2\n      add\n      swap1\n      tag_48\n      swap2\n      swap1\n      tag_49\n      jump\t// in\n    tag_48:\n      tag_50\n      jump\t// in\n    tag_47:\n      stop\n        /* \"SimpleStorage.sol\":7775:8166  function get_records_by_patient(address patient) external view returns (MedicalRecord[] memory) {... */\n    tag_11:\n      tag_51\n      0x04\n      dup1\n      calldatasize\n      sub\n      dup2\n      add\n      swap1\n      tag_52\n      swap2\n      swap1\n      tag_16\n      jump\t// in\n    tag_52:\n      tag_53\n      jump\t// in\n    tag_51:\n      mload(0x40)\n      tag_54\n      swap2\n      swap1\n      tag_19\n      jump\t// in\n    tag_54:\n      mload(0x40)\n      dup1\n      swap2\n      sub\n      swap1\n      return\n        /* \"SimpleStorage.sol\":6236:6671  function update_record(... */\n    tag_12:\n      tag_55\n      0x04\n      dup1\n      calldatasize\n      sub\n      dup2\n      add\n      swap1\n      tag_56\n      swap2\n      swap1\n      tag_57\n      jump\t// in\n    tag_56:\n      tag_58\n      jump\t// in\n    tag_55:\n      stop\n        /* \"SimpleStorage.sol\":8224:8611  function get_records_by_doctor(address doctor) external view returns (MedicalRecord[] memory) {... */\n    tag_17:\n        /* \"SimpleStorage.sol\":8294:8316  MedicalRecord[] memory */\n      0x60\n        /* \"SimpleStorage.sol\":8329:8350  uint256[] storage ids */\n      0x00\n        /* \"SimpleStorage.sol\":8353:8366  doctorRecords */\n      0x04\n        /* \"SimpleStorage.sol\":8353:8374  doctorRecords[doctor] */\n      0x00\n        /* \"SimpleStorage.sol\":8367:8373  doctor */\n      dup5\n        /* \"SimpleStorage.sol\":8353:8374  doctorRecords[doctor] */\n      0xffffffffffffffffffffffffffffffffffffffff\n      and\n      0xffffffffffffffffffffffffffffffffffffffff\n      and\n      dup2\n      mstore\n      0x20\n      add\n      swap1\n      dup2\n      mstore\n      0x20\n      add\n      0x00\n      keccak256\n        /* \"SimpleStorage.sol\":8329:8374  uint256[] storage ids = doctorRecords[doctor] */\n      swap1\n      pop\n        /* \"SimpleStorage.sol\":8385:8394  uint256 n */\n      0x00\n        /* \"SimpleStorage.sol\":8397:8400  ids */\n      dup2\n        /* \"SimpleStorage.sol\":8397:8407  ids.length */\n      dup1\n      sload\n      swap1\n      pop\n        /* \"SimpleStorage.sol\":8385:8407  uint256 n = ids.length */\n      swap1\n      pop\n        /* \"SimpleStorage.sol\":8418:8447  MedicalRecord[] memory outArr */\n      0x00\n        /* \"SimpleStorage.sol\":8470:8471  n */\n      dup2\n        /* \"SimpleStorage.sol\":8450:8472  new MedicalRecord[](n) */\n      0xffffffffffffffff\n      dup2\n      gt\n      iszero\n      tag_60\n      jumpi\n      tag_61\n      tag_62\n      jump\t// in\n    tag_61:\n    tag_60:\n      mload(0x40)\n      swap1\n      dup1\n      dup3\n      mstore\n      dup1\n      0x20\n      mul\n      0x20\n      add\n      dup3\n      add\n      0x40\n      mstore\n      dup1\n      iszero\n      tag_63\n      jumpi\n      dup2\n      0x20\n      add\n    tag_64:\n      tag_65\n      tag_66\n      jump\t// in\n    tag_65:\n      dup2\n      mstore\n      0x20\n      add\n      swap1\n      0x01\n      swap1\n      sub\n      swap1\n      dup2\n      tag_64\n      jumpi\n      swap1\n      pop\n    tag_63:\n      pop\n        /* \"SimpleStorage.sol\":8418:8472  MedicalRecord[] memory outArr = new MedicalRecord[](n) */\n      swap1\n      pop\n        /* \"SimpleStorage.sol\":8488:8497  uint256 i */\n      0x00\n        /* \"SimpleStorage.sol\":8500:8501  0 */\n      0x00\n        /* \"SimpleStorage.sol\":8488:8501  uint256 i = 0 */\n      swap1\n      pop\n        /* \"SimpleStorage.sol\":8483:8580  for (uint256 i = 0; i < n; i++) {... */\n    tag_67:\n        /* \"SimpleStorage.sol\":8507:8508  n */\n      dup3\n        /* \"SimpleStorage.sol\":8503:8504  i */\n      dup2\n        /* \"SimpleStorage.sol\":8503:8508  i < n */\n      lt\n        /* \"SimpleStorage.sol\":8483:8580  for (uint256 i = 0; i < n; i++) {... */\n      iszero\n      tag_68\n      jumpi\n        /* \"SimpleStorage.sol\":8542:8568  get_record(uint32(ids[i])) */\n      tag_70\n        /* \"SimpleStorage.sol\":8560:8563  ids */\n      dup5\n        /* \"SimpleStorage.sol\":8564:8565  i */\n      dup3\n        /* \"SimpleStorage.sol\":8560:8566  ids[i] */\n      dup2\n      sload\n      dup2\n      lt\n      tag_71\n      jumpi\n      tag_72\n      tag_73\n      jump\t// in\n    tag_72:\n    tag_71:\n      swap1\n      0x00\n      mstore\n      keccak256(0x00, 0x20)\n      add\n      sload\n        /* \"SimpleStorage.sol\":8542:8552  get_record */\n      tag_23\n        /* \"SimpleStorage.sol\":8542:8568  get_record(uint32(ids[i])) */\n      jump\t// in\n    tag_70:\n        /* \"SimpleStorage.sol\":8530:8536  outArr */\n      dup3\n        /* \"SimpleStorage.sol\":8537:8538  i */\n      dup3\n        /* \"SimpleStorage.sol\":8530:8539  outArr[i] */\n      dup2\n      mload\n      dup2\n      lt\n      tag_75\n      jumpi\n      tag_76\n      tag_73\n      jump\t// in\n    tag_76:\n    tag_75:\n      0x20\n      mul\n      0x20\n      add\n      add\n        /* \"SimpleStorage.sol\":8530:8568  outArr[i] = get_record(uint32(ids[i])) */\n      dup2\n      swap1\n      mstore\n      pop\n        /* \"SimpleStorage.sol\":8510:8513  i++ */\n      dup1\n      dup1\n      0x01\n      add\n      swap2\n      pop\n      pop\n        /* \"SimpleStorage.sol\":8483:8580  for (uint256 i = 0; i < n; i++) {... */\n      jump(tag_67)\n    tag_68:\n      pop\n        /* \"SimpleStorage.sol\":8597:8603  outArr */\n      dup1\n        /* \"SimpleStorage.sol\":8590:8603  return outArr */\n      swap4\n      pop\n      pop\n      pop\n      pop\n        /* \"SimpleStorage.sol\":8224:8611  function get_records_by_doctor(address doctor) external view returns (MedicalRecord[] memory) {... */\n      swap2\n      swap1\n      pop\n      jump\t// out\n        /* \"SimpleStorage.sol\":7503:7713  function get_record(uint32 recordId) public view returns (MedicalRecord memory) {... */\n    tag_23:\n        /* \"SimpleStorage.sol\":7561:7581  MedicalRecord memory */\n      tag_77\n      tag_66\n      jump\t// in\n    tag_77:\n        /* \"SimpleStorage.sol\":7594:7617  MedicalRecord storage r */\n      0x00\n        /* \"SimpleStorage.sol\":7620:7627  records */\n      0x01\n        /* \"SimpleStorage.sol\":7620:7637  records[recordId] */\n      0x00\n        /* \"SimpleStorage.sol\":7628:7636  recordId */\n      dup5\n        /* \"SimpleStorage.sol\":7620:7637  records[recordId] */\n      0xffffffff\n      and\n      dup2\n      mstore\n      0x20\n      add\n      swap1\n      dup2\n      mstore\n      0x20\n      add\n      0x00\n      keccak256\n        /* \"SimpleStorage.sol\":7594:7637  MedicalRecord storage r = records[recordId] */\n      swap1\n      pop\n        /* \"SimpleStorage.sol\":7653:7654  r */\n      dup1\n        /* \"SimpleStorage.sol\":7653:7661  r.exists */\n      0x06\n      add\n      0x10\n      swap1\n      sload\n      swap1\n      0x0100\n      exp\n      swap1\n      div\n      0xff\n      and\n        /* \"SimpleStorage.sol\":7648:7686  if (!r.exists) revert RecordNotFound() */\n      tag_79\n      jumpi\n        /* \"SimpleStorage.sol\":7670:7686  RecordNotFound() */\n      mload(0x40)\n      0x3e07f1a100000000000000000000000000000000000000000000000000000000\n      dup2\n      mstore\n      0x04\n      add\n      mload(0x40)\n      dup1\n      swap2\n      sub\n      swap1\n      revert\n        /* \"SimpleStorage.sol\":7648:7686  if (!r.exists) revert RecordNotFound() */\n    tag_79:\n        /* \"SimpleStorage.sol\":7704:7705  r */\n      dup1\n        /* \"SimpleStorage.sol\":7697:7705  return r */\n      mload(0x40)\n      dup1\n      0x0140\n      add\n      0x40\n      mstore\n      swap1\n      dup2\n      0x00\n      dup3\n      add\n      0x00\n      swap1\n      sload\n      swap1\n      0x0100\n      exp\n      swap1\n      div\n      0xffffffff\n      and\n      0xffffffff\n      and\n      0xffffffff\n      and\n      dup2\n      mstore\n      0x20\n      add\n      0x00\n      dup3\n      add\n      0x04\n      swap1\n      sload\n      swap1\n      0x0100\n      exp\n      swap1\n      div\n      0xffffffffffffffffffffffffffffffffffffffff\n      and\n      0xffffffffffffffffffffffffffffffffffffffff\n      and\n      0xffffffffffffffffffffffffffffffffffffffff\n      and\n      dup2\n      mstore\n      0x20\n      add\n      0x01\n      dup3\n      add\n      dup1\n      sload\n      tag_80\n      swap1\n      tag_81\n      jump\t// in\n    tag_80:\n      dup1\n      0x1f\n      add\n      0x20\n      dup1\n      swap2\n      div\n      mul\n      0x20\n      add\n      mload(0x40)\n      swap1\n      dup2\n      add\n      0x40\n      mstore\n      dup1\n      swap3\n      swap2\n      swap1\n      dup2\n      dup2\n      mstore\n      0x20\n      add\n      dup3\n      dup1\n      sload\n      tag_82\n      swap1\n      tag_81\n      jump\t// in\n    tag_82:\n      dup1\n      iszero\n      tag_83\n      jumpi\n      dup1\n      0x1f\n      lt\n      tag_84\n      jumpi\n      0x0100\n      dup1\n      dup4\n      sload\n      div\n      mul\n      dup4\n      mstore\n      swap2\n      0x20\n      add\n      swap2\n      jump(tag_83)\n    tag_84:\n      dup3\n      add\n      swap2\n      swap1\n      0x00\n      mstore\n      keccak256(0x00, 0x20)\n      swap1\n    tag_85:\n      dup2\n      sload\n      dup2\n      mstore\n      swap1\n      0x01\n      add\n      swap1\n      0x20\n      add\n      dup1\n      dup4\n      gt\n      tag_85\n      jumpi\n      dup3\n      swap1\n      sub\n      0x1f\n      and\n      dup3\n      add\n      swap2\n    tag_83:\n      pop\n      pop\n      pop\n      pop\n      pop\n      dup2\n      mstore\n      0x20\n      add\n      0x02\n      dup3\n      add\n      0x00\n      swap1\n      sload\n      swap1\n      0x0100\n      exp\n      swap1\n      div\n      0xffffffffffffffffffffffffffffffffffffffff\n      and\n      0xffffffffffffffffffffffffffffffffffffffff\n      and\n      0xffffffffffffffffffffffffffffffffffffffff\n      and\n      dup2\n      mstore\n      0x20\n      add\n      0x03\n      dup3\n      add\n      dup1\n      sload\n      tag_86\n      swap1\n      tag_81\n      jump\t// in\n    tag_86:\n      dup1\n      0x1f\n      add\n      0x20\n      dup1\n      swap2\n      div\n      mul\n      0x20\n      add\n      mload(0x40)\n      swap1\n      dup2\n      add\n      0x40\n      mstore\n      dup1\n      swap3\n      swap2\n      swap1\n      dup2\n      dup2\n      mstore\n      0x20\n      add\n      dup3\n      dup1\n      sload\n      tag_87\n      swap1\n      tag_81\n      jump\t// in\n    tag_87:\n      dup1\n      iszero\n      tag_88\n      jumpi\n      dup1\n      0x1f\n      lt\n      tag_89\n      jumpi\n      0x0100\n      dup1\n      dup4\n      sload\n      div\n      mul\n      dup4\n      mstore\n      swap2\n      0x20\n      add\n      swap2\n      jump(tag_88)\n    tag_89:\n      dup3\n      add\n      swap2\n      swap1\n      0x00\n      mstore\n      keccak256(0x00, 0x20)\n      swap1\n    tag_90:\n      dup2\n      sload\n      dup2\n      mstore\n      swap1\n      0x01\n      add\n      swap1\n      0x20\n      add\n      dup1\n      dup4\n      gt\n      tag_90\n      jumpi\n      dup3\n      swap1\n      sub\n      0x1f\n      and\n      dup3\n      add\n      swap2\n    tag_88:\n      pop\n      pop\n      pop\n      pop\n      pop\n      dup2\n      mstore\n      0x20\n      add\n      0x04\n      dup3\n      add\n      dup1\n      sload\n      tag_91\n      swap1\n      tag_81\n      jump\t// in\n    tag_91:\n      dup1\n      0x1f\n      add\n      0x20\n      dup1\n      swap2\n      div\n      mul\n      0x20\n      add\n      mload(0x40)\n      swap1\n      dup2\n      add\n      0x40\n      mstore\n      dup1\n      swap3\n      swap2\n      swap1\n      dup2\n      dup2\n      mstore\n      0x20\n      add\n      dup3\n      dup1\n      sload\n      tag_92\n      swap1\n      tag_81\n      jump\t// in\n    tag_92:\n      dup1\n      iszero\n      tag_93\n      jumpi\n      dup1\n      0x1f\n      lt\n      tag_94\n      jumpi\n      0x0100\n      dup1\n      dup4\n      sload\n      div\n      mul\n      dup4\n      mstore\n      swap2\n      0x20\n      add\n      swap2\n      jump(tag_93)\n    tag_94:\n      dup3\n      add\n      swap2\n      swap1\n      0x00\n      mstore\n      keccak256(0x00, 0x20)\n      swap1\n    tag_95:\n      dup2\n      sload\n      dup2\n      mstore\n      swap1\n      0x01\n      add\n      swap1\n      0x20\n      add\n      dup1\n      dup4\n      gt\n      tag_95\n      jumpi\n      dup3\n      swap1\n      sub\n      0x1f\n      and\n      dup3\n      add\n      swap2\n    tag_93:\n      pop\n      pop\n      pop\n      pop\n      pop\n      dup2\n      mstore\n      0x20\n      add\n      0x05\n      dup3\n      add\n      dup1\n      sload\n      tag_96\n      swap1\n      tag_81\n      jump\t// in\n    tag_96:\n      dup1\n      0x1f\n      add\n      0x20\n      dup1\n      swap2\n      div\n      mul\n      0x20\n      add\n      mload(0x40)\n      swap1\n      dup2\n      add\n      0x40\n      mstore\n      dup1\n      swap3\n      swap2\n      swap1\n      dup2\n      dup2\n      mstore\n      0x20\n      add\n      dup3\n      dup1\n      sload\n      tag_97\n      swap1\n      tag_81\n      jump\t// in\n    tag_97:\n      dup1\n      iszero\n      tag_98\n      jumpi\n      dup1\n      0x1f\n      lt\n      tag_99\n      jumpi\n      0x0100\n      dup1\n      dup4\n      sload\n      div\n      mul\n      dup4\n      mstore\n      swap2\n      0x20\n      add\n      swap2\n      jump(tag_98)\n    tag_99:\n      dup3\n      add\n      swap2\n      swap1\n      0x00\n      mstore\n      keccak256(0x00, 0x20)\n      swap1\n    tag_100:\n      dup2\n      sload\n      dup2\n      mstore\n      swap1\n      0x01\n      add\n      swap1\n      0x20\n      add\n      dup1\n      dup4\n      gt\n      tag_100\n      jumpi\n      dup3\n      swap1\n      sub\n      0x1f\n      and\n      dup3\n      add\n      swap2\n    tag_98:\n      pop\n      pop\n      pop\n      pop\n      pop\n      dup2\n      mstore\n      0x20\n      add\n      0x06\n      dup3\n      add\n      0x00\n      swap1\n      sload\n      swap1\n      0x0100\n      exp\n      swap1\n      div\n      0xffffffffffffffff\n      and\n      0xffffffffffffffff\n      and\n      0xffffffffffffffff\n      and\n      dup2\n      mstore\n      0x20\n      add\n      0x06\n      dup3\n      add\n      0x08\n      swap1\n      sload\n      swap1\n      0x0100\n      exp\n      swap1\n      div\n      0xffffffffffffffff\n      and\n      0xffffffffffffffff\n      and\n      0xffffffffffffffff\n      and\n      dup2\n      mstore\n      0x20\n      add\n      0x06\n      dup3\n      add\n      0x10\n      swap1\n      sload\n      swap1\n      0x0100\n      exp\n      swap1\n      div\n      0xff\n      and\n      iszero\n      iszero\n      iszero\n      iszero\n      dup2\n      mstore\n      pop\n      pop\n      swap2\n      pop\n      pop\n        /* \"SimpleStorage.sol\":7503:7713  function get_record(uint32 recordId) public view returns (MedicalRecord memory) {... */\n      swap2\n      swap1\n      pop\n      jump\t// out\n        /* \"SimpleStorage.sol\":9077:9175  function get_record_count() external view returns (uint32) {... */\n    tag_27:\n        /* \"SimpleStorage.sol\":9128:9134  uint32 */\n      0x00\n        /* \"SimpleStorage.sol\":9154:9167  recordCounter */\n      0x02\n      0x00\n      swap1\n      sload\n      swap1\n      0x0100\n      exp\n      swap1\n      div\n      0xffffffff\n      and\n        /* \"SimpleStorage.sol\":9147:9167  return recordCounter */\n      swap1\n      pop\n        /* \"SimpleStorage.sol\":9077:9175  function get_record_count() external view returns (uint32) {... */\n      swap1\n      jump\t// out\n        /* \"SimpleStorage.sol\":8667:9032  function get_all_records() external view returns (MedicalRecord[] memory) {... */\n    tag_31:\n        /* \"SimpleStorage.sol\":8717:8739  MedicalRecord[] memory */\n      0x60\n        /* \"SimpleStorage.sol\":8752:8777  _requireAdmin(msg.sender) */\n      tag_103\n        /* \"SimpleStorage.sol\":8766:8776  msg.sender */\n      caller\n        /* \"SimpleStorage.sol\":8752:8765  _requireAdmin */\n      tag_104\n        /* \"SimpleStorage.sol\":8752:8777  _requireAdmin(msg.sender) */\n      jump\t// in\n    tag_103:\n        /* \"SimpleStorage.sol\":8788:8797  uint256 n */\n      0x00\n        /* \"SimpleStorage.sol\":8800:8812  allRecordIds */\n      0x05\n        /* \"SimpleStorage.sol\":8800:8819  allRecordIds.length */\n      dup1\n      sload\n      swap1\n      pop\n        /* \"SimpleStorage.sol\":8788:8819  uint256 n = allRecordIds.length */\n      swap1\n      pop\n        /* \"SimpleStorage.sol\":8830:8859  MedicalRecord[] memory outArr */\n      0x00\n        /* \"SimpleStorage.sol\":8882:8883  n */\n      dup2\n        /* \"SimpleStorage.sol\":8862:8884  new MedicalRecord[](n) */\n      0xffffffffffffffff\n      dup2\n      gt\n      iszero\n      tag_105\n      jumpi\n      tag_106\n      tag_62\n      jump\t// in\n    tag_106:\n    tag_105:\n      mload(0x40)\n      swap1\n      dup1\n      dup3\n      mstore\n      dup1\n      0x20\n      mul\n      0x20\n      add\n      dup3\n      add\n      0x40\n      mstore\n      dup1\n      iszero\n      tag_107\n      jumpi\n      dup2\n      0x20\n      add\n    tag_108:\n      tag_109\n      tag_66\n      jump\t// in\n    tag_109:\n      dup2\n      mstore\n      0x20\n      add\n      swap1\n      0x01\n      swap1\n      sub\n      swap1\n      dup2\n      tag_108\n      jumpi\n      swap1\n      pop\n    tag_107:\n      pop\n        /* \"SimpleStorage.sol\":8830:8884  MedicalRecord[] memory outArr = new MedicalRecord[](n) */\n      swap1\n      pop\n        /* \"SimpleStorage.sol\":8900:8909  uint256 i */\n      0x00\n        /* \"SimpleStorage.sol\":8912:8913  0 */\n      0x00\n        /* \"SimpleStorage.sol\":8900:8913  uint256 i = 0 */\n      swap1\n      pop\n        /* \"SimpleStorage.sol\":8895:9001  for (uint256 i = 0; i < n; i++) {... */\n    tag_110:\n        /* \"SimpleStorage.sol\":8919:8920  n */\n      dup3\n        /* \"SimpleStorage.sol\":8915:8916  i */\n      dup2\n        /* \"SimpleStorage.sol\":8915:8920  i < n */\n      lt\n        /* \"SimpleStorage.sol\":8895:9001  for (uint256 i = 0; i < n; i++) {... */\n      iszero\n      tag_111\n      jumpi\n        /* \"SimpleStorage.sol\":8954:8989  get_record(uint32(allRecordIds[i])) */\n      tag_113\n        /* \"SimpleStorage.sol\":8972:8984  allRecordIds */\n      0x05\n        /* \"SimpleStorage.sol\":8985:8986  i */\n      dup3\n        /* \"SimpleStorage.sol\":8972:8987  allRecordIds[i] */\n      dup2\n      sload\n      dup2\n      lt\n      tag_114\n      jumpi\n      tag_115\n      tag_73\n      jump\t// in\n    tag_115:\n    tag_114:\n      swap1\n      0x00\n      mstore\n      keccak256(0x00, 0x20)\n      add\n      sload\n        /* \"SimpleStorage.sol\":8954:8964  get_record */\n      tag_23\n        /* \"SimpleStorage.sol\":8954:8989  get_record(uint32(allRecordIds[i])) */\n      jump\t// in\n    tag_113:\n        /* \"SimpleStorage.sol\":8942:8948  outArr */\n      dup3\n        /* \"SimpleStorage.sol\":8949:8950  i */\n      dup3\n        /* \"SimpleStorage.sol\":8942:8951  outArr[i] */\n      dup2\n      mload\n      dup2\n      lt\n      tag_117\n      jumpi\n      tag_118\n      tag_73\n      jump\t// in\n    tag_118:\n    tag_117:\n      0x20\n      mul\n      0x20\n      add\n      add\n        /* \"SimpleStorage.sol\":8942:8989  outArr[i] = get_record(uint32(allRecordIds[i])) */\n      dup2\n      swap1\n      mstore\n      pop\n        /* \"SimpleStorage.sol\":8922:8925  i++ */\n      dup1\n      dup1\n      0x01\n      add\n      swap2\n      pop\n      pop\n        /* \"SimpleStorage.sol\":8895:9001  for (uint256 i = 0; i < n; i++) {... */\n      jump(tag_110)\n    tag_111:\n      pop\n        /* \"SimpleStorage.sol\":9018:9024  outArr */\n      dup1\n        /* \"SimpleStorage.sol\":9011:9024  return outArr */\n      swap3\n      pop\n      pop\n      pop\n        /* \"SimpleStorage.sol\":8667:9032  function get_all_records() external view returns (MedicalRecord[] memory) {... */\n      swap1\n      jump\t// out\n        /* \"SimpleStorage.sol\":6816:7462  function get_user(address addr) external view returns (... */\n    tag_35:\n        /* \"SimpleStorage.sol\":6881:6900  address userAddress */\n      0x00\n        /* \"SimpleStorage.sol\":6911:6920  Role role */\n      0x00\n        /* \"SimpleStorage.sol\":6931:6949  string memory name */\n      0x60\n        /* \"SimpleStorage.sol\":6960:6970  uint32 age */\n      0x00\n        /* \"SimpleStorage.sol\":6981:7000  string memory email */\n      0x60\n        /* \"SimpleStorage.sol\":7011:7034  string memory specialty */\n      dup1\n        /* \"SimpleStorage.sol\":7045:7062  bool hasSpecialty */\n      0x00\n        /* \"SimpleStorage.sol\":7073:7086  bool isActive */\n      0x00\n        /* \"SimpleStorage.sol\":7097:7113  uint64 createdAt */\n      0x00\n        /* \"SimpleStorage.sol\":7132:7146  User storage u */\n      0x00\n        /* \"SimpleStorage.sol\":7149:7154  users */\n      0x00\n        /* \"SimpleStorage.sol\":7149:7160  users[addr] */\n      0x00\n        /* \"SimpleStorage.sol\":7155:7159  addr */\n      dup13\n        /* \"SimpleStorage.sol\":7149:7160  users[addr] */\n      0xffffffffffffffffffffffffffffffffffffffff\n      and\n      0xffffffffffffffffffffffffffffffffffffffff\n      and\n      dup2\n      mstore\n      0x20\n      add\n      swap1\n      dup2\n      mstore\n      0x20\n      add\n      0x00\n      keccak256\n        /* \"SimpleStorage.sol\":7132:7160  User storage u = users[addr] */\n      swap1\n      pop\n        /* \"SimpleStorage.sol\":7176:7177  u */\n      dup1\n        /* \"SimpleStorage.sol\":7176:7184  u.exists */\n      0x05\n      add\n      0x0a\n      swap1\n      sload\n      swap1\n      0x0100\n      exp\n      swap1\n      div\n      0xff\n      and\n        /* \"SimpleStorage.sol\":7171:7207  if (!u.exists) revert UserNotFound() */\n      tag_120\n      jumpi\n        /* \"SimpleStorage.sol\":7193:7207  UserNotFound() */\n      mload(0x40)\n      0x670a68cc00000000000000000000000000000000000000000000000000000000\n      dup2\n      mstore\n      0x04\n      add\n      mload(0x40)\n      dup1\n      swap2\n      sub\n      swap1\n      revert\n        /* \"SimpleStorage.sol\":7171:7207  if (!u.exists) revert UserNotFound() */\n    tag_120:\n        /* \"SimpleStorage.sol\":7240:7241  u */\n      dup1\n        /* \"SimpleStorage.sol\":7240:7253  u.userAddress */\n      0x00\n      add\n      0x00\n      swap1\n      sload\n      swap1\n      0x0100\n      exp\n      swap1\n      div\n      0xffffffffffffffffffffffffffffffffffffffff\n      and\n        /* \"SimpleStorage.sol\":7268:7269  u */\n      dup2\n        /* \"SimpleStorage.sol\":7268:7274  u.role */\n      0x00\n      add\n      0x14\n      swap1\n      sload\n      swap1\n      0x0100\n      exp\n      swap1\n      div\n      0xff\n      and\n        /* \"SimpleStorage.sol\":7289:7290  u */\n      dup3\n        /* \"SimpleStorage.sol\":7289:7295  u.name */\n      0x01\n      add\n        /* \"SimpleStorage.sol\":7310:7311  u */\n      dup4\n        /* \"SimpleStorage.sol\":7310:7315  u.age */\n      0x02\n      add\n      0x00\n      swap1\n      sload\n      swap1\n      0x0100\n      exp\n      swap1\n      div\n      0xffffffff\n      and\n        /* \"SimpleStorage.sol\":7330:7331  u */\n      dup5\n        /* \"SimpleStorage.sol\":7330:7337  u.email */\n      0x03\n      add\n        /* \"SimpleStorage.sol\":7352:7353  u */\n      dup6\n        /* \"SimpleStorage.sol\":7352:7363  u.specialty */\n      0x04\n      add\n        /* \"SimpleStorage.sol\":7378:7379  u */\n      dup7\n        /* \"SimpleStorage.sol\":7378:7392  u.hasSpecialty */\n      0x05\n      add\n      0x00\n      swap1\n      sload\n      swap1\n      0x0100\n      exp\n      swap1\n      div\n      0xff\n      and\n        /* \"SimpleStorage.sol\":7407:7408  u */\n      dup8\n        /* \"SimpleStorage.sol\":7407:7417  u.isActive */\n      0x05\n      add\n      0x01\n      swap1\n      sload\n      swap1\n      0x0100\n      exp\n      swap1\n      div\n      0xff\n      and\n        /* \"SimpleStorage.sol\":7432:7433  u */\n      dup9\n        /* \"SimpleStorage.sol\":7432:7443  u.createdAt */\n      0x05\n      add\n      0x02\n      swap1\n      sload\n      swap1\n      0x0100\n      exp\n      swap1\n      div\n      0xffffffffffffffff\n      and\n        /* \"SimpleStorage.sol\":7218:7454  return (... */\n      dup7\n      dup1\n      sload\n      tag_121\n      swap1\n      tag_81\n      jump\t// in\n    tag_121:\n      dup1\n      0x1f\n      add\n      0x20\n      dup1\n      swap2\n      div\n      mul\n      0x20\n      add\n      mload(0x40)\n      swap1\n      dup2\n      add\n      0x40\n      mstore\n      dup1\n      swap3\n      swap2\n      swap1\n      dup2\n      dup2\n      mstore\n      0x20\n      add\n      dup3\n      dup1\n      sload\n      tag_122\n      swap1\n      tag_81\n      jump\t// in\n    tag_122:\n      dup1\n      iszero\n      tag_123\n      jumpi\n      dup1\n      0x1f\n      lt\n      tag_124\n      jumpi\n      0x0100\n      dup1\n      dup4\n      sload\n      div\n      mul\n      dup4\n      mstore\n      swap2\n      0x20\n      add\n      swap2\n      jump(tag_123)\n    tag_124:\n      dup3\n      add\n      swap2\n      swap1\n      0x00\n      mstore\n      keccak256(0x00, 0x20)\n      swap1\n    tag_125:\n      dup2\n      sload\n      dup2\n      mstore\n      swap1\n      0x01\n      add\n      swap1\n      0x20\n      add\n      dup1\n      dup4\n      gt\n      tag_125\n      jumpi\n      dup3\n      swap1\n      sub\n      0x1f\n      and\n      dup3\n      add\n      swap2\n    tag_123:\n      pop\n      pop\n      pop\n      pop\n      pop\n      swap7\n      pop\n      dup5\n      dup1\n      sload\n      tag_126\n      swap1\n      tag_81\n      jump\t// in\n    tag_126:\n      dup1\n      0x1f\n      add\n      0x20\n      dup1\n      swap2\n      div\n      mul\n      0x20\n      add\n      mload(0x40)\n      swap1\n      dup2\n      add\n      0x40\n      mstore\n      dup1\n      swap3\n      swap2\n      swap1\n      dup2\n      dup2\n      mstore\n      0x20\n      add\n      dup3\n      dup1\n      sload\n      tag_127\n      swap1\n      tag_81\n      jump\t// in\n    tag_127:\n      dup1\n      iszero\n      tag_128\n      jumpi\n      dup1\n      0x1f\n      lt\n      tag_129\n      jumpi\n      0x0100\n      dup1\n      dup4\n      sload\n      div\n      mul\n      dup4\n      mstore\n      swap2\n      0x20\n      add\n      swap2\n      jump(tag_128)\n    tag_129:\n      dup3\n      add\n      swap2\n      swap1\n      0x00\n      mstore\n      keccak256(0x00, 0x20)\n      swap1\n    tag_130:\n      dup2\n      sload\n      dup2\n      mstore\n      swap1\n      0x01\n      add\n      swap1\n      0x20\n      add\n      dup1\n      dup4\n      gt\n      tag_130\n      jumpi\n      dup3\n      swap1\n      sub\n      0x1f\n      and\n      dup3\n      add\n      swap2\n    tag_128:\n      pop\n      pop\n      pop\n      pop\n      pop\n      swap5\n      pop\n      dup4\n      dup1\n      sload\n      tag_131\n      swap1\n      tag_81\n      jump\t// in\n    tag_131:\n      dup1\n      0x1f\n      add\n      0x20\n      dup1\n      swap2\n      div\n      mul\n      0x20\n      add\n      mload(0x40)\n      swap1\n      dup2\n      add\n      0x40\n      mstore\n      dup1\n      swap3\n      swap2\n      swap1\n      dup2\n      dup2\n      mstore\n      0x20\n      add\n      dup3\n      dup1\n      sload\n      tag_132\n      swap1\n      tag_81\n      jump\t// in\n    tag_132:\n      dup1\n      iszero\n      tag_133\n      jumpi\n      dup1\n      0x1f\n      lt\n      tag_134\n      jumpi\n      0x0100\n      dup1\n      dup4\n      sload\n      div\n      mul\n      dup4\n      mstore\n      swap2\n      0x20\n      add\n      swap2\n      jump(tag_133)\n    tag_134:\n      dup3\n      add\n      swap2\n      swap1\n      0x00\n      mstore\n      keccak256(0x00, 0x20)\n      swap1\n    tag_135:\n      dup2\n      sload\n      dup2\n      mstore\n      swap1\n      0x01\n      add\n      swap1\n      0x20\n      add\n      dup1\n      dup4\n      gt\n      tag_135\n      jumpi\n      dup3\n      swap1\n      sub\n      0x1f\n      and\n      dup3\n      add\n      swap2\n    tag_133:\n      pop\n      pop\n      pop\n      pop\n      pop\n      swap4\n      pop\n      swap10\n      pop\n      swap10\n      pop\n      swap10\n      pop\n      swap10\n      pop\n      swap10\n      pop\n      swap10\n      pop\n      swap10\n      pop\n      swap10\n      pop\n      swap10\n      pop\n      pop\n        /* \"SimpleStorage.sol\":6816:7462  function get_user(address addr) external view returns (... */\n      swap2\n      swap4\n      swap6\n      swap8\n      swap10\n      swap1\n      swap3\n      swap5\n      swap7\n      swap9\n      pop\n      jump\t// out\n        /* \"SimpleStorage.sol\":4054:4322  function set_user_active(... */\n    tag_41:\n        /* \"SimpleStorage.sol\":4160:4185  _requireAdmin(msg.sender) */\n      tag_137\n        /* \"SimpleStorage.sol\":4174:4184  msg.sender */\n      caller\n        /* \"SimpleStorage.sol\":4160:4173  _requireAdmin */\n      tag_104\n        /* \"SimpleStorage.sol\":4160:4185  _requireAdmin(msg.sender) */\n      jump\t// in\n    tag_137:\n        /* \"SimpleStorage.sol\":4198:4212  User storage u */\n      0x00\n        /* \"SimpleStorage.sol\":4215:4220  users */\n      0x00\n        /* \"SimpleStorage.sol\":4215:4233  users[userAddress] */\n      0x00\n        /* \"SimpleStorage.sol\":4221:4232  userAddress */\n      dup5\n        /* \"SimpleStorage.sol\":4215:4233  users[userAddress] */\n      0xffffffffffffffffffffffffffffffffffffffff\n      and\n      0xffffffffffffffffffffffffffffffffffffffff\n      and\n      dup2\n      mstore\n      0x20\n      add\n      swap1\n      dup2\n      mstore\n      0x20\n      add\n      0x00\n      keccak256\n        /* \"SimpleStorage.sol\":4198:4233  User storage u = users[userAddress] */\n      swap1\n      pop\n        /* \"SimpleStorage.sol\":4249:4250  u */\n      dup1\n        /* \"SimpleStorage.sol\":4249:4257  u.exists */\n      0x05\n      add\n      0x0a\n      swap1\n      sload\n      swap1\n      0x0100\n      exp\n      swap1\n      div\n      0xff\n      and\n        /* \"SimpleStorage.sol\":4244:4280  if (!u.exists) revert UserNotFound() */\n      tag_138\n      jumpi\n        /* \"SimpleStorage.sol\":4266:4280  UserNotFound() */\n      mload(0x40)\n      0x670a68cc00000000000000000000000000000000000000000000000000000000\n      dup2\n      mstore\n      0x04\n      add\n      mload(0x40)\n      dup1\n      swap2\n      sub\n      swap1\n      revert\n        /* \"SimpleStorage.sol\":4244:4280  if (!u.exists) revert UserNotFound() */\n    tag_138:\n        /* \"SimpleStorage.sol\":4306:4314  isActive */\n      dup2\n        /* \"SimpleStorage.sol\":4293:4294  u */\n      dup2\n        /* \"SimpleStorage.sol\":4293:4303  u.isActive */\n      0x05\n      add\n      0x01\n        /* \"SimpleStorage.sol\":4293:4314  u.isActive = isActive */\n      0x0100\n      exp\n      dup2\n      sload\n      dup2\n      0xff\n      mul\n      not\n      and\n      swap1\n      dup4\n      iszero\n      iszero\n      mul\n      or\n      swap1\n      sstore\n      pop\n        /* \"SimpleStorage.sol\":4149:4322  {... */\n      pop\n        /* \"SimpleStorage.sol\":4054:4322  function set_user_active(... */\n      pop\n      pop\n      jump\t// out\n        /* \"SimpleStorage.sol\":4601:6040  function create_record(... */\n    tag_45:\n        /* \"SimpleStorage.sol\":4747:4753  uint32 */\n      0x00\n        /* \"SimpleStorage.sol\":4809:4823  User storage d */\n      0x00\n        /* \"SimpleStorage.sol\":4826:4831  users */\n      0x00\n        /* \"SimpleStorage.sol\":4826:4843  users[msg.sender] */\n      0x00\n        /* \"SimpleStorage.sol\":4832:4842  msg.sender */\n      caller\n        /* \"SimpleStorage.sol\":4826:4843  users[msg.sender] */\n      0xffffffffffffffffffffffffffffffffffffffff\n      and\n      0xffffffffffffffffffffffffffffffffffffffff\n      and\n      dup2\n      mstore\n      0x20\n      add\n      swap1\n      dup2\n      mstore\n      0x20\n      add\n      0x00\n      keccak256\n        /* \"SimpleStorage.sol\":4809:4843  User storage d = users[msg.sender] */\n      swap1\n      pop\n        /* \"SimpleStorage.sol\":4859:4860  d */\n      dup1\n        /* \"SimpleStorage.sol\":4859:4867  d.exists */\n      0x05\n      add\n      0x0a\n      swap1\n      sload\n      swap1\n      0x0100\n      exp\n      swap1\n      div\n      0xff\n      and\n        /* \"SimpleStorage.sol\":4854:4890  if (!d.exists) revert UserNotFound() */\n      tag_140\n      jumpi\n        /* \"SimpleStorage.sol\":4876:4890  UserNotFound() */\n      mload(0x40)\n      0x670a68cc00000000000000000000000000000000000000000000000000000000\n      dup2\n      mstore\n      0x04\n      add\n      mload(0x40)\n      dup1\n      swap2\n      sub\n      swap1\n      revert\n        /* \"SimpleStorage.sol\":4854:4890  if (!d.exists) revert UserNotFound() */\n    tag_140:\n        /* \"SimpleStorage.sol\":4915:4926  Role.Doctor */\n      0x01\n        /* \"SimpleStorage.sol\":4905:4926  d.role != Role.Doctor */\n      0x02\n      dup2\n      gt\n      iszero\n      tag_141\n      jumpi\n      tag_142\n      tag_143\n      jump\t// in\n    tag_142:\n    tag_141:\n        /* \"SimpleStorage.sol\":4905:4906  d */\n      dup2\n        /* \"SimpleStorage.sol\":4905:4911  d.role */\n      0x00\n      add\n      0x14\n      swap1\n      sload\n      swap1\n      0x0100\n      exp\n      swap1\n      div\n      0xff\n      and\n        /* \"SimpleStorage.sol\":4905:4926  d.role != Role.Doctor */\n      0x02\n      dup2\n      gt\n      iszero\n      tag_144\n      jumpi\n      tag_145\n      tag_143\n      jump\t// in\n    tag_145:\n    tag_144:\n      eq\n        /* \"SimpleStorage.sol\":4901:4948  if (d.role != Role.Doctor) revert InvalidRole() */\n      tag_146\n      jumpi\n        /* \"SimpleStorage.sol\":4935:4948  InvalidRole() */\n      mload(0x40)\n      0xd954416a00000000000000000000000000000000000000000000000000000000\n      dup2\n      mstore\n      0x04\n      add\n      mload(0x40)\n      dup1\n      swap2\n      sub\n      swap1\n      revert\n        /* \"SimpleStorage.sol\":4901:4948  if (d.role != Role.Doctor) revert InvalidRole() */\n    tag_146:\n        /* \"SimpleStorage.sol\":4964:4965  d */\n      dup1\n        /* \"SimpleStorage.sol\":4964:4974  d.isActive */\n      0x05\n      add\n      0x01\n      swap1\n      sload\n      swap1\n      0x0100\n      exp\n      swap1\n      div\n      0xff\n      and\n        /* \"SimpleStorage.sol\":4959:4997  if (!d.isActive) revert UserInactive() */\n      tag_147\n      jumpi\n        /* \"SimpleStorage.sol\":4983:4997  UserInactive() */\n      mload(0x40)\n      0x3310e69100000000000000000000000000000000000000000000000000000000\n      dup2\n      mstore\n      0x04\n      add\n      mload(0x40)\n      dup1\n      swap2\n      sub\n      swap1\n      revert\n        /* \"SimpleStorage.sol\":4959:4997  if (!d.isActive) revert UserInactive() */\n    tag_147:\n        /* \"SimpleStorage.sol\":5041:5055  User storage p */\n      0x00\n        /* \"SimpleStorage.sol\":5058:5063  users */\n      0x00\n        /* \"SimpleStorage.sol\":5058:5072  users[patient] */\n      0x00\n        /* \"SimpleStorage.sol\":5064:5071  patient */\n      dup10\n        /* \"SimpleStorage.sol\":5058:5072  users[patient] */\n      0xffffffffffffffffffffffffffffffffffffffff\n      and\n      0xffffffffffffffffffffffffffffffffffffffff\n      and\n      dup2\n      mstore\n      0x20\n      add\n      swap1\n      dup2\n      mstore\n      0x20\n      add\n      0x00\n      keccak256\n        /* \"SimpleStorage.sol\":5041:5072  User storage p = users[patient] */\n      swap1\n      pop\n        /* \"SimpleStorage.sol\":5088:5089  p */\n      dup1\n        /* \"SimpleStorage.sol\":5088:5096  p.exists */\n      0x05\n      add\n      0x0a\n      swap1\n      sload\n      swap1\n      0x0100\n      exp\n      swap1\n      div\n      0xff\n      and\n        /* \"SimpleStorage.sol\":5083:5119  if (!p.exists) revert UserNotFound() */\n      tag_148\n      jumpi\n        /* \"SimpleStorage.sol\":5105:5119  UserNotFound() */\n      mload(0x40)\n      0x670a68cc00000000000000000000000000000000000000000000000000000000\n      dup2\n      mstore\n      0x04\n      add\n      mload(0x40)\n      dup1\n      swap2\n      sub\n      swap1\n      revert\n        /* \"SimpleStorage.sol\":5083:5119  if (!p.exists) revert UserNotFound() */\n    tag_148:\n        /* \"SimpleStorage.sol\":5144:5156  Role.Patient */\n      0x02\n        /* \"SimpleStorage.sol\":5134:5156  p.role != Role.Patient */\n      dup1\n      dup2\n      gt\n      iszero\n      tag_149\n      jumpi\n      tag_150\n      tag_143\n      jump\t// in\n    tag_150:\n    tag_149:\n        /* \"SimpleStorage.sol\":5134:5135  p */\n      dup2\n        /* \"SimpleStorage.sol\":5134:5140  p.role */\n      0x00\n      add\n      0x14\n      swap1\n      sload\n      swap1\n      0x0100\n      exp\n      swap1\n      div\n      0xff\n      and\n        /* \"SimpleStorage.sol\":5134:5156  p.role != Role.Patient */\n      0x02\n      dup2\n      gt\n      iszero\n      tag_151\n      jumpi\n      tag_152\n      tag_143\n      jump\t// in\n    tag_152:\n    tag_151:\n      eq\n        /* \"SimpleStorage.sol\":5130:5178  if (p.role != Role.Patient) revert InvalidRole() */\n      tag_153\n      jumpi\n        /* \"SimpleStorage.sol\":5165:5178  InvalidRole() */\n      mload(0x40)\n      0xd954416a00000000000000000000000000000000000000000000000000000000\n      dup2\n      mstore\n      0x04\n      add\n      mload(0x40)\n      dup1\n      swap2\n      sub\n      swap1\n      revert\n        /* \"SimpleStorage.sol\":5130:5178  if (p.role != Role.Patient) revert InvalidRole() */\n    tag_153:\n        /* \"SimpleStorage.sol\":5194:5195  p */\n      dup1\n        /* \"SimpleStorage.sol\":5194:5204  p.isActive */\n      0x05\n      add\n      0x01\n      swap1\n      sload\n      swap1\n      0x0100\n      exp\n      swap1\n      div\n      0xff\n      and\n        /* \"SimpleStorage.sol\":5189:5227  if (!p.isActive) revert UserInactive() */\n      tag_154\n      jumpi\n        /* \"SimpleStorage.sol\":5213:5227  UserInactive() */\n      mload(0x40)\n      0x3310e69100000000000000000000000000000000000000000000000000000000\n      dup2\n      mstore\n      0x04\n      add\n      mload(0x40)\n      dup1\n      swap2\n      sub\n      swap1\n      revert\n        /* \"SimpleStorage.sol\":5189:5227  if (!p.isActive) revert UserInactive() */\n    tag_154:\n        /* \"SimpleStorage.sol\":5284:5285  1 */\n      0x01\n        /* \"SimpleStorage.sol\":5267:5280  recordCounter */\n      0x02\n      0x00\n        /* \"SimpleStorage.sol\":5267:5285  recordCounter += 1 */\n      dup3\n      dup3\n      dup3\n      swap1\n      sload\n      swap1\n      0x0100\n      exp\n      swap1\n      div\n      0xffffffff\n      and\n      tag_155\n      swap2\n      swap1\n      tag_156\n      jump\t// in\n    tag_155:\n      swap3\n      pop\n      0x0100\n      exp\n      dup2\n      sload\n      dup2\n      0xffffffff\n      mul\n      not\n      and\n      swap1\n      dup4\n      0xffffffff\n      and\n      mul\n      or\n      swap1\n      sstore\n      pop\n        /* \"SimpleStorage.sol\":5296:5311  uint32 recordId */\n      0x00\n        /* \"SimpleStorage.sol\":5314:5327  recordCounter */\n      0x02\n      0x00\n      swap1\n      sload\n      swap1\n      0x0100\n      exp\n      swap1\n      div\n      0xffffffff\n      and\n        /* \"SimpleStorage.sol\":5296:5327  uint32 recordId = recordCounter */\n      swap1\n      pop\n        /* \"SimpleStorage.sol\":5340:5349  uint64 ts */\n      0x00\n        /* \"SimpleStorage.sol\":5359:5374  block.timestamp */\n      timestamp\n        /* \"SimpleStorage.sol\":5340:5375  uint64 ts = uint64(block.timestamp) */\n      swap1\n      pop\n        /* \"SimpleStorage.sol\":5408:5759  MedicalRecord({... */\n      mload(0x40)\n      dup1\n      0x0140\n      add\n      0x40\n      mstore\n      dup1\n        /* \"SimpleStorage.sol\":5441:5449  recordId */\n      dup4\n        /* \"SimpleStorage.sol\":5408:5759  MedicalRecord({... */\n      0xffffffff\n      and\n      dup2\n      mstore\n      0x20\n      add\n        /* \"SimpleStorage.sol\":5480:5487  patient */\n      dup12\n        /* \"SimpleStorage.sol\":5408:5759  MedicalRecord({... */\n      0xffffffffffffffffffffffffffffffffffffffff\n      and\n      dup2\n      mstore\n      0x20\n      add\n        /* \"SimpleStorage.sol\":5515:5516  p */\n      dup5\n        /* \"SimpleStorage.sol\":5515:5521  p.name */\n      0x01\n      add\n        /* \"SimpleStorage.sol\":5408:5759  MedicalRecord({... */\n      dup1\n      sload\n      tag_157\n      swap1\n      tag_81\n      jump\t// in\n    tag_157:\n      dup1\n      0x1f\n      add\n      0x20\n      dup1\n      swap2\n      div\n      mul\n      0x20\n      add\n      mload(0x40)\n      swap1\n      dup2\n      add\n      0x40\n      mstore\n      dup1\n      swap3\n      swap2\n      swap1\n      dup2\n      dup2\n      mstore\n      0x20\n      add\n      dup3\n      dup1\n      sload\n      tag_158\n      swap1\n      tag_81\n      jump\t// in\n    tag_158:\n      dup1\n      iszero\n      tag_159\n      jumpi\n      dup1\n      0x1f\n      lt\n      tag_160\n      jumpi\n      0x0100\n      dup1\n      dup4\n      sload\n      div\n      mul\n      dup4\n      mstore\n      swap2\n      0x20\n      add\n      swap2\n      jump(tag_159)\n    tag_160:\n      dup3\n      add\n      swap2\n      swap1\n      0x00\n      mstore\n      keccak256(0x00, 0x20)\n      swap1\n    tag_161:\n      dup2\n      sload\n      dup2\n      mstore\n      swap1\n      0x01\n      add\n      swap1\n      0x20\n      add\n      dup1\n      dup4\n      gt\n      tag_161\n      jumpi\n      dup3\n      swap1\n      sub\n      0x1f\n      and\n      dup3\n      add\n      swap2\n    tag_159:\n      pop\n      pop\n      pop\n      pop\n      pop\n      dup2\n      mstore\n      0x20\n      add\n        /* \"SimpleStorage.sol\":5551:5561  msg.sender */\n      caller\n        /* \"SimpleStorage.sol\":5408:5759  MedicalRecord({... */\n      0xffffffffffffffffffffffffffffffffffffffff\n      and\n      dup2\n      mstore\n      0x20\n      add\n        /* \"SimpleStorage.sol\":5588:5589  d */\n      dup6\n        /* \"SimpleStorage.sol\":5588:5594  d.name */\n      0x01\n      add\n        /* \"SimpleStorage.sol\":5408:5759  MedicalRecord({... */\n      dup1\n      sload\n      tag_162\n      swap1\n      tag_81\n      jump\t// in\n    tag_162:\n      dup1\n      0x1f\n      add\n      0x20\n      dup1\n      swap2\n      div\n      mul\n      0x20\n      add\n      mload(0x40)\n      swap1\n      dup2\n      add\n      0x40\n      mstore\n      dup1\n      swap3\n      swap2\n      swap1\n      dup2\n      dup2\n      mstore\n      0x20\n      add\n      dup3\n      dup1\n      sload\n      tag_163\n      swap1\n      tag_81\n      jump\t// in\n    tag_163:\n      dup1\n      iszero\n      tag_164\n      jumpi\n      dup1\n      0x1f\n      lt\n      tag_165\n      jumpi\n      0x0100\n      dup1\n      dup4\n      sload\n      div\n      mul\n      dup4\n      mstore\n      swap2\n      0x20\n      add\n      swap2\n      jump(tag_164)\n    tag_165:\n      dup3\n      add\n      swap2\n      swap1\n      0x00\n      mstore\n      keccak256(0x00, 0x20)\n      swap1\n    tag_166:\n      dup2\n      sload\n      dup2\n      mstore\n      swap1\n      0x01\n      add\n      swap1\n      0x20\n      add\n      dup1\n      dup4\n      gt\n      tag_166\n      jumpi\n      dup3\n      swap1\n      sub\n      0x1f\n      and\n      dup3\n      add\n      swap2\n    tag_164:\n      pop\n      pop\n      pop\n      pop\n      pop\n      dup2\n      mstore\n      0x20\n      add\n        /* \"SimpleStorage.sol\":5620:5629  diagnosis */\n      dup11\n      dup11\n        /* \"SimpleStorage.sol\":5408:5759  MedicalRecord({... */\n      dup1\n      dup1\n      0x1f\n      add\n      0x20\n      dup1\n      swap2\n      div\n      mul\n      0x20\n      add\n      mload(0x40)\n      swap1\n      dup2\n      add\n      0x40\n      mstore\n      dup1\n      swap4\n      swap3\n      swap2\n      swap1\n      dup2\n      dup2\n      mstore\n      0x20\n      add\n      dup4\n      dup4\n      dup1\n      dup3\n      dup5\n      calldatacopy\n      0x00\n      dup2\n      dup5\n      add\n      mstore\n      not(0x1f)\n      0x1f\n      dup3\n      add\n      and\n      swap1\n      pop\n      dup1\n      dup4\n      add\n      swap3\n      pop\n      pop\n      pop\n      pop\n      pop\n      pop\n      pop\n      dup2\n      mstore\n      0x20\n      add\n        /* \"SimpleStorage.sol\":5655:5664  treatment */\n      dup9\n      dup9\n        /* \"SimpleStorage.sol\":5408:5759  MedicalRecord({... */\n      dup1\n      dup1\n      0x1f\n      add\n      0x20\n      dup1\n      swap2\n      div\n      mul\n      0x20\n      add\n      mload(0x40)\n      swap1\n      dup2\n      add\n      0x40\n      mstore\n      dup1\n      swap4\n      swap3\n      swap2\n      swap1\n      dup2\n      dup2\n      mstore\n      0x20\n      add\n      dup4\n      dup4\n      dup1\n      dup3\n      dup5\n      calldatacopy\n      0x00\n      dup2\n      dup5\n      add\n      mstore\n      not(0x1f)\n      0x1f\n      dup3\n      add\n      and\n      swap1\n      pop\n      dup1\n      dup4\n      add\n      swap3\n      pop\n      pop\n      pop\n      pop\n      pop\n      pop\n      pop\n      dup2\n      mstore\n      0x20\n      add\n        /* \"SimpleStorage.sol\":5690:5692  ts */\n      dup3\n        /* \"SimpleStorage.sol\":5408:5759  MedicalRecord({... */\n      0xffffffffffffffff\n      and\n      dup2\n      mstore\n      0x20\n      add\n        /* \"SimpleStorage.sol\":5718:5720  ts */\n      dup3\n        /* \"SimpleStorage.sol\":5408:5759  MedicalRecord({... */\n      0xffffffffffffffff\n      and\n      dup2\n      mstore\n      0x20\n      add\n        /* \"SimpleStorage.sol\":5743:5747  true */\n      0x01\n        /* \"SimpleStorage.sol\":5408:5759  MedicalRecord({... */\n      iszero\n      iszero\n      dup2\n      mstore\n      pop\n        /* \"SimpleStorage.sol\":5388:5395  records */\n      0x01\n        /* \"SimpleStorage.sol\":5388:5405  records[recordId] */\n      0x00\n        /* \"SimpleStorage.sol\":5396:5404  recordId */\n      dup5\n        /* \"SimpleStorage.sol\":5388:5405  records[recordId] */\n      0xffffffff\n      and\n      dup2\n      mstore\n      0x20\n      add\n      swap1\n      dup2\n      mstore\n      0x20\n      add\n      0x00\n      keccak256\n        /* \"SimpleStorage.sol\":5388:5759  records[recordId] = MedicalRecord({... */\n      0x00\n      dup3\n      add\n      mload\n      dup2\n      0x00\n      add\n      exp(0x0100, 0x00)\n      dup2\n      sload\n      dup2\n      0xffffffff\n      mul\n      not\n      and\n      swap1\n      dup4\n      0xffffffff\n      and\n      mul\n      or\n      swap1\n      sstore\n      pop\n      0x20\n      dup3\n      add\n      mload\n      dup2\n      0x00\n      add\n      exp(0x0100, 0x04)\n      dup2\n      sload\n      dup2\n      0xffffffffffffffffffffffffffffffffffffffff\n      mul\n      not\n      and\n      swap1\n      dup4\n      0xffffffffffffffffffffffffffffffffffffffff\n      and\n      mul\n      or\n      swap1\n      sstore\n      pop\n      0x40\n      dup3\n      add\n      mload\n      dup2\n      0x01\n      add\n      swap1\n      dup2\n      tag_167\n      swap2\n      swap1\n      tag_168\n      jump\t// in\n    tag_167:\n      pop\n      0x60\n      dup3\n      add\n      mload\n      dup2\n      0x02\n      add\n      exp(0x0100, 0x00)\n      dup2\n      sload\n      dup2\n      0xffffffffffffffffffffffffffffffffffffffff\n      mul\n      not\n      and\n      swap1\n      dup4\n      0xffffffffffffffffffffffffffffffffffffffff\n      and\n      mul\n      or\n      swap1\n      sstore\n      pop\n      0x80\n      dup3\n      add\n      mload\n      dup2\n      0x03\n      add\n      swap1\n      dup2\n      tag_169\n      swap2\n      swap1\n      tag_168\n      jump\t// in\n    tag_169:\n      pop\n      0xa0\n      dup3\n      add\n      mload\n      dup2\n      0x04\n      add\n      swap1\n      dup2\n      tag_170\n      swap2\n      swap1\n      tag_168\n      jump\t// in\n    tag_170:\n      pop\n      0xc0\n      dup3\n      add\n      mload\n      dup2\n      0x05\n      add\n      swap1\n      dup2\n      tag_171\n      swap2\n      swap1\n      tag_168\n      jump\t// in\n    tag_171:\n      pop\n      0xe0\n      dup3\n      add\n      mload\n      dup2\n      0x06\n      add\n      exp(0x0100, 0x00)\n      dup2\n      sload\n      dup2\n      0xffffffffffffffff\n      mul\n      not\n      and\n      swap1\n      dup4\n      0xffffffffffffffff\n      and\n      mul\n      or\n      swap1\n      sstore\n      pop\n      0x0100\n      dup3\n      add\n      mload\n      dup2\n      0x06\n      add\n      exp(0x0100, 0x08)\n      dup2\n      sload\n      dup2\n      0xffffffffffffffff\n      mul\n      not\n      and\n      swap1\n      dup4\n      0xffffffffffffffff\n      and\n      mul\n      or\n      swap1\n      sstore\n      pop\n      0x0120\n      dup3\n      add\n      mload\n      dup2\n      0x06\n      add\n      exp(0x0100, 0x10)\n      dup2\n      sload\n      dup2\n      0xff\n      mul\n      not\n      and\n      swap1\n      dup4\n      iszero\n      iszero\n      mul\n      or\n      swap1\n      sstore\n      pop\n      swap1\n      pop\n      pop\n        /* \"SimpleStorage.sol\":5802:5816  patientRecords */\n      0x03\n        /* \"SimpleStorage.sol\":5802:5825  patientRecords[patient] */\n      0x00\n        /* \"SimpleStorage.sol\":5817:5824  patient */\n      dup12\n        /* \"SimpleStorage.sol\":5802:5825  patientRecords[patient] */\n      0xffffffffffffffffffffffffffffffffffffffff\n      and\n      0xffffffffffffffffffffffffffffffffffffffff\n      and\n      dup2\n      mstore\n      0x20\n      add\n      swap1\n      dup2\n      mstore\n      0x20\n      add\n      0x00\n      keccak256\n        /* \"SimpleStorage.sol\":5831:5839  recordId */\n      dup3\n        /* \"SimpleStorage.sol\":5802:5840  patientRecords[patient].push(recordId) */\n      swap1\n      dup1\n      0x01\n      dup2\n      sload\n      add\n      dup1\n      dup3\n      sstore\n      dup1\n      swap2\n      pop\n      pop\n      0x01\n      swap1\n      sub\n      swap1\n      0x00\n      mstore\n      keccak256(0x00, 0x20)\n      add\n      0x00\n      swap1\n      swap2\n      0xffffffff\n      and\n      swap1\n      swap2\n      swap1\n      swap2\n      pop\n      sstore\n        /* \"SimpleStorage.sol\":5882:5895  doctorRecords */\n      0x04\n        /* \"SimpleStorage.sol\":5882:5907  doctorRecords[msg.sender] */\n      0x00\n        /* \"SimpleStorage.sol\":5896:5906  msg.sender */\n      caller\n        /* \"SimpleStorage.sol\":5882:5907  doctorRecords[msg.sender] */\n      0xffffffffffffffffffffffffffffffffffffffff\n      and\n      0xffffffffffffffffffffffffffffffffffffffff\n      and\n      dup2\n      mstore\n      0x20\n      add\n      swap1\n      dup2\n      mstore\n      0x20\n      add\n      0x00\n      keccak256\n        /* \"SimpleStorage.sol\":5913:5921  recordId */\n      dup3\n        /* \"SimpleStorage.sol\":5882:5922  doctorRecords[msg.sender].push(recordId) */\n      swap1\n      dup1\n      0x01\n      dup2\n      sload\n      add\n      dup1\n      dup3\n      sstore\n      dup1\n      swap2\n      pop\n      pop\n      0x01\n      swap1\n      sub\n      swap1\n      0x00\n      mstore\n      keccak256(0x00, 0x20)\n      add\n      0x00\n      swap1\n      swap2\n      0xffffffff\n      and\n      swap1\n      swap2\n      swap1\n      swap2\n      pop\n      sstore\n        /* \"SimpleStorage.sol\":5977:5989  allRecordIds */\n      0x05\n        /* \"SimpleStorage.sol\":5995:6003  recordId */\n      dup3\n        /* \"SimpleStorage.sol\":5977:6004  allRecordIds.push(recordId) */\n      swap1\n      dup1\n      0x01\n      dup2\n      sload\n      add\n      dup1\n      dup3\n      sstore\n      dup1\n      swap2\n      pop\n      pop\n      0x01\n      swap1\n      sub\n      swap1\n      0x00\n      mstore\n      keccak256(0x00, 0x20)\n      add\n      0x00\n      swap1\n      swap2\n      0xffffffff\n      and\n      swap1\n      swap2\n      swap1\n      swap2\n      pop\n      sstore\n        /* \"SimpleStorage.sol\":6024:6032  recordId */\n      dup2\n        /* \"SimpleStorage.sol\":6017:6032  return recordId */\n      swap5\n      pop\n      pop\n      pop\n      pop\n      pop\n        /* \"SimpleStorage.sol\":4601:6040  function create_record(... */\n      swap6\n      swap5\n      pop\n      pop\n      pop\n      pop\n      pop\n      jump\t// out\n        /* \"SimpleStorage.sol\":2841:3868  function register_user(... */\n    tag_50:\n        /* \"SimpleStorage.sol\":3199:3200  0 */\n      0x00\n        /* \"SimpleStorage.sol\":3186:3196  totalUsers */\n      sload(0x06)\n        /* \"SimpleStorage.sol\":3186:3200  totalUsers > 0 */\n      gt\n        /* \"SimpleStorage.sol\":3182:3396  if (totalUsers > 0) {... */\n      iszero\n      tag_176\n      jumpi\n        /* \"SimpleStorage.sol\":3217:3242  _requireAdmin(msg.sender) */\n      tag_177\n        /* \"SimpleStorage.sol\":3231:3241  msg.sender */\n      caller\n        /* \"SimpleStorage.sol\":3217:3230  _requireAdmin */\n      tag_104\n        /* \"SimpleStorage.sol\":3217:3242  _requireAdmin(msg.sender) */\n      jump\t// in\n    tag_177:\n        /* \"SimpleStorage.sol\":3182:3396  if (totalUsers > 0) {... */\n      jump(tag_178)\n    tag_176:\n        /* \"SimpleStorage.sol\":3351:3361  Role.Admin */\n      0x00\n        /* \"SimpleStorage.sol\":3343:3361  role != Role.Admin */\n      0x02\n      dup2\n      gt\n      iszero\n      tag_179\n      jumpi\n      tag_180\n      tag_143\n      jump\t// in\n    tag_180:\n    tag_179:\n        /* \"SimpleStorage.sol\":3343:3347  role */\n      dup10\n        /* \"SimpleStorage.sol\":3343:3361  role != Role.Admin */\n      0x02\n      dup2\n      gt\n      iszero\n      tag_181\n      jumpi\n      tag_182\n      tag_143\n      jump\t// in\n    tag_182:\n    tag_181:\n      eq\n        /* \"SimpleStorage.sol\":3339:3384  if (role != Role.Admin) revert Unauthorized() */\n      tag_183\n      jumpi\n        /* \"SimpleStorage.sol\":3370:3384  Unauthorized() */\n      mload(0x40)\n      0x82b4290000000000000000000000000000000000000000000000000000000000\n      dup2\n      mstore\n      0x04\n      add\n      mload(0x40)\n      dup1\n      swap2\n      sub\n      swap1\n      revert\n        /* \"SimpleStorage.sol\":3339:3384  if (role != Role.Admin) revert Unauthorized() */\n    tag_183:\n        /* \"SimpleStorage.sol\":3182:3396  if (totalUsers > 0) {... */\n    tag_178:\n        /* \"SimpleStorage.sol\":3412:3417  users */\n      0x00\n        /* \"SimpleStorage.sol\":3412:3430  users[userAddress] */\n      0x00\n        /* \"SimpleStorage.sol\":3418:3429  userAddress */\n      dup12\n        /* \"SimpleStorage.sol\":3412:3430  users[userAddress] */\n      0xffffffffffffffffffffffffffffffffffffffff\n      and\n      0xffffffffffffffffffffffffffffffffffffffff\n      and\n      dup2\n      mstore\n      0x20\n      add\n      swap1\n      dup2\n      mstore\n      0x20\n      add\n      0x00\n      keccak256\n        /* \"SimpleStorage.sol\":3412:3437  users[userAddress].exists */\n      0x05\n      add\n      0x0a\n      swap1\n      sload\n      swap1\n      0x0100\n      exp\n      swap1\n      div\n      0xff\n      and\n        /* \"SimpleStorage.sol\":3408:3461  if (users[userAddress].exists) revert AlreadyExists() */\n      iszero\n      tag_184\n      jumpi\n        /* \"SimpleStorage.sol\":3446:3461  AlreadyExists() */\n      mload(0x40)\n      0x23369fa600000000000000000000000000000000000000000000000000000000\n      dup2\n      mstore\n      0x04\n      add\n      mload(0x40)\n      dup1\n      swap2\n      sub\n      swap1\n      revert\n        /* \"SimpleStorage.sol\":3408:3461  if (users[userAddress].exists) revert AlreadyExists() */\n    tag_184:\n        /* \"SimpleStorage.sol\":3495:3832  User({... */\n      mload(0x40)\n      dup1\n      0x0140\n      add\n      0x40\n      mstore\n      dup1\n        /* \"SimpleStorage.sol\":3528:3539  userAddress */\n      dup12\n        /* \"SimpleStorage.sol\":3495:3832  User({... */\n      0xffffffffffffffffffffffffffffffffffffffff\n      and\n      dup2\n      mstore\n      0x20\n      add\n        /* \"SimpleStorage.sol\":3560:3564  role */\n      dup11\n        /* \"SimpleStorage.sol\":3495:3832  User({... */\n      0x02\n      dup2\n      gt\n      iszero\n      tag_185\n      jumpi\n      tag_186\n      tag_143\n      jump\t// in\n    tag_186:\n    tag_185:\n      dup2\n      mstore\n      0x20\n      add\n        /* \"SimpleStorage.sol\":3585:3589  name */\n      dup10\n      dup10\n        /* \"SimpleStorage.sol\":3495:3832  User({... */\n      dup1\n      dup1\n      0x1f\n      add\n      0x20\n      dup1\n      swap2\n      div\n      mul\n      0x20\n      add\n      mload(0x40)\n      swap1\n      dup2\n      add\n      0x40\n      mstore\n      dup1\n      swap4\n      swap3\n      swap2\n      swap1\n      dup2\n      dup2\n      mstore\n      0x20\n      add\n      dup4\n      dup4\n      dup1\n      dup3\n      dup5\n      calldatacopy\n      0x00\n      dup2\n      dup5\n      add\n      mstore\n      not(0x1f)\n      0x1f\n      dup3\n      add\n      and\n      swap1\n      pop\n      dup1\n      dup4\n      add\n      swap3\n      pop\n      pop\n      pop\n      pop\n      pop\n      pop\n      pop\n      dup2\n      mstore\n      0x20\n      add\n        /* \"SimpleStorage.sol\":3609:3612  age */\n      dup8\n        /* \"SimpleStorage.sol\":3495:3832  User({... */\n      0xffffffff\n      and\n      dup2\n      mstore\n      0x20\n      add\n        /* \"SimpleStorage.sol\":3634:3639  email */\n      dup7\n      dup7\n        /* \"SimpleStorage.sol\":3495:3832  User({... */\n      dup1\n      dup1\n      0x1f\n      add\n      0x20\n      dup1\n      swap2\n      div\n      mul\n      0x20\n      add\n      mload(0x40)\n      swap1\n      dup2\n      add\n      0x40\n      mstore\n      dup1\n      swap4\n      swap3\n      swap2\n      swap1\n      dup2\n      dup2\n      mstore\n      0x20\n      add\n      dup4\n      dup4\n      dup1\n      dup3\n      dup5\n      calldatacopy\n      0x00\n      dup2\n      dup5\n      add\n      mstore\n      not(0x1f)\n      0x1f\n      dup3\n      add\n      and\n      swap1\n      pop\n      dup1\n      dup4\n      add\n      swap3\n      pop\n      pop\n      pop\n      pop\n      pop\n      pop\n      pop\n      dup2\n      mstore\n      0x20\n      add\n        /* \"SimpleStorage.sol\":3665:3674  specialty */\n      dup5\n      dup5\n        /* \"SimpleStorage.sol\":3495:3832  User({... */\n      dup1\n      dup1\n      0x1f\n      add\n      0x20\n      dup1\n      swap2\n      div\n      mul\n      0x20\n      add\n      mload(0x40)\n      swap1\n      dup2\n      add\n      0x40\n      mstore\n      dup1\n      swap4\n      swap3\n      swap2\n      swap1\n      dup2\n      dup2\n      mstore\n      0x20\n      add\n      dup4\n      dup4\n      dup1\n      dup3\n      dup5\n      calldatacopy\n      0x00\n      dup2\n      dup5\n      add\n      mstore\n      not(0x1f)\n      0x1f\n      dup3\n      add\n      and\n      swap1\n      pop\n      dup1\n      dup4\n      add\n      swap3\n      pop\n      pop\n      pop\n      pop\n      pop\n      pop\n      pop\n      dup2\n      mstore\n      0x20\n      add\n        /* \"SimpleStorage.sol\":3703:3715  hasSpecialty */\n      dup3\n        /* \"SimpleStorage.sol\":3495:3832  User({... */\n      iszero\n      iszero\n      dup2\n      mstore\n      0x20\n      add\n        /* \"SimpleStorage.sol\":3740:3744  true */\n      0x01\n        /* \"SimpleStorage.sol\":3495:3832  User({... */\n      iszero\n      iszero\n      dup2\n      mstore\n      0x20\n      add\n        /* \"SimpleStorage.sol\":3777:3792  block.timestamp */\n      timestamp\n        /* \"SimpleStorage.sol\":3495:3832  User({... */\n      0xffffffffffffffff\n      and\n      dup2\n      mstore\n      0x20\n      add\n        /* \"SimpleStorage.sol\":3816:3820  true */\n      0x01\n        /* \"SimpleStorage.sol\":3495:3832  User({... */\n      iszero\n      iszero\n      dup2\n      mstore\n      pop\n        /* \"SimpleStorage.sol\":3474:3479  users */\n      0x00\n        /* \"SimpleStorage.sol\":3474:3492  users[userAddress] */\n      0x00\n        /* \"SimpleStorage.sol\":3480:3491  userAddress */\n      dup13\n        /* \"SimpleStorage.sol\":3474:3492  users[userAddress] */\n      0xffffffffffffffffffffffffffffffffffffffff\n      and\n      0xffffffffffffffffffffffffffffffffffffffff\n      and\n      dup2\n      mstore\n      0x20\n      add\n      swap1\n      dup2\n      mstore\n      0x20\n      add\n      0x00\n      keccak256\n        /* \"SimpleStorage.sol\":3474:3832  users[userAddress] = User({... */\n      0x00\n      dup3\n      add\n      mload\n      dup2\n      0x00\n      add\n      exp(0x0100, 0x00)\n      dup2\n      sload\n      dup2\n      0xffffffffffffffffffffffffffffffffffffffff\n      mul\n      not\n      and\n      swap1\n      dup4\n      0xffffffffffffffffffffffffffffffffffffffff\n      and\n      mul\n      or\n      swap1\n      sstore\n      pop\n      0x20\n      dup3\n      add\n      mload\n      dup2\n      0x00\n      add\n      exp(0x0100, 0x14)\n      dup2\n      sload\n      dup2\n      0xff\n      mul\n      not\n      and\n      swap1\n      dup4\n      0x02\n      dup2\n      gt\n      iszero\n      tag_187\n      jumpi\n      tag_188\n      tag_143\n      jump\t// in\n    tag_188:\n    tag_187:\n      mul\n      or\n      swap1\n      sstore\n      pop\n      0x40\n      dup3\n      add\n      mload\n      dup2\n      0x01\n      add\n      swap1\n      dup2\n      tag_189\n      swap2\n      swap1\n      tag_168\n      jump\t// in\n    tag_189:\n      pop\n      0x60\n      dup3\n      add\n      mload\n      dup2\n      0x02\n      add\n      exp(0x0100, 0x00)\n      dup2\n      sload\n      dup2\n      0xffffffff\n      mul\n      not\n      and\n      swap1\n      dup4\n      0xffffffff\n      and\n      mul\n      or\n      swap1\n      sstore\n      pop\n      0x80\n      dup3\n      add\n      mload\n      dup2\n      0x03\n      add\n      swap1\n      dup2\n      tag_190\n      swap2\n      swap1\n      tag_168\n      jump\t// in\n    tag_190:\n      pop\n      0xa0\n      dup3\n      add\n      mload\n      dup2\n      0x04\n      add\n      swap1\n      dup2\n      tag_191\n      swap2\n      swap1\n      tag_168\n      jump\t// in\n    tag_191:\n      pop\n      0xc0\n      dup3\n      add\n      mload\n      dup2\n      0x05\n      add\n      exp(0x0100, 0x00)\n      dup2\n      sload\n      dup2\n      0xff\n      mul\n      not\n      and\n      swap1\n      dup4\n      iszero\n      iszero\n      mul\n      or\n      swap1\n      sstore\n      pop\n      0xe0\n      dup3\n      add\n      mload\n      dup2\n      0x05\n      add\n      exp(0x0100, 0x01)\n      dup2\n      sload\n      dup2\n      0xff\n      mul\n      not\n      and\n      swap1\n      dup4\n      iszero\n      iszero\n      mul\n      or\n      swap1\n      sstore\n      pop\n      0x0100\n      dup3\n      add\n      mload\n      dup2\n      0x05\n      add\n      exp(0x0100, 0x02)\n      dup2\n      sload\n      dup2\n      0xffffffffffffffff\n      mul\n      not\n      and\n      swap1\n      dup4\n      0xffffffffffffffff\n      and\n      mul\n      or\n      swap1\n      sstore\n      pop\n      0x0120\n      dup3\n      add\n      mload\n      dup2\n      0x05\n      add\n      exp(0x0100, 0x0a)\n      dup2\n      sload\n      dup2\n      0xff\n      mul\n      not\n      and\n      swap1\n      dup4\n      iszero\n      iszero\n      mul\n      or\n      swap1\n      sstore\n      pop\n      swap1\n      pop\n      pop\n        /* \"SimpleStorage.sol\":3859:3860  1 */\n      0x01\n        /* \"SimpleStorage.sol\":3845:3855  totalUsers */\n      0x06\n      0x00\n        /* \"SimpleStorage.sol\":3845:3860  totalUsers += 1 */\n      dup3\n      dup3\n      sload\n      tag_192\n      swap2\n      swap1\n      tag_193\n      jump\t// in\n    tag_192:\n      swap3\n      pop\n      pop\n      dup2\n      swap1\n      sstore\n      pop\n        /* \"SimpleStorage.sol\":2841:3868  function register_user(... */\n      pop\n      pop\n      pop\n      pop\n      pop\n      pop\n      pop\n      pop\n      pop\n      pop\n      jump\t// out\n        /* \"SimpleStorage.sol\":7775:8166  function get_records_by_patient(address patient) external view returns (MedicalRecord[] memory) {... */\n    tag_53:\n        /* \"SimpleStorage.sol\":7847:7869  MedicalRecord[] memory */\n      0x60\n        /* \"SimpleStorage.sol\":7882:7903  uint256[] storage ids */\n      0x00\n        /* \"SimpleStorage.sol\":7906:7920  patientRecords */\n      0x03\n        /* \"SimpleStorage.sol\":7906:7929  patientRecords[patient] */\n      0x00\n        /* \"SimpleStorage.sol\":7921:7928  patient */\n      dup5\n        /* \"SimpleStorage.sol\":7906:7929  patientRecords[patient] */\n      0xffffffffffffffffffffffffffffffffffffffff\n      and\n      0xffffffffffffffffffffffffffffffffffffffff\n      and\n      dup2\n      mstore\n      0x20\n      add\n      swap1\n      dup2\n      mstore\n      0x20\n      add\n      0x00\n      keccak256\n        /* \"SimpleStorage.sol\":7882:7929  uint256[] storage ids = patientRecords[patient] */\n      swap1\n      pop\n        /* \"SimpleStorage.sol\":7940:7949  uint256 n */\n      0x00\n        /* \"SimpleStorage.sol\":7952:7955  ids */\n      dup2\n        /* \"SimpleStorage.sol\":7952:7962  ids.length */\n      dup1\n      sload\n      swap1\n      pop\n        /* \"SimpleStorage.sol\":7940:7962  uint256 n = ids.length */\n      swap1\n      pop\n        /* \"SimpleStorage.sol\":7973:8002  MedicalRecord[] memory outArr */\n      0x00\n        /* \"SimpleStorage.sol\":8025:8026  n */\n      dup2\n        /* \"SimpleStorage.sol\":8005:8027  new MedicalRecord[](n) */\n      0xffffffffffffffff\n      dup2\n      gt\n      iszero\n      tag_195\n      jumpi\n      tag_196\n      tag_62\n      jump\t// in\n    tag_196:\n    tag_195:\n      mload(0x40)\n      swap1\n      dup1\n      dup3\n      mstore\n      dup1\n      0x20\n      mul\n      0x20\n      add\n      dup3\n      add\n      0x40\n      mstore\n      dup1\n      iszero\n      tag_197\n      jumpi\n      dup2\n      0x20\n      add\n    tag_198:\n      tag_199\n      tag_66\n      jump\t// in\n    tag_199:\n      dup2\n      mstore\n      0x20\n      add\n      swap1\n      0x01\n      swap1\n      sub\n      swap1\n      dup2\n      tag_198\n      jumpi\n      swap1\n      pop\n    tag_197:\n      pop\n        /* \"SimpleStorage.sol\":7973:8027  MedicalRecord[] memory outArr = new MedicalRecord[](n) */\n      swap1\n      pop\n        /* \"SimpleStorage.sol\":8043:8052  uint256 i */\n      0x00\n        /* \"SimpleStorage.sol\":8055:8056  0 */\n      0x00\n        /* \"SimpleStorage.sol\":8043:8056  uint256 i = 0 */\n      swap1\n      pop\n        /* \"SimpleStorage.sol\":8038:8135  for (uint256 i = 0; i < n; i++) {... */\n    tag_200:\n        /* \"SimpleStorage.sol\":8062:8063  n */\n      dup3\n        /* \"SimpleStorage.sol\":8058:8059  i */\n      dup2\n        /* \"SimpleStorage.sol\":8058:8063  i < n */\n      lt\n        /* \"SimpleStorage.sol\":8038:8135  for (uint256 i = 0; i < n; i++) {... */\n      iszero\n      tag_201\n      jumpi\n        /* \"SimpleStorage.sol\":8097:8123  get_record(uint32(ids[i])) */\n      tag_203\n        /* \"SimpleStorage.sol\":8115:8118  ids */\n      dup5\n        /* \"SimpleStorage.sol\":8119:8120  i */\n      dup3\n        /* \"SimpleStorage.sol\":8115:8121  ids[i] */\n      dup2\n      sload\n      dup2\n      lt\n      tag_204\n      jumpi\n      tag_205\n      tag_73\n      jump\t// in\n    tag_205:\n    tag_204:\n      swap1\n      0x00\n      mstore\n      keccak256(0x00, 0x20)\n      add\n      sload\n        /* \"SimpleStorage.sol\":8097:8107  get_record */\n      tag_23\n        /* \"SimpleStorage.sol\":8097:8123  get_record(uint32(ids[i])) */\n      jump\t// in\n    tag_203:\n        /* \"SimpleStorage.sol\":8085:8091  outArr */\n      dup3\n        /* \"SimpleStorage.sol\":8092:8093  i */\n      dup3\n        /* \"SimpleStorage.sol\":8085:8094  outArr[i] */\n      dup2\n      mload\n      dup2\n      lt\n      tag_207\n      jumpi\n      tag_208\n      tag_73\n      jump\t// in\n    tag_208:\n    tag_207:\n      0x20\n      mul\n      0x20\n      add\n      add\n        /* \"SimpleStorage.sol\":8085:8123  outArr[i] = get_record(uint32(ids[i])) */\n      dup2\n      swap1\n      mstore\n      pop\n        /* \"SimpleStorage.sol\":8065:8068  i++ */\n      dup1\n      dup1\n      0x01\n      add\n      swap2\n      pop\n      pop\n        /* \"SimpleStorage.sol\":8038:8135  for (uint256 i = 0; i < n; i++) {... */\n      jump(tag_200)\n    tag_201:\n      pop\n        /* \"SimpleStorage.sol\":8152:8158  outArr */\n      dup1\n        /* \"SimpleStorage.sol\":8145:8158  return outArr */\n      swap4\n      pop\n      pop\n      pop\n      pop\n        /* \"SimpleStorage.sol\":7775:8166  function get_records_by_patient(address patient) external view returns (MedicalRecord[] memory) {... */\n      swap2\n      swap1\n      pop\n      jump\t// out\n        /* \"SimpleStorage.sol\":6236:6671  function update_record(... */\n    tag_58:\n        /* \"SimpleStorage.sol\":6384:6407  MedicalRecord storage r */\n      0x00\n        /* \"SimpleStorage.sol\":6410:6417  records */\n      0x01\n        /* \"SimpleStorage.sol\":6410:6427  records[recordId] */\n      0x00\n        /* \"SimpleStorage.sol\":6418:6426  recordId */\n      dup8\n        /* \"SimpleStorage.sol\":6410:6427  records[recordId] */\n      0xffffffff\n      and\n      dup2\n      mstore\n      0x20\n      add\n      swap1\n      dup2\n      mstore\n      0x20\n      add\n      0x00\n      keccak256\n        /* \"SimpleStorage.sol\":6384:6427  MedicalRecord storage r = records[recordId] */\n      swap1\n      pop\n        /* \"SimpleStorage.sol\":6443:6444  r */\n      dup1\n        /* \"SimpleStorage.sol\":6443:6451  r.exists */\n      0x06\n      add\n      0x10\n      swap1\n      sload\n      swap1\n      0x0100\n      exp\n      swap1\n      div\n      0xff\n      and\n        /* \"SimpleStorage.sol\":6438:6476  if (!r.exists) revert RecordNotFound() */\n      tag_210\n      jumpi\n        /* \"SimpleStorage.sol\":6460:6476  RecordNotFound() */\n      mload(0x40)\n      0x3e07f1a100000000000000000000000000000000000000000000000000000000\n      dup2\n      mstore\n      0x04\n      add\n      mload(0x40)\n      dup1\n      swap2\n      sub\n      swap1\n      revert\n        /* \"SimpleStorage.sol\":6438:6476  if (!r.exists) revert RecordNotFound() */\n    tag_210:\n        /* \"SimpleStorage.sol\":6512:6522  msg.sender */\n      caller\n        /* \"SimpleStorage.sol\":6493:6522  r.doctorAddress != msg.sender */\n      0xffffffffffffffffffffffffffffffffffffffff\n      and\n        /* \"SimpleStorage.sol\":6493:6494  r */\n      dup2\n        /* \"SimpleStorage.sol\":6493:6508  r.doctorAddress */\n      0x02\n      add\n      0x00\n      swap1\n      sload\n      swap1\n      0x0100\n      exp\n      swap1\n      div\n      0xffffffffffffffffffffffffffffffffffffffff\n      and\n        /* \"SimpleStorage.sol\":6493:6522  r.doctorAddress != msg.sender */\n      0xffffffffffffffffffffffffffffffffffffffff\n      and\n      eq\n        /* \"SimpleStorage.sol\":6489:6545  if (r.doctorAddress != msg.sender) revert Unauthorized() */\n      tag_211\n      jumpi\n        /* \"SimpleStorage.sol\":6531:6545  Unauthorized() */\n      mload(0x40)\n      0x82b4290000000000000000000000000000000000000000000000000000000000\n      dup2\n      mstore\n      0x04\n      add\n      mload(0x40)\n      dup1\n      swap2\n      sub\n      swap1\n      revert\n        /* \"SimpleStorage.sol\":6489:6545  if (r.doctorAddress != msg.sender) revert Unauthorized() */\n    tag_211:\n        /* \"SimpleStorage.sol\":6572:6581  diagnosis */\n      dup5\n      dup5\n        /* \"SimpleStorage.sol\":6558:6559  r */\n      dup3\n        /* \"SimpleStorage.sol\":6558:6569  r.diagnosis */\n      0x04\n      add\n        /* \"SimpleStorage.sol\":6558:6581  r.diagnosis = diagnosis */\n      swap2\n      dup3\n      tag_212\n      swap3\n      swap2\n      swap1\n      tag_213\n      jump\t// in\n    tag_212:\n      pop\n        /* \"SimpleStorage.sol\":6606:6615  treatment */\n      dup3\n      dup3\n        /* \"SimpleStorage.sol\":6592:6593  r */\n      dup3\n        /* \"SimpleStorage.sol\":6592:6603  r.treatment */\n      0x05\n      add\n        /* \"SimpleStorage.sol\":6592:6615  r.treatment = treatment */\n      swap2\n      dup3\n      tag_214\n      swap3\n      swap2\n      swap1\n      tag_213\n      jump\t// in\n    tag_214:\n      pop\n        /* \"SimpleStorage.sol\":6647:6662  block.timestamp */\n      timestamp\n        /* \"SimpleStorage.sol\":6626:6627  r */\n      dup2\n        /* \"SimpleStorage.sol\":6626:6637  r.updatedAt */\n      0x06\n      add\n      0x08\n        /* \"SimpleStorage.sol\":6626:6663  r.updatedAt = uint64(block.timestamp) */\n      0x0100\n      exp\n      dup2\n      sload\n      dup2\n      0xffffffffffffffff\n      mul\n      not\n      and\n      swap1\n      dup4\n      0xffffffffffffffff\n      and\n      mul\n      or\n      swap1\n      sstore\n      pop\n        /* \"SimpleStorage.sol\":6373:6671  {... */\n      pop\n        /* \"SimpleStorage.sol\":6236:6671  function update_record(... */\n      pop\n      pop\n      pop\n      pop\n      pop\n      jump\t// out\n        /* \"SimpleStorage.sol\":2249:2499  function _requireAdmin(address who) internal view {... */\n    tag_104:\n        /* \"SimpleStorage.sol\":2310:2324  User storage u */\n      0x00\n        /* \"SimpleStorage.sol\":2327:2332  users */\n      0x00\n        /* \"SimpleStorage.sol\":2327:2337  users[who] */\n      0x00\n        /* \"SimpleStorage.sol\":2333:2336  who */\n      dup4\n        /* \"SimpleStorage.sol\":2327:2337  users[who] */\n      0xffffffffffffffffffffffffffffffffffffffff\n      and\n      0xffffffffffffffffffffffffffffffffffffffff\n      and\n      dup2\n      mstore\n      0x20\n      add\n      swap1\n      dup2\n      mstore\n      0x20\n      add\n      0x00\n      keccak256\n        /* \"SimpleStorage.sol\":2310:2337  User storage u = users[who] */\n      swap1\n      pop\n        /* \"SimpleStorage.sol\":2353:2354  u */\n      dup1\n        /* \"SimpleStorage.sol\":2353:2361  u.exists */\n      0x05\n      add\n      0x0a\n      swap1\n      sload\n      swap1\n      0x0100\n      exp\n      swap1\n      div\n      0xff\n      and\n        /* \"SimpleStorage.sol\":2348:2384  if (!u.exists) revert UserNotFound() */\n      tag_216\n      jumpi\n        /* \"SimpleStorage.sol\":2370:2384  UserNotFound() */\n      mload(0x40)\n      0x670a68cc00000000000000000000000000000000000000000000000000000000\n      dup2\n      mstore\n      0x04\n      add\n      mload(0x40)\n      dup1\n      swap2\n      sub\n      swap1\n      revert\n        /* \"SimpleStorage.sol\":2348:2384  if (!u.exists) revert UserNotFound() */\n    tag_216:\n        /* \"SimpleStorage.sol\":2409:2419  Role.Admin */\n      0x00\n        /* \"SimpleStorage.sol\":2399:2419  u.role != Role.Admin */\n      0x02\n      dup2\n      gt\n      iszero\n      tag_217\n      jumpi\n      tag_218\n      tag_143\n      jump\t// in\n    tag_218:\n    tag_217:\n        /* \"SimpleStorage.sol\":2399:2400  u */\n      dup2\n        /* \"SimpleStorage.sol\":2399:2405  u.role */\n      0x00\n      add\n      0x14\n      swap1\n      sload\n      swap1\n      0x0100\n      exp\n      swap1\n      div\n      0xff\n      and\n        /* \"SimpleStorage.sol\":2399:2419  u.role != Role.Admin */\n      0x02\n      dup2\n      gt\n      iszero\n      tag_219\n      jumpi\n      tag_220\n      tag_143\n      jump\t// in\n    tag_220:\n    tag_219:\n      eq\n        /* \"SimpleStorage.sol\":2395:2442  if (u.role != Role.Admin) revert Unauthorized() */\n      tag_221\n      jumpi\n        /* \"SimpleStorage.sol\":2428:2442  Unauthorized() */\n      mload(0x40)\n      0x82b4290000000000000000000000000000000000000000000000000000000000\n      dup2\n      mstore\n      0x04\n      add\n      mload(0x40)\n      dup1\n      swap2\n      sub\n      swap1\n      revert\n        /* \"SimpleStorage.sol\":2395:2442  if (u.role != Role.Admin) revert Unauthorized() */\n    tag_221:\n        /* \"SimpleStorage.sol\":2458:2459  u */\n      dup1\n        /* \"SimpleStorage.sol\":2458:2468  u.isActive */\n      0x05\n      add\n      0x01\n      swap1\n      sload\n      swap1\n      0x0100\n      exp\n      swap1\n      div\n      0xff\n      and\n        /* \"SimpleStorage.sol\":2453:2491  if (!u.isActive) revert UserInactive() */\n      tag_222\n      jumpi\n        /* \"SimpleStorage.sol\":2477:2491  UserInactive() */\n      mload(0x40)\n      0x3310e69100000000000000000000000000000000000000000000000000000000\n      dup2\n      mstore\n      0x04\n      add\n      mload(0x40)\n      dup1\n      swap2\n      sub\n      swap1\n      revert\n        /* \"SimpleStorage.sol\":2453:2491  if (!u.isActive) revert UserInactive() */\n    tag_222:\n        /* \"SimpleStorage.sol\":2299:2499  {... */\n      pop\n        /* \"SimpleStorage.sol\":2249:2499  function _requireAdmin(address who) internal view {... */\n      pop\n      jump\t// out\n    tag_66:\n      mload(0x40)\n      dup1\n      0x0140\n      add\n      0x40\n      mstore\n      dup1\n      and(0xffffffff, 0x00)\n      dup2\n      mstore\n      0x20\n      add\n      and(0xffffffffffffffffffffffffffffffffffffffff, 0x00)\n      dup2\n      mstore\n      0x20\n      add\n      0x60\n      dup2\n      mstore\n      0x20\n      add\n      and(0xffffffffffffffffffffffffffffffffffffffff, 0x00)\n      dup2\n      mstore\n      0x20\n      add\n      0x60\n      dup2\n      mstore\n      0x20\n      add\n      0x60\n      dup2\n      mstore\n      0x20\n      add\n      0x60\n      dup2\n      mstore\n      0x20\n      add\n      and(0xffffffffffffffff, 0x00)\n      dup2\n      mstore\n      0x20\n      add\n      and(0xffffffffffffffff, 0x00)\n      dup2\n      mstore\n      0x20\n      add\n      iszero(iszero(0x00))\n      dup2\n      mstore\n      pop\n      swap1\n      jump\t// out\n        /* \"#utility.yul\":88:205   */\n    tag_224:\n        /* \"#utility.yul\":197:198   */\n      0x00\n        /* \"#utility.yul\":194:195   */\n      0x00\n        /* \"#utility.yul\":187:199   */\n      revert\n        /* \"#utility.yul\":211:328   */\n    tag_225:\n        /* \"#utility.yul\":320:321   */\n      0x00\n        /* \"#utility.yul\":317:318   */\n      0x00\n        /* \"#utility.yul\":310:322   */\n      revert\n        /* \"#utility.yul\":334:460   */\n    tag_226:\n        /* \"#utility.yul\":371:378   */\n      0x00\n        /* \"#utility.yul\":411:453   */\n      0xffffffffffffffffffffffffffffffffffffffff\n        /* \"#utility.yul\":404:409   */\n      dup3\n        /* \"#utility.yul\":400:454   */\n      and\n        /* \"#utility.yul\":389:454   */\n      swap1\n      pop\n        /* \"#utility.yul\":334:460   */\n      swap2\n      swap1\n      pop\n      jump\t// out\n        /* \"#utility.yul\":466:562   */\n    tag_227:\n        /* \"#utility.yul\":503:510   */\n      0x00\n        /* \"#utility.yul\":532:556   */\n      tag_295\n        /* \"#utility.yul\":550:555   */\n      dup3\n        /* \"#utility.yul\":532:556   */\n      tag_226\n      jump\t// in\n    tag_295:\n        /* \"#utility.yul\":521:556   */\n      swap1\n      pop\n        /* \"#utility.yul\":466:562   */\n      swap2\n      swap1\n      pop\n      jump\t// out\n        /* \"#utility.yul\":568:690   */\n    tag_228:\n        /* \"#utility.yul\":641:665   */\n      tag_297\n        /* \"#utility.yul\":659:664   */\n      dup2\n        /* \"#utility.yul\":641:665   */\n      tag_227\n      jump\t// in\n    tag_297:\n        /* \"#utility.yul\":634:639   */\n      dup2\n        /* \"#utility.yul\":631:666   */\n      eq\n        /* \"#utility.yul\":621:684   */\n      tag_298\n      jumpi\n        /* \"#utility.yul\":680:681   */\n      0x00\n        /* \"#utility.yul\":677:678   */\n      0x00\n        /* \"#utility.yul\":670:682   */\n      revert\n        /* \"#utility.yul\":621:684   */\n    tag_298:\n        /* \"#utility.yul\":568:690   */\n      pop\n      jump\t// out\n        /* \"#utility.yul\":696:835   */\n    tag_229:\n        /* \"#utility.yul\":742:747   */\n      0x00\n        /* \"#utility.yul\":780:786   */\n      dup2\n        /* \"#utility.yul\":767:787   */\n      calldataload\n        /* \"#utility.yul\":758:787   */\n      swap1\n      pop\n        /* \"#utility.yul\":796:829   */\n      tag_300\n        /* \"#utility.yul\":823:828   */\n      dup2\n        /* \"#utility.yul\":796:829   */\n      tag_228\n      jump\t// in\n    tag_300:\n        /* \"#utility.yul\":696:835   */\n      swap3\n      swap2\n      pop\n      pop\n      jump\t// out\n        /* \"#utility.yul\":841:1170   */\n    tag_16:\n        /* \"#utility.yul\":900:906   */\n      0x00\n        /* \"#utility.yul\":949:951   */\n      0x20\n        /* \"#utility.yul\":937:946   */\n      dup3\n        /* \"#utility.yul\":928:935   */\n      dup5\n        /* \"#utility.yul\":924:947   */\n      sub\n        /* \"#utility.yul\":920:952   */\n      slt\n        /* \"#utility.yul\":917:1036   */\n      iszero\n      tag_302\n      jumpi\n        /* \"#utility.yul\":955:1034   */\n      tag_303\n      tag_224\n      jump\t// in\n    tag_303:\n        /* \"#utility.yul\":917:1036   */\n    tag_302:\n        /* \"#utility.yul\":1075:1076   */\n      0x00\n        /* \"#utility.yul\":1100:1153   */\n      tag_304\n        /* \"#utility.yul\":1145:1152   */\n      dup5\n        /* \"#utility.yul\":1136:1142   */\n      dup3\n        /* \"#utility.yul\":1125:1134   */\n      dup6\n        /* \"#utility.yul\":1121:1143   */\n      add\n        /* \"#utility.yul\":1100:1153   */\n      tag_229\n      jump\t// in\n    tag_304:\n        /* \"#utility.yul\":1090:1153   */\n      swap2\n      pop\n        /* \"#utility.yul\":1046:1163   */\n      pop\n        /* \"#utility.yul\":841:1170   */\n      swap3\n      swap2\n      pop\n      pop\n      jump\t// out\n        /* \"#utility.yul\":1176:1319   */\n    tag_230:\n        /* \"#utility.yul\":1272:1278   */\n      0x00\n        /* \"#utility.yul\":1306:1311   */\n      dup2\n        /* \"#utility.yul\":1300:1312   */\n      mload\n        /* \"#utility.yul\":1290:1312   */\n      swap1\n      pop\n        /* \"#utility.yul\":1176:1319   */\n      swap2\n      swap1\n      pop\n      jump\t// out\n        /* \"#utility.yul\":1325:1538   */\n    tag_231:\n        /* \"#utility.yul\":1453:1464   */\n      0x00\n        /* \"#utility.yul\":1487:1493   */\n      dup3\n        /* \"#utility.yul\":1482:1485   */\n      dup3\n        /* \"#utility.yul\":1475:1494   */\n      mstore\n        /* \"#utility.yul\":1527:1531   */\n      0x20\n        /* \"#utility.yul\":1522:1525   */\n      dup3\n        /* \"#utility.yul\":1518:1532   */\n      add\n        /* \"#utility.yul\":1503:1532   */\n      swap1\n      pop\n        /* \"#utility.yul\":1325:1538   */\n      swap3\n      swap2\n      pop\n      pop\n      jump\t// out\n        /* \"#utility.yul\":1544:1705   */\n    tag_232:\n        /* \"#utility.yul\":1640:1644   */\n      0x00\n        /* \"#utility.yul\":1663:1666   */\n      dup2\n        /* \"#utility.yul\":1655:1666   */\n      swap1\n      pop\n        /* \"#utility.yul\":1693:1697   */\n      0x20\n        /* \"#utility.yul\":1688:1691   */\n      dup3\n        /* \"#utility.yul\":1684:1698   */\n      add\n        /* \"#utility.yul\":1676:1698   */\n      swap1\n      pop\n        /* \"#utility.yul\":1544:1705   */\n      swap2\n      swap1\n      pop\n      jump\t// out\n        /* \"#utility.yul\":1711:1804   */\n    tag_233:\n        /* \"#utility.yul\":1747:1754   */\n      0x00\n        /* \"#utility.yul\":1787:1797   */\n      0xffffffff\n        /* \"#utility.yul\":1780:1785   */\n      dup3\n        /* \"#utility.yul\":1776:1798   */\n      and\n        /* \"#utility.yul\":1765:1798   */\n      swap1\n      pop\n        /* \"#utility.yul\":1711:1804   */\n      swap2\n      swap1\n      pop\n      jump\t// out\n        /* \"#utility.yul\":1810:1915   */\n    tag_234:\n        /* \"#utility.yul\":1885:1908   */\n      tag_310\n        /* \"#utility.yul\":1902:1907   */\n      dup2\n        /* \"#utility.yul\":1885:1908   */\n      tag_233\n      jump\t// in\n    tag_310:\n        /* \"#utility.yul\":1880:1883   */\n      dup3\n        /* \"#utility.yul\":1873:1909   */\n      mstore\n        /* \"#utility.yul\":1810:1915   */\n      pop\n      pop\n      jump\t// out\n        /* \"#utility.yul\":1921:2029   */\n    tag_235:\n        /* \"#utility.yul\":1998:2022   */\n      tag_312\n        /* \"#utility.yul\":2016:2021   */\n      dup2\n        /* \"#utility.yul\":1998:2022   */\n      tag_227\n      jump\t// in\n    tag_312:\n        /* \"#utility.yul\":1993:1996   */\n      dup3\n        /* \"#utility.yul\":1986:2023   */\n      mstore\n        /* \"#utility.yul\":1921:2029   */\n      pop\n      pop\n      jump\t// out\n        /* \"#utility.yul\":2035:2134   */\n    tag_236:\n        /* \"#utility.yul\":2087:2093   */\n      0x00\n        /* \"#utility.yul\":2121:2126   */\n      dup2\n        /* \"#utility.yul\":2115:2127   */\n      mload\n        /* \"#utility.yul\":2105:2127   */\n      swap1\n      pop\n        /* \"#utility.yul\":2035:2134   */\n      swap2\n      swap1\n      pop\n      jump\t// out\n        /* \"#utility.yul\":2140:2299   */\n    tag_237:\n        /* \"#utility.yul\":2214:2225   */\n      0x00\n        /* \"#utility.yul\":2248:2254   */\n      dup3\n        /* \"#utility.yul\":2243:2246   */\n      dup3\n        /* \"#utility.yul\":2236:2255   */\n      mstore\n        /* \"#utility.yul\":2288:2292   */\n      0x20\n        /* \"#utility.yul\":2283:2286   */\n      dup3\n        /* \"#utility.yul\":2279:2293   */\n      add\n        /* \"#utility.yul\":2264:2293   */\n      swap1\n      pop\n        /* \"#utility.yul\":2140:2299   */\n      swap3\n      swap2\n      pop\n      pop\n      jump\t// out\n        /* \"#utility.yul\":2305:2444   */\n    tag_238:\n        /* \"#utility.yul\":2394:2400   */\n      dup3\n        /* \"#utility.yul\":2389:2392   */\n      dup2\n        /* \"#utility.yul\":2384:2387   */\n      dup4\n        /* \"#utility.yul\":2378:2401   */\n      mcopy\n        /* \"#utility.yul\":2435:2436   */\n      0x00\n        /* \"#utility.yul\":2426:2432   */\n      dup4\n        /* \"#utility.yul\":2421:2424   */\n      dup4\n        /* \"#utility.yul\":2417:2433   */\n      add\n        /* \"#utility.yul\":2410:2437   */\n      mstore\n        /* \"#utility.yul\":2305:2444   */\n      pop\n      pop\n      pop\n      jump\t// out\n        /* \"#utility.yul\":2450:2552   */\n    tag_239:\n        /* \"#utility.yul\":2491:2497   */\n      0x00\n        /* \"#utility.yul\":2542:2544   */\n      0x1f\n        /* \"#utility.yul\":2538:2545   */\n      not\n        /* \"#utility.yul\":2533:2535   */\n      0x1f\n        /* \"#utility.yul\":2526:2531   */\n      dup4\n        /* \"#utility.yul\":2522:2536   */\n      add\n        /* \"#utility.yul\":2518:2546   */\n      and\n        /* \"#utility.yul\":2508:2546   */\n      swap1\n      pop\n        /* \"#utility.yul\":2450:2552   */\n      swap2\n      swap1\n      pop\n      jump\t// out\n        /* \"#utility.yul\":2558:2915   */\n    tag_240:\n        /* \"#utility.yul\":2636:2639   */\n      0x00\n        /* \"#utility.yul\":2664:2703   */\n      tag_318\n        /* \"#utility.yul\":2697:2702   */\n      dup3\n        /* \"#utility.yul\":2664:2703   */\n      tag_236\n      jump\t// in\n    tag_318:\n        /* \"#utility.yul\":2719:2780   */\n      tag_319\n        /* \"#utility.yul\":2773:2779   */\n      dup2\n        /* \"#utility.yul\":2768:2771   */\n      dup6\n        /* \"#utility.yul\":2719:2780   */\n      tag_237\n      jump\t// in\n    tag_319:\n        /* \"#utility.yul\":2712:2780   */\n      swap4\n      pop\n        /* \"#utility.yul\":2789:2854   */\n      tag_320\n        /* \"#utility.yul\":2847:2853   */\n      dup2\n        /* \"#utility.yul\":2842:2845   */\n      dup6\n        /* \"#utility.yul\":2835:2839   */\n      0x20\n        /* \"#utility.yul\":2828:2833   */\n      dup7\n        /* \"#utility.yul\":2824:2840   */\n      add\n        /* \"#utility.yul\":2789:2854   */\n      tag_238\n      jump\t// in\n    tag_320:\n        /* \"#utility.yul\":2879:2908   */\n      tag_321\n        /* \"#utility.yul\":2901:2907   */\n      dup2\n        /* \"#utility.yul\":2879:2908   */\n      tag_239\n      jump\t// in\n    tag_321:\n        /* \"#utility.yul\":2874:2877   */\n      dup5\n        /* \"#utility.yul\":2870:2909   */\n      add\n        /* \"#utility.yul\":2863:2909   */\n      swap2\n      pop\n        /* \"#utility.yul\":2640:2915   */\n      pop\n        /* \"#utility.yul\":2558:2915   */\n      swap3\n      swap2\n      pop\n      pop\n      jump\t// out\n        /* \"#utility.yul\":2921:3022   */\n    tag_241:\n        /* \"#utility.yul\":2957:2964   */\n      0x00\n        /* \"#utility.yul\":2997:3015   */\n      0xffffffffffffffff\n        /* \"#utility.yul\":2990:2995   */\n      dup3\n        /* \"#utility.yul\":2986:3016   */\n      and\n        /* \"#utility.yul\":2975:3016   */\n      swap1\n      pop\n        /* \"#utility.yul\":2921:3022   */\n      swap2\n      swap1\n      pop\n      jump\t// out\n        /* \"#utility.yul\":3028:3133   */\n    tag_242:\n        /* \"#utility.yul\":3103:3126   */\n      tag_324\n        /* \"#utility.yul\":3120:3125   */\n      dup2\n        /* \"#utility.yul\":3103:3126   */\n      tag_241\n      jump\t// in\n    tag_324:\n        /* \"#utility.yul\":3098:3101   */\n      dup3\n        /* \"#utility.yul\":3091:3127   */\n      mstore\n        /* \"#utility.yul\":3028:3133   */\n      pop\n      pop\n      jump\t// out\n        /* \"#utility.yul\":3139:3229   */\n    tag_243:\n        /* \"#utility.yul\":3173:3180   */\n      0x00\n        /* \"#utility.yul\":3216:3221   */\n      dup2\n        /* \"#utility.yul\":3209:3222   */\n      iszero\n        /* \"#utility.yul\":3202:3223   */\n      iszero\n        /* \"#utility.yul\":3191:3223   */\n      swap1\n      pop\n        /* \"#utility.yul\":3139:3229   */\n      swap2\n      swap1\n      pop\n      jump\t// out\n        /* \"#utility.yul\":3235:3334   */\n    tag_244:\n        /* \"#utility.yul\":3306:3327   */\n      tag_327\n        /* \"#utility.yul\":3321:3326   */\n      dup2\n        /* \"#utility.yul\":3306:3327   */\n      tag_243\n      jump\t// in\n    tag_327:\n        /* \"#utility.yul\":3301:3304   */\n      dup3\n        /* \"#utility.yul\":3294:3328   */\n      mstore\n        /* \"#utility.yul\":3235:3334   */\n      pop\n      pop\n      jump\t// out\n        /* \"#utility.yul\":3438:5697   */\n    tag_245:\n        /* \"#utility.yul\":3555:3558   */\n      0x00\n        /* \"#utility.yul\":3591:3597   */\n      0x0140\n        /* \"#utility.yul\":3586:3589   */\n      dup4\n        /* \"#utility.yul\":3582:3598   */\n      add\n        /* \"#utility.yul\":3678:3682   */\n      0x00\n        /* \"#utility.yul\":3671:3676   */\n      dup4\n        /* \"#utility.yul\":3667:3683   */\n      add\n        /* \"#utility.yul\":3661:3684   */\n      mload\n        /* \"#utility.yul\":3697:3758   */\n      tag_329\n        /* \"#utility.yul\":3752:3756   */\n      0x00\n        /* \"#utility.yul\":3747:3750   */\n      dup7\n        /* \"#utility.yul\":3743:3757   */\n      add\n        /* \"#utility.yul\":3729:3741   */\n      dup3\n        /* \"#utility.yul\":3697:3758   */\n      tag_234\n      jump\t// in\n    tag_329:\n        /* \"#utility.yul\":3608:3768   */\n      pop\n        /* \"#utility.yul\":3860:3864   */\n      0x20\n        /* \"#utility.yul\":3853:3858   */\n      dup4\n        /* \"#utility.yul\":3849:3865   */\n      add\n        /* \"#utility.yul\":3843:3866   */\n      mload\n        /* \"#utility.yul\":3879:3942   */\n      tag_330\n        /* \"#utility.yul\":3936:3940   */\n      0x20\n        /* \"#utility.yul\":3931:3934   */\n      dup7\n        /* \"#utility.yul\":3927:3941   */\n      add\n        /* \"#utility.yul\":3913:3925   */\n      dup3\n        /* \"#utility.yul\":3879:3942   */\n      tag_235\n      jump\t// in\n    tag_330:\n        /* \"#utility.yul\":3778:3952   */\n      pop\n        /* \"#utility.yul\":4041:4045   */\n      0x40\n        /* \"#utility.yul\":4034:4039   */\n      dup4\n        /* \"#utility.yul\":4030:4046   */\n      add\n        /* \"#utility.yul\":4024:4047   */\n      mload\n        /* \"#utility.yul\":4094:4097   */\n      dup5\n        /* \"#utility.yul\":4088:4092   */\n      dup3\n        /* \"#utility.yul\":4084:4098   */\n      sub\n        /* \"#utility.yul\":4077:4081   */\n      0x40\n        /* \"#utility.yul\":4072:4075   */\n      dup7\n        /* \"#utility.yul\":4068:4082   */\n      add\n        /* \"#utility.yul\":4061:4099   */\n      mstore\n        /* \"#utility.yul\":4120:4193   */\n      tag_331\n        /* \"#utility.yul\":4188:4192   */\n      dup3\n        /* \"#utility.yul\":4174:4186   */\n      dup3\n        /* \"#utility.yul\":4120:4193   */\n      tag_240\n      jump\t// in\n    tag_331:\n        /* \"#utility.yul\":4112:4193   */\n      swap2\n      pop\n        /* \"#utility.yul\":3962:4204   */\n      pop\n        /* \"#utility.yul\":4295:4299   */\n      0x60\n        /* \"#utility.yul\":4288:4293   */\n      dup4\n        /* \"#utility.yul\":4284:4300   */\n      add\n        /* \"#utility.yul\":4278:4301   */\n      mload\n        /* \"#utility.yul\":4314:4377   */\n      tag_332\n        /* \"#utility.yul\":4371:4375   */\n      0x60\n        /* \"#utility.yul\":4366:4369   */\n      dup7\n        /* \"#utility.yul\":4362:4376   */\n      add\n        /* \"#utility.yul\":4348:4360   */\n      dup3\n        /* \"#utility.yul\":4314:4377   */\n      tag_235\n      jump\t// in\n    tag_332:\n        /* \"#utility.yul\":4214:4387   */\n      pop\n        /* \"#utility.yul\":4475:4479   */\n      0x80\n        /* \"#utility.yul\":4468:4473   */\n      dup4\n        /* \"#utility.yul\":4464:4480   */\n      add\n        /* \"#utility.yul\":4458:4481   */\n      mload\n        /* \"#utility.yul\":4528:4531   */\n      dup5\n        /* \"#utility.yul\":4522:4526   */\n      dup3\n        /* \"#utility.yul\":4518:4532   */\n      sub\n        /* \"#utility.yul\":4511:4515   */\n      0x80\n        /* \"#utility.yul\":4506:4509   */\n      dup7\n        /* \"#utility.yul\":4502:4516   */\n      add\n        /* \"#utility.yul\":4495:4533   */\n      mstore\n        /* \"#utility.yul\":4554:4627   */\n      tag_333\n        /* \"#utility.yul\":4622:4626   */\n      dup3\n        /* \"#utility.yul\":4608:4620   */\n      dup3\n        /* \"#utility.yul\":4554:4627   */\n      tag_240\n      jump\t// in\n    tag_333:\n        /* \"#utility.yul\":4546:4627   */\n      swap2\n      pop\n        /* \"#utility.yul\":4397:4638   */\n      pop\n        /* \"#utility.yul\":4725:4729   */\n      0xa0\n        /* \"#utility.yul\":4718:4723   */\n      dup4\n        /* \"#utility.yul\":4714:4730   */\n      add\n        /* \"#utility.yul\":4708:4731   */\n      mload\n        /* \"#utility.yul\":4778:4781   */\n      dup5\n        /* \"#utility.yul\":4772:4776   */\n      dup3\n        /* \"#utility.yul\":4768:4782   */\n      sub\n        /* \"#utility.yul\":4761:4765   */\n      0xa0\n        /* \"#utility.yul\":4756:4759   */\n      dup7\n        /* \"#utility.yul\":4752:4766   */\n      add\n        /* \"#utility.yul\":4745:4783   */\n      mstore\n        /* \"#utility.yul\":4804:4877   */\n      tag_334\n        /* \"#utility.yul\":4872:4876   */\n      dup3\n        /* \"#utility.yul\":4858:4870   */\n      dup3\n        /* \"#utility.yul\":4804:4877   */\n      tag_240\n      jump\t// in\n    tag_334:\n        /* \"#utility.yul\":4796:4877   */\n      swap2\n      pop\n        /* \"#utility.yul\":4648:4888   */\n      pop\n        /* \"#utility.yul\":4975:4979   */\n      0xc0\n        /* \"#utility.yul\":4968:4973   */\n      dup4\n        /* \"#utility.yul\":4964:4980   */\n      add\n        /* \"#utility.yul\":4958:4981   */\n      mload\n        /* \"#utility.yul\":5028:5031   */\n      dup5\n        /* \"#utility.yul\":5022:5026   */\n      dup3\n        /* \"#utility.yul\":5018:5032   */\n      sub\n        /* \"#utility.yul\":5011:5015   */\n      0xc0\n        /* \"#utility.yul\":5006:5009   */\n      dup7\n        /* \"#utility.yul\":5002:5016   */\n      add\n        /* \"#utility.yul\":4995:5033   */\n      mstore\n        /* \"#utility.yul\":5054:5127   */\n      tag_335\n        /* \"#utility.yul\":5122:5126   */\n      dup3\n        /* \"#utility.yul\":5108:5120   */\n      dup3\n        /* \"#utility.yul\":5054:5127   */\n      tag_240\n      jump\t// in\n    tag_335:\n        /* \"#utility.yul\":5046:5127   */\n      swap2\n      pop\n        /* \"#utility.yul\":4898:5138   */\n      pop\n        /* \"#utility.yul\":5225:5229   */\n      0xe0\n        /* \"#utility.yul\":5218:5223   */\n      dup4\n        /* \"#utility.yul\":5214:5230   */\n      add\n        /* \"#utility.yul\":5208:5231   */\n      mload\n        /* \"#utility.yul\":5244:5305   */\n      tag_336\n        /* \"#utility.yul\":5299:5303   */\n      0xe0\n        /* \"#utility.yul\":5294:5297   */\n      dup7\n        /* \"#utility.yul\":5290:5304   */\n      add\n        /* \"#utility.yul\":5276:5288   */\n      dup3\n        /* \"#utility.yul\":5244:5305   */\n      tag_242\n      jump\t// in\n    tag_336:\n        /* \"#utility.yul\":5148:5315   */\n      pop\n        /* \"#utility.yul\":5402:5408   */\n      0x0100\n        /* \"#utility.yul\":5395:5400   */\n      dup4\n        /* \"#utility.yul\":5391:5409   */\n      add\n        /* \"#utility.yul\":5385:5410   */\n      mload\n        /* \"#utility.yul\":5423:5486   */\n      tag_337\n        /* \"#utility.yul\":5478:5484   */\n      0x0100\n        /* \"#utility.yul\":5473:5476   */\n      dup7\n        /* \"#utility.yul\":5469:5485   */\n      add\n        /* \"#utility.yul\":5455:5467   */\n      dup3\n        /* \"#utility.yul\":5423:5486   */\n      tag_242\n      jump\t// in\n    tag_337:\n        /* \"#utility.yul\":5325:5496   */\n      pop\n        /* \"#utility.yul\":5580:5586   */\n      0x0120\n        /* \"#utility.yul\":5573:5578   */\n      dup4\n        /* \"#utility.yul\":5569:5587   */\n      add\n        /* \"#utility.yul\":5563:5588   */\n      mload\n        /* \"#utility.yul\":5601:5660   */\n      tag_338\n        /* \"#utility.yul\":5652:5658   */\n      0x0120\n        /* \"#utility.yul\":5647:5650   */\n      dup7\n        /* \"#utility.yul\":5643:5659   */\n      add\n        /* \"#utility.yul\":5629:5641   */\n      dup3\n        /* \"#utility.yul\":5601:5660   */\n      tag_244\n      jump\t// in\n    tag_338:\n        /* \"#utility.yul\":5506:5670   */\n      pop\n        /* \"#utility.yul\":5687:5691   */\n      dup1\n        /* \"#utility.yul\":5680:5691   */\n      swap2\n      pop\n        /* \"#utility.yul\":3560:5697   */\n      pop\n        /* \"#utility.yul\":3438:5697   */\n      swap3\n      swap2\n      pop\n      pop\n      jump\t// out\n        /* \"#utility.yul\":5703:5975   */\n    tag_246:\n        /* \"#utility.yul\":5830:5840   */\n      0x00\n        /* \"#utility.yul\":5865:5969   */\n      tag_340\n        /* \"#utility.yul\":5965:5968   */\n      dup4\n        /* \"#utility.yul\":5957:5963   */\n      dup4\n        /* \"#utility.yul\":5865:5969   */\n      tag_245\n      jump\t// in\n    tag_340:\n        /* \"#utility.yul\":5851:5969   */\n      swap1\n      pop\n        /* \"#utility.yul\":5703:5975   */\n      swap3\n      swap2\n      pop\n      pop\n      jump\t// out\n        /* \"#utility.yul\":5981:6123   */\n    tag_247:\n        /* \"#utility.yul\":6080:6084   */\n      0x00\n        /* \"#utility.yul\":6112:6116   */\n      0x20\n        /* \"#utility.yul\":6107:6110   */\n      dup3\n        /* \"#utility.yul\":6103:6117   */\n      add\n        /* \"#utility.yul\":6095:6117   */\n      swap1\n      pop\n        /* \"#utility.yul\":5981:6123   */\n      swap2\n      swap1\n      pop\n      jump\t// out\n        /* \"#utility.yul\":6231:7374   */\n    tag_248:\n        /* \"#utility.yul\":6408:6411   */\n      0x00\n        /* \"#utility.yul\":6437:6520   */\n      tag_343\n        /* \"#utility.yul\":6514:6519   */\n      dup3\n        /* \"#utility.yul\":6437:6520   */\n      tag_230\n      jump\t// in\n    tag_343:\n        /* \"#utility.yul\":6536:6651   */\n      tag_344\n        /* \"#utility.yul\":6644:6650   */\n      dup2\n        /* \"#utility.yul\":6639:6642   */\n      dup6\n        /* \"#utility.yul\":6536:6651   */\n      tag_231\n      jump\t// in\n    tag_344:\n        /* \"#utility.yul\":6529:6651   */\n      swap4\n      pop\n        /* \"#utility.yul\":6677:6680   */\n      dup4\n        /* \"#utility.yul\":6722:6726   */\n      0x20\n        /* \"#utility.yul\":6714:6720   */\n      dup3\n        /* \"#utility.yul\":6710:6727   */\n      mul\n        /* \"#utility.yul\":6705:6708   */\n      dup6\n        /* \"#utility.yul\":6701:6728   */\n      add\n        /* \"#utility.yul\":6752:6837   */\n      tag_345\n        /* \"#utility.yul\":6831:6836   */\n      dup6\n        /* \"#utility.yul\":6752:6837   */\n      tag_232\n      jump\t// in\n    tag_345:\n        /* \"#utility.yul\":6860:6867   */\n      dup1\n        /* \"#utility.yul\":6891:6892   */\n      0x00\n        /* \"#utility.yul\":6876:7329   */\n    tag_346:\n        /* \"#utility.yul\":6901:6907   */\n      dup6\n        /* \"#utility.yul\":6898:6899   */\n      dup2\n        /* \"#utility.yul\":6895:6908   */\n      lt\n        /* \"#utility.yul\":6876:7329   */\n      iszero\n      tag_348\n      jumpi\n        /* \"#utility.yul\":6972:6981   */\n      dup5\n        /* \"#utility.yul\":6966:6970   */\n      dup5\n        /* \"#utility.yul\":6962:6982   */\n      sub\n        /* \"#utility.yul\":6957:6960   */\n      dup10\n        /* \"#utility.yul\":6950:6983   */\n      mstore\n        /* \"#utility.yul\":7023:7029   */\n      dup2\n        /* \"#utility.yul\":7017:7030   */\n      mload\n        /* \"#utility.yul\":7051:7173   */\n      tag_349\n        /* \"#utility.yul\":7168:7172   */\n      dup6\n        /* \"#utility.yul\":7153:7166   */\n      dup3\n        /* \"#utility.yul\":7051:7173   */\n      tag_246\n      jump\t// in\n    tag_349:\n        /* \"#utility.yul\":7043:7173   */\n      swap5\n      pop\n        /* \"#utility.yul\":7196:7285   */\n      tag_350\n        /* \"#utility.yul\":7278:7284   */\n      dup4\n        /* \"#utility.yul\":7196:7285   */\n      tag_247\n      jump\t// in\n    tag_350:\n        /* \"#utility.yul\":7186:7285   */\n      swap3\n      pop\n        /* \"#utility.yul\":7314:7318   */\n      0x20\n        /* \"#utility.yul\":7309:7312   */\n      dup11\n        /* \"#utility.yul\":7305:7319   */\n      add\n        /* \"#utility.yul\":7298:7319   */\n      swap10\n      pop\n        /* \"#utility.yul\":6936:7329   */\n      pop\n        /* \"#utility.yul\":6923:6924   */\n      0x01\n        /* \"#utility.yul\":6920:6921   */\n      dup2\n        /* \"#utility.yul\":6916:6925   */\n      add\n        /* \"#utility.yul\":6911:6925   */\n      swap1\n      pop\n        /* \"#utility.yul\":6876:7329   */\n      jump(tag_346)\n    tag_348:\n        /* \"#utility.yul\":6880:6894   */\n      pop\n        /* \"#utility.yul\":7345:7349   */\n      dup3\n        /* \"#utility.yul\":7338:7349   */\n      swap8\n      pop\n        /* \"#utility.yul\":7365:7368   */\n      dup8\n        /* \"#utility.yul\":7358:7368   */\n      swap6\n      pop\n        /* \"#utility.yul\":6413:7374   */\n      pop\n      pop\n      pop\n      pop\n      pop\n        /* \"#utility.yul\":6231:7374   */\n      swap3\n      swap2\n      pop\n      pop\n      jump\t// out\n        /* \"#utility.yul\":7380:7869   */\n    tag_19:\n        /* \"#utility.yul\":7581:7585   */\n      0x00\n        /* \"#utility.yul\":7619:7621   */\n      0x20\n        /* \"#utility.yul\":7608:7617   */\n      dup3\n        /* \"#utility.yul\":7604:7622   */\n      add\n        /* \"#utility.yul\":7596:7622   */\n      swap1\n      pop\n        /* \"#utility.yul\":7668:7677   */\n      dup2\n        /* \"#utility.yul\":7662:7666   */\n      dup2\n        /* \"#utility.yul\":7658:7678   */\n      sub\n        /* \"#utility.yul\":7654:7655   */\n      0x00\n        /* \"#utility.yul\":7643:7652   */\n      dup4\n        /* \"#utility.yul\":7639:7656   */\n      add\n        /* \"#utility.yul\":7632:7679   */\n      mstore\n        /* \"#utility.yul\":7696:7862   */\n      tag_352\n        /* \"#utility.yul\":7857:7861   */\n      dup2\n        /* \"#utility.yul\":7848:7854   */\n      dup5\n        /* \"#utility.yul\":7696:7862   */\n      tag_248\n      jump\t// in\n    tag_352:\n        /* \"#utility.yul\":7688:7862   */\n      swap1\n      pop\n        /* \"#utility.yul\":7380:7869   */\n      swap3\n      swap2\n      pop\n      pop\n      jump\t// out\n        /* \"#utility.yul\":7875:7995   */\n    tag_249:\n        /* \"#utility.yul\":7947:7970   */\n      tag_354\n        /* \"#utility.yul\":7964:7969   */\n      dup2\n        /* \"#utility.yul\":7947:7970   */\n      tag_233\n      jump\t// in\n    tag_354:\n        /* \"#utility.yul\":7940:7945   */\n      dup2\n        /* \"#utility.yul\":7937:7971   */\n      eq\n        /* \"#utility.yul\":7927:7989   */\n      tag_355\n      jumpi\n        /* \"#utility.yul\":7985:7986   */\n      0x00\n        /* \"#utility.yul\":7982:7983   */\n      0x00\n        /* \"#utility.yul\":7975:7987   */\n      revert\n        /* \"#utility.yul\":7927:7989   */\n    tag_355:\n        /* \"#utility.yul\":7875:7995   */\n      pop\n      jump\t// out\n        /* \"#utility.yul\":8001:8138   */\n    tag_250:\n        /* \"#utility.yul\":8046:8051   */\n      0x00\n        /* \"#utility.yul\":8084:8090   */\n      dup2\n        /* \"#utility.yul\":8071:8091   */\n      calldataload\n        /* \"#utility.yul\":8062:8091   */\n      swap1\n      pop\n        /* \"#utility.yul\":8100:8132   */\n      tag_357\n        /* \"#utility.yul\":8126:8131   */\n      dup2\n        /* \"#utility.yul\":8100:8132   */\n      tag_249\n      jump\t// in\n    tag_357:\n        /* \"#utility.yul\":8001:8138   */\n      swap3\n      swap2\n      pop\n      pop\n      jump\t// out\n        /* \"#utility.yul\":8144:8471   */\n    tag_22:\n        /* \"#utility.yul\":8202:8208   */\n      0x00\n        /* \"#utility.yul\":8251:8253   */\n      0x20\n        /* \"#utility.yul\":8239:8248   */\n      dup3\n        /* \"#utility.yul\":8230:8237   */\n      dup5\n        /* \"#utility.yul\":8226:8249   */\n      sub\n        /* \"#utility.yul\":8222:8254   */\n      slt\n        /* \"#utility.yul\":8219:8338   */\n      iszero\n      tag_359\n      jumpi\n        /* \"#utility.yul\":8257:8336   */\n      tag_360\n      tag_224\n      jump\t// in\n    tag_360:\n        /* \"#utility.yul\":8219:8338   */\n    tag_359:\n        /* \"#utility.yul\":8377:8378   */\n      0x00\n        /* \"#utility.yul\":8402:8454   */\n      tag_361\n        /* \"#utility.yul\":8446:8453   */\n      dup5\n        /* \"#utility.yul\":8437:8443   */\n      dup3\n        /* \"#utility.yul\":8426:8435   */\n      dup6\n        /* \"#utility.yul\":8422:8444   */\n      add\n        /* \"#utility.yul\":8402:8454   */\n      tag_250\n      jump\t// in\n    tag_361:\n        /* \"#utility.yul\":8392:8454   */\n      swap2\n      pop\n        /* \"#utility.yul\":8348:8464   */\n      pop\n        /* \"#utility.yul\":8144:8471   */\n      swap3\n      swap2\n      pop\n      pop\n      jump\t// out\n        /* \"#utility.yul\":8575:10844   */\n    tag_251:\n        /* \"#utility.yul\":8702:8705   */\n      0x00\n        /* \"#utility.yul\":8738:8744   */\n      0x0140\n        /* \"#utility.yul\":8733:8736   */\n      dup4\n        /* \"#utility.yul\":8729:8745   */\n      add\n        /* \"#utility.yul\":8825:8829   */\n      0x00\n        /* \"#utility.yul\":8818:8823   */\n      dup4\n        /* \"#utility.yul\":8814:8830   */\n      add\n        /* \"#utility.yul\":8808:8831   */\n      mload\n        /* \"#utility.yul\":8844:8905   */\n      tag_363\n        /* \"#utility.yul\":8899:8903   */\n      0x00\n        /* \"#utility.yul\":8894:8897   */\n      dup7\n        /* \"#utility.yul\":8890:8904   */\n      add\n        /* \"#utility.yul\":8876:8888   */\n      dup3\n        /* \"#utility.yul\":8844:8905   */\n      tag_234\n      jump\t// in\n    tag_363:\n        /* \"#utility.yul\":8755:8915   */\n      pop\n        /* \"#utility.yul\":9007:9011   */\n      0x20\n        /* \"#utility.yul\":9000:9005   */\n      dup4\n        /* \"#utility.yul\":8996:9012   */\n      add\n        /* \"#utility.yul\":8990:9013   */\n      mload\n        /* \"#utility.yul\":9026:9089   */\n      tag_364\n        /* \"#utility.yul\":9083:9087   */\n      0x20\n        /* \"#utility.yul\":9078:9081   */\n      dup7\n        /* \"#utility.yul\":9074:9088   */\n      add\n        /* \"#utility.yul\":9060:9072   */\n      dup3\n        /* \"#utility.yul\":9026:9089   */\n      tag_235\n      jump\t// in\n    tag_364:\n        /* \"#utility.yul\":8925:9099   */\n      pop\n        /* \"#utility.yul\":9188:9192   */\n      0x40\n        /* \"#utility.yul\":9181:9186   */\n      dup4\n        /* \"#utility.yul\":9177:9193   */\n      add\n        /* \"#utility.yul\":9171:9194   */\n      mload\n        /* \"#utility.yul\":9241:9244   */\n      dup5\n        /* \"#utility.yul\":9235:9239   */\n      dup3\n        /* \"#utility.yul\":9231:9245   */\n      sub\n        /* \"#utility.yul\":9224:9228   */\n      0x40\n        /* \"#utility.yul\":9219:9222   */\n      dup7\n        /* \"#utility.yul\":9215:9229   */\n      add\n        /* \"#utility.yul\":9208:9246   */\n      mstore\n        /* \"#utility.yul\":9267:9340   */\n      tag_365\n        /* \"#utility.yul\":9335:9339   */\n      dup3\n        /* \"#utility.yul\":9321:9333   */\n      dup3\n        /* \"#utility.yul\":9267:9340   */\n      tag_240\n      jump\t// in\n    tag_365:\n        /* \"#utility.yul\":9259:9340   */\n      swap2\n      pop\n        /* \"#utility.yul\":9109:9351   */\n      pop\n        /* \"#utility.yul\":9442:9446   */\n      0x60\n        /* \"#utility.yul\":9435:9440   */\n      dup4\n        /* \"#utility.yul\":9431:9447   */\n      add\n        /* \"#utility.yul\":9425:9448   */\n      mload\n        /* \"#utility.yul\":9461:9524   */\n      tag_366\n        /* \"#utility.yul\":9518:9522   */\n      0x60\n        /* \"#utility.yul\":9513:9516   */\n      dup7\n        /* \"#utility.yul\":9509:9523   */\n      add\n        /* \"#utility.yul\":9495:9507   */\n      dup3\n        /* \"#utility.yul\":9461:9524   */\n      tag_235\n      jump\t// in\n    tag_366:\n        /* \"#utility.yul\":9361:9534   */\n      pop\n        /* \"#utility.yul\":9622:9626   */\n      0x80\n        /* \"#utility.yul\":9615:9620   */\n      dup4\n        /* \"#utility.yul\":9611:9627   */\n      add\n        /* \"#utility.yul\":9605:9628   */\n      mload\n        /* \"#utility.yul\":9675:9678   */\n      dup5\n        /* \"#utility.yul\":9669:9673   */\n      dup3\n        /* \"#utility.yul\":9665:9679   */\n      sub\n        /* \"#utility.yul\":9658:9662   */\n      0x80\n        /* \"#utility.yul\":9653:9656   */\n      dup7\n        /* \"#utility.yul\":9649:9663   */\n      add\n        /* \"#utility.yul\":9642:9680   */\n      mstore\n        /* \"#utility.yul\":9701:9774   */\n      tag_367\n        /* \"#utility.yul\":9769:9773   */\n      dup3\n        /* \"#utility.yul\":9755:9767   */\n      dup3\n        /* \"#utility.yul\":9701:9774   */\n      tag_240\n      jump\t// in\n    tag_367:\n        /* \"#utility.yul\":9693:9774   */\n      swap2\n      pop\n        /* \"#utility.yul\":9544:9785   */\n      pop\n        /* \"#utility.yul\":9872:9876   */\n      0xa0\n        /* \"#utility.yul\":9865:9870   */\n      dup4\n        /* \"#utility.yul\":9861:9877   */\n      add\n        /* \"#utility.yul\":9855:9878   */\n      mload\n        /* \"#utility.yul\":9925:9928   */\n      dup5\n        /* \"#utility.yul\":9919:9923   */\n      dup3\n        /* \"#utility.yul\":9915:9929   */\n      sub\n        /* \"#utility.yul\":9908:9912   */\n      0xa0\n        /* \"#utility.yul\":9903:9906   */\n      dup7\n        /* \"#utility.yul\":9899:9913   */\n      add\n        /* \"#utility.yul\":9892:9930   */\n      mstore\n        /* \"#utility.yul\":9951:10024   */\n      tag_368\n        /* \"#utility.yul\":10019:10023   */\n      dup3\n        /* \"#utility.yul\":10005:10017   */\n      dup3\n        /* \"#utility.yul\":9951:10024   */\n      tag_240\n      jump\t// in\n    tag_368:\n        /* \"#utility.yul\":9943:10024   */\n      swap2\n      pop\n        /* \"#utility.yul\":9795:10035   */\n      pop\n        /* \"#utility.yul\":10122:10126   */\n      0xc0\n        /* \"#utility.yul\":10115:10120   */\n      dup4\n        /* \"#utility.yul\":10111:10127   */\n      add\n        /* \"#utility.yul\":10105:10128   */\n      mload\n        /* \"#utility.yul\":10175:10178   */\n      dup5\n        /* \"#utility.yul\":10169:10173   */\n      dup3\n        /* \"#utility.yul\":10165:10179   */\n      sub\n        /* \"#utility.yul\":10158:10162   */\n      0xc0\n        /* \"#utility.yul\":10153:10156   */\n      dup7\n        /* \"#utility.yul\":10149:10163   */\n      add\n        /* \"#utility.yul\":10142:10180   */\n      mstore\n        /* \"#utility.yul\":10201:10274   */\n      tag_369\n        /* \"#utility.yul\":10269:10273   */\n      dup3\n        /* \"#utility.yul\":10255:10267   */\n      dup3\n        /* \"#utility.yul\":10201:10274   */\n      tag_240\n      jump\t// in\n    tag_369:\n        /* \"#utility.yul\":10193:10274   */\n      swap2\n      pop\n        /* \"#utility.yul\":10045:10285   */\n      pop\n        /* \"#utility.yul\":10372:10376   */\n      0xe0\n        /* \"#utility.yul\":10365:10370   */\n      dup4\n        /* \"#utility.yul\":10361:10377   */\n      add\n        /* \"#utility.yul\":10355:10378   */\n      mload\n        /* \"#utility.yul\":10391:10452   */\n      tag_370\n        /* \"#utility.yul\":10446:10450   */\n      0xe0\n        /* \"#utility.yul\":10441:10444   */\n      dup7\n        /* \"#utility.yul\":10437:10451   */\n      add\n        /* \"#utility.yul\":10423:10435   */\n      dup3\n        /* \"#utility.yul\":10391:10452   */\n      tag_242\n      jump\t// in\n    tag_370:\n        /* \"#utility.yul\":10295:10462   */\n      pop\n        /* \"#utility.yul\":10549:10555   */\n      0x0100\n        /* \"#utility.yul\":10542:10547   */\n      dup4\n        /* \"#utility.yul\":10538:10556   */\n      add\n        /* \"#utility.yul\":10532:10557   */\n      mload\n        /* \"#utility.yul\":10570:10633   */\n      tag_371\n        /* \"#utility.yul\":10625:10631   */\n      0x0100\n        /* \"#utility.yul\":10620:10623   */\n      dup7\n        /* \"#utility.yul\":10616:10632   */\n      add\n        /* \"#utility.yul\":10602:10614   */\n      dup3\n        /* \"#utility.yul\":10570:10633   */\n      tag_242\n      jump\t// in\n    tag_371:\n        /* \"#utility.yul\":10472:10643   */\n      pop\n        /* \"#utility.yul\":10727:10733   */\n      0x0120\n        /* \"#utility.yul\":10720:10725   */\n      dup4\n        /* \"#utility.yul\":10716:10734   */\n      add\n        /* \"#utility.yul\":10710:10735   */\n      mload\n        /* \"#utility.yul\":10748:10807   */\n      tag_372\n        /* \"#utility.yul\":10799:10805   */\n      0x0120\n        /* \"#utility.yul\":10794:10797   */\n      dup7\n        /* \"#utility.yul\":10790:10806   */\n      add\n        /* \"#utility.yul\":10776:10788   */\n      dup3\n        /* \"#utility.yul\":10748:10807   */\n      tag_244\n      jump\t// in\n    tag_372:\n        /* \"#utility.yul\":10653:10817   */\n      pop\n        /* \"#utility.yul\":10834:10838   */\n      dup1\n        /* \"#utility.yul\":10827:10838   */\n      swap2\n      pop\n        /* \"#utility.yul\":8707:10844   */\n      pop\n        /* \"#utility.yul\":8575:10844   */\n      swap3\n      swap2\n      pop\n      pop\n      jump\t// out\n        /* \"#utility.yul\":10850:11239   */\n    tag_25:\n        /* \"#utility.yul\":11001:11005   */\n      0x00\n        /* \"#utility.yul\":11039:11041   */\n      0x20\n        /* \"#utility.yul\":11028:11037   */\n      dup3\n        /* \"#utility.yul\":11024:11042   */\n      add\n        /* \"#utility.yul\":11016:11042   */\n      swap1\n      pop\n        /* \"#utility.yul\":11088:11097   */\n      dup2\n        /* \"#utility.yul\":11082:11086   */\n      dup2\n        /* \"#utility.yul\":11078:11098   */\n      sub\n        /* \"#utility.yul\":11074:11075   */\n      0x00\n        /* \"#utility.yul\":11063:11072   */\n      dup4\n        /* \"#utility.yul\":11059:11076   */\n      add\n        /* \"#utility.yul\":11052:11099   */\n      mstore\n        /* \"#utility.yul\":11116:11232   */\n      tag_374\n        /* \"#utility.yul\":11227:11231   */\n      dup2\n        /* \"#utility.yul\":11218:11224   */\n      dup5\n        /* \"#utility.yul\":11116:11232   */\n      tag_251\n      jump\t// in\n    tag_374:\n        /* \"#utility.yul\":11108:11232   */\n      swap1\n      pop\n        /* \"#utility.yul\":10850:11239   */\n      swap3\n      swap2\n      pop\n      pop\n      jump\t// out\n        /* \"#utility.yul\":11245:11360   */\n    tag_252:\n        /* \"#utility.yul\":11330:11353   */\n      tag_376\n        /* \"#utility.yul\":11347:11352   */\n      dup2\n        /* \"#utility.yul\":11330:11353   */\n      tag_233\n      jump\t// in\n    tag_376:\n        /* \"#utility.yul\":11325:11328   */\n      dup3\n        /* \"#utility.yul\":11318:11354   */\n      mstore\n        /* \"#utility.yul\":11245:11360   */\n      pop\n      pop\n      jump\t// out\n        /* \"#utility.yul\":11366:11584   */\n    tag_29:\n        /* \"#utility.yul\":11457:11461   */\n      0x00\n        /* \"#utility.yul\":11495:11497   */\n      0x20\n        /* \"#utility.yul\":11484:11493   */\n      dup3\n        /* \"#utility.yul\":11480:11498   */\n      add\n        /* \"#utility.yul\":11472:11498   */\n      swap1\n      pop\n        /* \"#utility.yul\":11508:11577   */\n      tag_378\n        /* \"#utility.yul\":11574:11575   */\n      0x00\n        /* \"#utility.yul\":11563:11572   */\n      dup4\n        /* \"#utility.yul\":11559:11576   */\n      add\n        /* \"#utility.yul\":11550:11556   */\n      dup5\n        /* \"#utility.yul\":11508:11577   */\n      tag_252\n      jump\t// in\n    tag_378:\n        /* \"#utility.yul\":11366:11584   */\n      swap3\n      swap2\n      pop\n      pop\n      jump\t// out\n        /* \"#utility.yul\":11590:11708   */\n    tag_253:\n        /* \"#utility.yul\":11677:11701   */\n      tag_380\n        /* \"#utility.yul\":11695:11700   */\n      dup2\n        /* \"#utility.yul\":11677:11701   */\n      tag_227\n      jump\t// in\n    tag_380:\n        /* \"#utility.yul\":11672:11675   */\n      dup3\n        /* \"#utility.yul\":11665:11702   */\n      mstore\n        /* \"#utility.yul\":11590:11708   */\n      pop\n      pop\n      jump\t// out\n        /* \"#utility.yul\":11714:11894   */\n    tag_143:\n        /* \"#utility.yul\":11762:11839   */\n      0x4e487b7100000000000000000000000000000000000000000000000000000000\n        /* \"#utility.yul\":11759:11760   */\n      0x00\n        /* \"#utility.yul\":11752:11840   */\n      mstore\n        /* \"#utility.yul\":11859:11863   */\n      0x21\n        /* \"#utility.yul\":11856:11857   */\n      0x04\n        /* \"#utility.yul\":11849:11864   */\n      mstore\n        /* \"#utility.yul\":11883:11887   */\n      0x24\n        /* \"#utility.yul\":11880:11881   */\n      0x00\n        /* \"#utility.yul\":11873:11888   */\n      revert\n        /* \"#utility.yul\":11900:12011   */\n    tag_254:\n        /* \"#utility.yul\":11979:11980   */\n      0x03\n        /* \"#utility.yul\":11972:11977   */\n      dup2\n        /* \"#utility.yul\":11969:11981   */\n      lt\n        /* \"#utility.yul\":11959:12005   */\n      tag_383\n      jumpi\n        /* \"#utility.yul\":11985:12003   */\n      tag_384\n      tag_143\n      jump\t// in\n    tag_384:\n        /* \"#utility.yul\":11959:12005   */\n    tag_383:\n        /* \"#utility.yul\":11900:12011   */\n      pop\n      jump\t// out\n        /* \"#utility.yul\":12017:12140   */\n    tag_255:\n        /* \"#utility.yul\":12060:12067   */\n      0x00\n        /* \"#utility.yul\":12089:12094   */\n      dup2\n        /* \"#utility.yul\":12078:12094   */\n      swap1\n      pop\n        /* \"#utility.yul\":12095:12134   */\n      tag_386\n        /* \"#utility.yul\":12128:12133   */\n      dup3\n        /* \"#utility.yul\":12095:12134   */\n      tag_254\n      jump\t// in\n    tag_386:\n        /* \"#utility.yul\":12017:12140   */\n      swap2\n      swap1\n      pop\n      jump\t// out\n        /* \"#utility.yul\":12146:12269   */\n    tag_256:\n        /* \"#utility.yul\":12200:12209   */\n      0x00\n        /* \"#utility.yul\":12233:12263   */\n      tag_388\n        /* \"#utility.yul\":12257:12262   */\n      dup3\n        /* \"#utility.yul\":12233:12263   */\n      tag_255\n      jump\t// in\n    tag_388:\n        /* \"#utility.yul\":12220:12263   */\n      swap1\n      pop\n        /* \"#utility.yul\":12146:12269   */\n      swap2\n      swap1\n      pop\n      jump\t// out\n        /* \"#utility.yul\":12275:12414   */\n    tag_257:\n        /* \"#utility.yul\":12366:12407   */\n      tag_390\n        /* \"#utility.yul\":12401:12406   */\n      dup2\n        /* \"#utility.yul\":12366:12407   */\n      tag_256\n      jump\t// in\n    tag_390:\n        /* \"#utility.yul\":12361:12364   */\n      dup3\n        /* \"#utility.yul\":12354:12408   */\n      mstore\n        /* \"#utility.yul\":12275:12414   */\n      pop\n      pop\n      jump\t// out\n        /* \"#utility.yul\":12420:12589   */\n    tag_258:\n        /* \"#utility.yul\":12504:12515   */\n      0x00\n        /* \"#utility.yul\":12538:12544   */\n      dup3\n        /* \"#utility.yul\":12533:12536   */\n      dup3\n        /* \"#utility.yul\":12526:12545   */\n      mstore\n        /* \"#utility.yul\":12578:12582   */\n      0x20\n        /* \"#utility.yul\":12573:12576   */\n      dup3\n        /* \"#utility.yul\":12569:12583   */\n      add\n        /* \"#utility.yul\":12554:12583   */\n      swap1\n      pop\n        /* \"#utility.yul\":12420:12589   */\n      swap3\n      swap2\n      pop\n      pop\n      jump\t// out\n        /* \"#utility.yul\":12595:12972   */\n    tag_259:\n        /* \"#utility.yul\":12683:12686   */\n      0x00\n        /* \"#utility.yul\":12711:12750   */\n      tag_393\n        /* \"#utility.yul\":12744:12749   */\n      dup3\n        /* \"#utility.yul\":12711:12750   */\n      tag_236\n      jump\t// in\n    tag_393:\n        /* \"#utility.yul\":12766:12837   */\n      tag_394\n        /* \"#utility.yul\":12830:12836   */\n      dup2\n        /* \"#utility.yul\":12825:12828   */\n      dup6\n        /* \"#utility.yul\":12766:12837   */\n      tag_258\n      jump\t// in\n    tag_394:\n        /* \"#utility.yul\":12759:12837   */\n      swap4\n      pop\n        /* \"#utility.yul\":12846:12911   */\n      tag_395\n        /* \"#utility.yul\":12904:12910   */\n      dup2\n        /* \"#utility.yul\":12899:12902   */\n      dup6\n        /* \"#utility.yul\":12892:12896   */\n      0x20\n        /* \"#utility.yul\":12885:12890   */\n      dup7\n        /* \"#utility.yul\":12881:12897   */\n      add\n        /* \"#utility.yul\":12846:12911   */\n      tag_238\n      jump\t// in\n    tag_395:\n        /* \"#utility.yul\":12936:12965   */\n      tag_396\n        /* \"#utility.yul\":12958:12964   */\n      dup2\n        /* \"#utility.yul\":12936:12965   */\n      tag_239\n      jump\t// in\n    tag_396:\n        /* \"#utility.yul\":12931:12934   */\n      dup5\n        /* \"#utility.yul\":12927:12966   */\n      add\n        /* \"#utility.yul\":12920:12966   */\n      swap2\n      pop\n        /* \"#utility.yul\":12687:12972   */\n      pop\n        /* \"#utility.yul\":12595:12972   */\n      swap3\n      swap2\n      pop\n      pop\n      jump\t// out\n        /* \"#utility.yul\":12978:13087   */\n    tag_260:\n        /* \"#utility.yul\":13059:13080   */\n      tag_398\n        /* \"#utility.yul\":13074:13079   */\n      dup2\n        /* \"#utility.yul\":13059:13080   */\n      tag_243\n      jump\t// in\n    tag_398:\n        /* \"#utility.yul\":13054:13057   */\n      dup3\n        /* \"#utility.yul\":13047:13081   */\n      mstore\n        /* \"#utility.yul\":12978:13087   */\n      pop\n      pop\n      jump\t// out\n        /* \"#utility.yul\":13093:13208   */\n    tag_261:\n        /* \"#utility.yul\":13178:13201   */\n      tag_400\n        /* \"#utility.yul\":13195:13200   */\n      dup2\n        /* \"#utility.yul\":13178:13201   */\n      tag_241\n      jump\t// in\n    tag_400:\n        /* \"#utility.yul\":13173:13176   */\n      dup3\n        /* \"#utility.yul\":13166:13202   */\n      mstore\n        /* \"#utility.yul\":13093:13208   */\n      pop\n      pop\n      jump\t// out\n        /* \"#utility.yul\":13214:14571   */\n    tag_37:\n        /* \"#utility.yul\":13579:13583   */\n      0x00\n        /* \"#utility.yul\":13617:13620   */\n      0x0120\n        /* \"#utility.yul\":13606:13615   */\n      dup3\n        /* \"#utility.yul\":13602:13621   */\n      add\n        /* \"#utility.yul\":13594:13621   */\n      swap1\n      pop\n        /* \"#utility.yul\":13631:13702   */\n      tag_402\n        /* \"#utility.yul\":13699:13700   */\n      0x00\n        /* \"#utility.yul\":13688:13697   */\n      dup4\n        /* \"#utility.yul\":13684:13701   */\n      add\n        /* \"#utility.yul\":13675:13681   */\n      dup13\n        /* \"#utility.yul\":13631:13702   */\n      tag_253\n      jump\t// in\n    tag_402:\n        /* \"#utility.yul\":13712:13788   */\n      tag_403\n        /* \"#utility.yul\":13784:13786   */\n      0x20\n        /* \"#utility.yul\":13773:13782   */\n      dup4\n        /* \"#utility.yul\":13769:13787   */\n      add\n        /* \"#utility.yul\":13760:13766   */\n      dup12\n        /* \"#utility.yul\":13712:13788   */\n      tag_257\n      jump\t// in\n    tag_403:\n        /* \"#utility.yul\":13835:13844   */\n      dup2\n        /* \"#utility.yul\":13829:13833   */\n      dup2\n        /* \"#utility.yul\":13825:13845   */\n      sub\n        /* \"#utility.yul\":13820:13822   */\n      0x40\n        /* \"#utility.yul\":13809:13818   */\n      dup4\n        /* \"#utility.yul\":13805:13823   */\n      add\n        /* \"#utility.yul\":13798:13846   */\n      mstore\n        /* \"#utility.yul\":13863:13941   */\n      tag_404\n        /* \"#utility.yul\":13936:13940   */\n      dup2\n        /* \"#utility.yul\":13927:13933   */\n      dup11\n        /* \"#utility.yul\":13863:13941   */\n      tag_259\n      jump\t// in\n    tag_404:\n        /* \"#utility.yul\":13855:13941   */\n      swap1\n      pop\n        /* \"#utility.yul\":13951:14021   */\n      tag_405\n        /* \"#utility.yul\":14017:14019   */\n      0x60\n        /* \"#utility.yul\":14006:14015   */\n      dup4\n        /* \"#utility.yul\":14002:14020   */\n      add\n        /* \"#utility.yul\":13993:13999   */\n      dup10\n        /* \"#utility.yul\":13951:14021   */\n      tag_252\n      jump\t// in\n    tag_405:\n        /* \"#utility.yul\":14069:14078   */\n      dup2\n        /* \"#utility.yul\":14063:14067   */\n      dup2\n        /* \"#utility.yul\":14059:14079   */\n      sub\n        /* \"#utility.yul\":14053:14056   */\n      0x80\n        /* \"#utility.yul\":14042:14051   */\n      dup4\n        /* \"#utility.yul\":14038:14057   */\n      add\n        /* \"#utility.yul\":14031:14080   */\n      mstore\n        /* \"#utility.yul\":14097:14175   */\n      tag_406\n        /* \"#utility.yul\":14170:14174   */\n      dup2\n        /* \"#utility.yul\":14161:14167   */\n      dup9\n        /* \"#utility.yul\":14097:14175   */\n      tag_259\n      jump\t// in\n    tag_406:\n        /* \"#utility.yul\":14089:14175   */\n      swap1\n      pop\n        /* \"#utility.yul\":14223:14232   */\n      dup2\n        /* \"#utility.yul\":14217:14221   */\n      dup2\n        /* \"#utility.yul\":14213:14233   */\n      sub\n        /* \"#utility.yul\":14207:14210   */\n      0xa0\n        /* \"#utility.yul\":14196:14205   */\n      dup4\n        /* \"#utility.yul\":14192:14211   */\n      add\n        /* \"#utility.yul\":14185:14234   */\n      mstore\n        /* \"#utility.yul\":14251:14329   */\n      tag_407\n        /* \"#utility.yul\":14324:14328   */\n      dup2\n        /* \"#utility.yul\":14315:14321   */\n      dup8\n        /* \"#utility.yul\":14251:14329   */\n      tag_259\n      jump\t// in\n    tag_407:\n        /* \"#utility.yul\":14243:14329   */\n      swap1\n      pop\n        /* \"#utility.yul\":14339:14406   */\n      tag_408\n        /* \"#utility.yul\":14401:14404   */\n      0xc0\n        /* \"#utility.yul\":14390:14399   */\n      dup4\n        /* \"#utility.yul\":14386:14405   */\n      add\n        /* \"#utility.yul\":14377:14383   */\n      dup7\n        /* \"#utility.yul\":14339:14406   */\n      tag_260\n      jump\t// in\n    tag_408:\n        /* \"#utility.yul\":14416:14483   */\n      tag_409\n        /* \"#utility.yul\":14478:14481   */\n      0xe0\n        /* \"#utility.yul\":14467:14476   */\n      dup4\n        /* \"#utility.yul\":14463:14482   */\n      add\n        /* \"#utility.yul\":14454:14460   */\n      dup6\n        /* \"#utility.yul\":14416:14483   */\n      tag_260\n      jump\t// in\n    tag_409:\n        /* \"#utility.yul\":14493:14564   */\n      tag_410\n        /* \"#utility.yul\":14559:14562   */\n      0x0100\n        /* \"#utility.yul\":14548:14557   */\n      dup4\n        /* \"#utility.yul\":14544:14563   */\n      add\n        /* \"#utility.yul\":14535:14541   */\n      dup5\n        /* \"#utility.yul\":14493:14564   */\n      tag_261\n      jump\t// in\n    tag_410:\n        /* \"#utility.yul\":13214:14571   */\n      swap11\n      swap10\n      pop\n      pop\n      pop\n      pop\n      pop\n      pop\n      pop\n      pop\n      pop\n      pop\n      jump\t// out\n        /* \"#utility.yul\":14577:14693   */\n    tag_262:\n        /* \"#utility.yul\":14647:14668   */\n      tag_412\n        /* \"#utility.yul\":14662:14667   */\n      dup2\n        /* \"#utility.yul\":14647:14668   */\n      tag_243\n      jump\t// in\n    tag_412:\n        /* \"#utility.yul\":14640:14645   */\n      dup2\n        /* \"#utility.yul\":14637:14669   */\n      eq\n        /* \"#utility.yul\":14627:14687   */\n      tag_413\n      jumpi\n        /* \"#utility.yul\":14683:14684   */\n      0x00\n        /* \"#utility.yul\":14680:14681   */\n      0x00\n        /* \"#utility.yul\":14673:14685   */\n      revert\n        /* \"#utility.yul\":14627:14687   */\n    tag_413:\n        /* \"#utility.yul\":14577:14693   */\n      pop\n      jump\t// out\n        /* \"#utility.yul\":14699:14832   */\n    tag_263:\n        /* \"#utility.yul\":14742:14747   */\n      0x00\n        /* \"#utility.yul\":14780:14786   */\n      dup2\n        /* \"#utility.yul\":14767:14787   */\n      calldataload\n        /* \"#utility.yul\":14758:14787   */\n      swap1\n      pop\n        /* \"#utility.yul\":14796:14826   */\n      tag_415\n        /* \"#utility.yul\":14820:14825   */\n      dup2\n        /* \"#utility.yul\":14796:14826   */\n      tag_262\n      jump\t// in\n    tag_415:\n        /* \"#utility.yul\":14699:14832   */\n      swap3\n      swap2\n      pop\n      pop\n      jump\t// out\n        /* \"#utility.yul\":14838:15306   */\n    tag_40:\n        /* \"#utility.yul\":14903:14909   */\n      0x00\n        /* \"#utility.yul\":14911:14917   */\n      0x00\n        /* \"#utility.yul\":14960:14962   */\n      0x40\n        /* \"#utility.yul\":14948:14957   */\n      dup4\n        /* \"#utility.yul\":14939:14946   */\n      dup6\n        /* \"#utility.yul\":14935:14958   */\n      sub\n        /* \"#utility.yul\":14931:14963   */\n      slt\n        /* \"#utility.yul\":14928:15047   */\n      iszero\n      tag_417\n      jumpi\n        /* \"#utility.yul\":14966:15045   */\n      tag_418\n      tag_224\n      jump\t// in\n    tag_418:\n        /* \"#utility.yul\":14928:15047   */\n    tag_417:\n        /* \"#utility.yul\":15086:15087   */\n      0x00\n        /* \"#utility.yul\":15111:15164   */\n      tag_419\n        /* \"#utility.yul\":15156:15163   */\n      dup6\n        /* \"#utility.yul\":15147:15153   */\n      dup3\n        /* \"#utility.yul\":15136:15145   */\n      dup7\n        /* \"#utility.yul\":15132:15154   */\n      add\n        /* \"#utility.yul\":15111:15164   */\n      tag_229\n      jump\t// in\n    tag_419:\n        /* \"#utility.yul\":15101:15164   */\n      swap3\n      pop\n        /* \"#utility.yul\":15057:15174   */\n      pop\n        /* \"#utility.yul\":15213:15215   */\n      0x20\n        /* \"#utility.yul\":15239:15289   */\n      tag_420\n        /* \"#utility.yul\":15281:15288   */\n      dup6\n        /* \"#utility.yul\":15272:15278   */\n      dup3\n        /* \"#utility.yul\":15261:15270   */\n      dup7\n        /* \"#utility.yul\":15257:15279   */\n      add\n        /* \"#utility.yul\":15239:15289   */\n      tag_263\n      jump\t// in\n    tag_420:\n        /* \"#utility.yul\":15229:15289   */\n      swap2\n      pop\n        /* \"#utility.yul\":15184:15299   */\n      pop\n        /* \"#utility.yul\":14838:15306   */\n      swap3\n      pop\n      swap3\n      swap1\n      pop\n      jump\t// out\n        /* \"#utility.yul\":15312:15429   */\n    tag_264:\n        /* \"#utility.yul\":15421:15422   */\n      0x00\n        /* \"#utility.yul\":15418:15419   */\n      0x00\n        /* \"#utility.yul\":15411:15423   */\n      revert\n        /* \"#utility.yul\":15435:15552   */\n    tag_265:\n        /* \"#utility.yul\":15544:15545   */\n      0x00\n        /* \"#utility.yul\":15541:15542   */\n      0x00\n        /* \"#utility.yul\":15534:15546   */\n      revert\n        /* \"#utility.yul\":15558:15675   */\n    tag_266:\n        /* \"#utility.yul\":15667:15668   */\n      0x00\n        /* \"#utility.yul\":15664:15665   */\n      0x00\n        /* \"#utility.yul\":15657:15669   */\n      revert\n        /* \"#utility.yul\":15695:16248   */\n    tag_267:\n        /* \"#utility.yul\":15753:15761   */\n      0x00\n        /* \"#utility.yul\":15763:15769   */\n      0x00\n        /* \"#utility.yul\":15813:15816   */\n      dup4\n        /* \"#utility.yul\":15806:15810   */\n      0x1f\n        /* \"#utility.yul\":15798:15804   */\n      dup5\n        /* \"#utility.yul\":15794:15811   */\n      add\n        /* \"#utility.yul\":15790:15817   */\n      slt\n        /* \"#utility.yul\":15780:15902   */\n      tag_425\n      jumpi\n        /* \"#utility.yul\":15821:15900   */\n      tag_426\n      tag_264\n      jump\t// in\n    tag_426:\n        /* \"#utility.yul\":15780:15902   */\n    tag_425:\n        /* \"#utility.yul\":15934:15940   */\n      dup3\n        /* \"#utility.yul\":15921:15941   */\n      calldataload\n        /* \"#utility.yul\":15911:15941   */\n      swap1\n      pop\n        /* \"#utility.yul\":15964:15982   */\n      0xffffffffffffffff\n        /* \"#utility.yul\":15956:15962   */\n      dup2\n        /* \"#utility.yul\":15953:15983   */\n      gt\n        /* \"#utility.yul\":15950:16067   */\n      iszero\n      tag_427\n      jumpi\n        /* \"#utility.yul\":15986:16065   */\n      tag_428\n      tag_265\n      jump\t// in\n    tag_428:\n        /* \"#utility.yul\":15950:16067   */\n    tag_427:\n        /* \"#utility.yul\":16100:16104   */\n      0x20\n        /* \"#utility.yul\":16092:16098   */\n      dup4\n        /* \"#utility.yul\":16088:16105   */\n      add\n        /* \"#utility.yul\":16076:16105   */\n      swap2\n      pop\n        /* \"#utility.yul\":16154:16157   */\n      dup4\n        /* \"#utility.yul\":16146:16150   */\n      0x01\n        /* \"#utility.yul\":16138:16144   */\n      dup3\n        /* \"#utility.yul\":16134:16151   */\n      mul\n        /* \"#utility.yul\":16124:16132   */\n      dup4\n        /* \"#utility.yul\":16120:16152   */\n      add\n        /* \"#utility.yul\":16117:16158   */\n      gt\n        /* \"#utility.yul\":16114:16242   */\n      iszero\n      tag_429\n      jumpi\n        /* \"#utility.yul\":16161:16240   */\n      tag_430\n      tag_266\n      jump\t// in\n    tag_430:\n        /* \"#utility.yul\":16114:16242   */\n    tag_429:\n        /* \"#utility.yul\":15695:16248   */\n      swap3\n      pop\n      swap3\n      swap1\n      pop\n      jump\t// out\n        /* \"#utility.yul\":16254:17273   */\n    tag_44:\n        /* \"#utility.yul\":16355:16361   */\n      0x00\n        /* \"#utility.yul\":16363:16369   */\n      0x00\n        /* \"#utility.yul\":16371:16377   */\n      0x00\n        /* \"#utility.yul\":16379:16385   */\n      0x00\n        /* \"#utility.yul\":16387:16393   */\n      0x00\n        /* \"#utility.yul\":16436:16438   */\n      0x60\n        /* \"#utility.yul\":16424:16433   */\n      dup7\n        /* \"#utility.yul\":16415:16422   */\n      dup9\n        /* \"#utility.yul\":16411:16434   */\n      sub\n        /* \"#utility.yul\":16407:16439   */\n      slt\n        /* \"#utility.yul\":16404:16523   */\n      iszero\n      tag_432\n      jumpi\n        /* \"#utility.yul\":16442:16521   */\n      tag_433\n      tag_224\n      jump\t// in\n    tag_433:\n        /* \"#utility.yul\":16404:16523   */\n    tag_432:\n        /* \"#utility.yul\":16562:16563   */\n      0x00\n        /* \"#utility.yul\":16587:16640   */\n      tag_434\n        /* \"#utility.yul\":16632:16639   */\n      dup9\n        /* \"#utility.yul\":16623:16629   */\n      dup3\n        /* \"#utility.yul\":16612:16621   */\n      dup10\n        /* \"#utility.yul\":16608:16630   */\n      add\n        /* \"#utility.yul\":16587:16640   */\n      tag_229\n      jump\t// in\n    tag_434:\n        /* \"#utility.yul\":16577:16640   */\n      swap6\n      pop\n        /* \"#utility.yul\":16533:16650   */\n      pop\n        /* \"#utility.yul\":16717:16719   */\n      0x20\n        /* \"#utility.yul\":16706:16715   */\n      dup7\n        /* \"#utility.yul\":16702:16720   */\n      add\n        /* \"#utility.yul\":16689:16721   */\n      calldataload\n        /* \"#utility.yul\":16748:16766   */\n      0xffffffffffffffff\n        /* \"#utility.yul\":16740:16746   */\n      dup2\n        /* \"#utility.yul\":16737:16767   */\n      gt\n        /* \"#utility.yul\":16734:16851   */\n      iszero\n      tag_435\n      jumpi\n        /* \"#utility.yul\":16770:16849   */\n      tag_436\n      tag_225\n      jump\t// in\n    tag_436:\n        /* \"#utility.yul\":16734:16851   */\n    tag_435:\n        /* \"#utility.yul\":16883:16948   */\n      tag_437\n        /* \"#utility.yul\":16940:16947   */\n      dup9\n        /* \"#utility.yul\":16931:16937   */\n      dup3\n        /* \"#utility.yul\":16920:16929   */\n      dup10\n        /* \"#utility.yul\":16916:16938   */\n      add\n        /* \"#utility.yul\":16883:16948   */\n      tag_267\n      jump\t// in\n    tag_437:\n        /* \"#utility.yul\":16865:16948   */\n      swap5\n      pop\n      swap5\n      pop\n        /* \"#utility.yul\":16660:16958   */\n      pop\n        /* \"#utility.yul\":17025:17027   */\n      0x40\n        /* \"#utility.yul\":17014:17023   */\n      dup7\n        /* \"#utility.yul\":17010:17028   */\n      add\n        /* \"#utility.yul\":16997:17029   */\n      calldataload\n        /* \"#utility.yul\":17056:17074   */\n      0xffffffffffffffff\n        /* \"#utility.yul\":17048:17054   */\n      dup2\n        /* \"#utility.yul\":17045:17075   */\n      gt\n        /* \"#utility.yul\":17042:17159   */\n      iszero\n      tag_438\n      jumpi\n        /* \"#utility.yul\":17078:17157   */\n      tag_439\n      tag_225\n      jump\t// in\n    tag_439:\n        /* \"#utility.yul\":17042:17159   */\n    tag_438:\n        /* \"#utility.yul\":17191:17256   */\n      tag_440\n        /* \"#utility.yul\":17248:17255   */\n      dup9\n        /* \"#utility.yul\":17239:17245   */\n      dup3\n        /* \"#utility.yul\":17228:17237   */\n      dup10\n        /* \"#utility.yul\":17224:17246   */\n      add\n        /* \"#utility.yul\":17191:17256   */\n      tag_267\n      jump\t// in\n    tag_440:\n        /* \"#utility.yul\":17173:17256   */\n      swap3\n      pop\n      swap3\n      pop\n        /* \"#utility.yul\":16968:17266   */\n      pop\n        /* \"#utility.yul\":16254:17273   */\n      swap3\n      swap6\n      pop\n      swap3\n      swap6\n      swap1\n      swap4\n      pop\n      jump\t// out\n        /* \"#utility.yul\":17279:17384   */\n    tag_268:\n        /* \"#utility.yul\":17358:17359   */\n      0x03\n        /* \"#utility.yul\":17351:17356   */\n      dup2\n        /* \"#utility.yul\":17348:17360   */\n      lt\n        /* \"#utility.yul\":17338:17378   */\n      tag_442\n      jumpi\n        /* \"#utility.yul\":17374:17375   */\n      0x00\n        /* \"#utility.yul\":17371:17372   */\n      0x00\n        /* \"#utility.yul\":17364:17376   */\n      revert\n        /* \"#utility.yul\":17338:17378   */\n    tag_442:\n        /* \"#utility.yul\":17279:17384   */\n      pop\n      jump\t// out\n        /* \"#utility.yul\":17390:17541   */\n    tag_269:\n        /* \"#utility.yul\":17442:17447   */\n      0x00\n        /* \"#utility.yul\":17480:17486   */\n      dup2\n        /* \"#utility.yul\":17467:17487   */\n      calldataload\n        /* \"#utility.yul\":17458:17487   */\n      swap1\n      pop\n        /* \"#utility.yul\":17496:17535   */\n      tag_444\n        /* \"#utility.yul\":17529:17534   */\n      dup2\n        /* \"#utility.yul\":17496:17535   */\n      tag_268\n      jump\t// in\n    tag_444:\n        /* \"#utility.yul\":17390:17541   */\n      swap3\n      swap2\n      pop\n      pop\n      jump\t// out\n        /* \"#utility.yul\":17547:19354   */\n    tag_49:\n        /* \"#utility.yul\":17698:17704   */\n      0x00\n        /* \"#utility.yul\":17706:17712   */\n      0x00\n        /* \"#utility.yul\":17714:17720   */\n      0x00\n        /* \"#utility.yul\":17722:17728   */\n      0x00\n        /* \"#utility.yul\":17730:17736   */\n      0x00\n        /* \"#utility.yul\":17738:17744   */\n      0x00\n        /* \"#utility.yul\":17746:17752   */\n      0x00\n        /* \"#utility.yul\":17754:17760   */\n      0x00\n        /* \"#utility.yul\":17762:17768   */\n      0x00\n        /* \"#utility.yul\":17770:17776   */\n      0x00\n        /* \"#utility.yul\":17819:17822   */\n      0xe0\n        /* \"#utility.yul\":17807:17816   */\n      dup12\n        /* \"#utility.yul\":17798:17805   */\n      dup14\n        /* \"#utility.yul\":17794:17817   */\n      sub\n        /* \"#utility.yul\":17790:17823   */\n      slt\n        /* \"#utility.yul\":17787:17907   */\n      iszero\n      tag_446\n      jumpi\n        /* \"#utility.yul\":17826:17905   */\n      tag_447\n      tag_224\n      jump\t// in\n    tag_447:\n        /* \"#utility.yul\":17787:17907   */\n    tag_446:\n        /* \"#utility.yul\":17946:17947   */\n      0x00\n        /* \"#utility.yul\":17971:18024   */\n      tag_448\n        /* \"#utility.yul\":18016:18023   */\n      dup14\n        /* \"#utility.yul\":18007:18013   */\n      dup3\n        /* \"#utility.yul\":17996:18005   */\n      dup15\n        /* \"#utility.yul\":17992:18014   */\n      add\n        /* \"#utility.yul\":17971:18024   */\n      tag_229\n      jump\t// in\n    tag_448:\n        /* \"#utility.yul\":17961:18024   */\n      swap11\n      pop\n        /* \"#utility.yul\":17917:18034   */\n      pop\n        /* \"#utility.yul\":18073:18075   */\n      0x20\n        /* \"#utility.yul\":18099:18158   */\n      tag_449\n        /* \"#utility.yul\":18150:18157   */\n      dup14\n        /* \"#utility.yul\":18141:18147   */\n      dup3\n        /* \"#utility.yul\":18130:18139   */\n      dup15\n        /* \"#utility.yul\":18126:18148   */\n      add\n        /* \"#utility.yul\":18099:18158   */\n      tag_269\n      jump\t// in\n    tag_449:\n        /* \"#utility.yul\":18089:18158   */\n      swap10\n      pop\n        /* \"#utility.yul\":18044:18168   */\n      pop\n        /* \"#utility.yul\":18235:18237   */\n      0x40\n        /* \"#utility.yul\":18224:18233   */\n      dup12\n        /* \"#utility.yul\":18220:18238   */\n      add\n        /* \"#utility.yul\":18207:18239   */\n      calldataload\n        /* \"#utility.yul\":18266:18284   */\n      0xffffffffffffffff\n        /* \"#utility.yul\":18258:18264   */\n      dup2\n        /* \"#utility.yul\":18255:18285   */\n      gt\n        /* \"#utility.yul\":18252:18369   */\n      iszero\n      tag_450\n      jumpi\n        /* \"#utility.yul\":18288:18367   */\n      tag_451\n      tag_225\n      jump\t// in\n    tag_451:\n        /* \"#utility.yul\":18252:18369   */\n    tag_450:\n        /* \"#utility.yul\":18401:18466   */\n      tag_452\n        /* \"#utility.yul\":18458:18465   */\n      dup14\n        /* \"#utility.yul\":18449:18455   */\n      dup3\n        /* \"#utility.yul\":18438:18447   */\n      dup15\n        /* \"#utility.yul\":18434:18456   */\n      add\n        /* \"#utility.yul\":18401:18466   */\n      tag_267\n      jump\t// in\n    tag_452:\n        /* \"#utility.yul\":18383:18466   */\n      swap9\n      pop\n      swap9\n      pop\n        /* \"#utility.yul\":18178:18476   */\n      pop\n        /* \"#utility.yul\":18515:18517   */\n      0x60\n        /* \"#utility.yul\":18541:18593   */\n      tag_453\n        /* \"#utility.yul\":18585:18592   */\n      dup14\n        /* \"#utility.yul\":18576:18582   */\n      dup3\n        /* \"#utility.yul\":18565:18574   */\n      dup15\n        /* \"#utility.yul\":18561:18583   */\n      add\n        /* \"#utility.yul\":18541:18593   */\n      tag_250\n      jump\t// in\n    tag_453:\n        /* \"#utility.yul\":18531:18593   */\n      swap7\n      pop\n        /* \"#utility.yul\":18486:18603   */\n      pop\n        /* \"#utility.yul\":18670:18673   */\n      0x80\n        /* \"#utility.yul\":18659:18668   */\n      dup12\n        /* \"#utility.yul\":18655:18674   */\n      add\n        /* \"#utility.yul\":18642:18675   */\n      calldataload\n        /* \"#utility.yul\":18702:18720   */\n      0xffffffffffffffff\n        /* \"#utility.yul\":18694:18700   */\n      dup2\n        /* \"#utility.yul\":18691:18721   */\n      gt\n        /* \"#utility.yul\":18688:18805   */\n      iszero\n      tag_454\n      jumpi\n        /* \"#utility.yul\":18724:18803   */\n      tag_455\n      tag_225\n      jump\t// in\n    tag_455:\n        /* \"#utility.yul\":18688:18805   */\n    tag_454:\n        /* \"#utility.yul\":18837:18902   */\n      tag_456\n        /* \"#utility.yul\":18894:18901   */\n      dup14\n        /* \"#utility.yul\":18885:18891   */\n      dup3\n        /* \"#utility.yul\":18874:18883   */\n      dup15\n        /* \"#utility.yul\":18870:18892   */\n      add\n        /* \"#utility.yul\":18837:18902   */\n      tag_267\n      jump\t// in\n    tag_456:\n        /* \"#utility.yul\":18819:18902   */\n      swap6\n      pop\n      swap6\n      pop\n        /* \"#utility.yul\":18613:18912   */\n      pop\n        /* \"#utility.yul\":18979:18982   */\n      0xa0\n        /* \"#utility.yul\":18968:18977   */\n      dup12\n        /* \"#utility.yul\":18964:18983   */\n      add\n        /* \"#utility.yul\":18951:18984   */\n      calldataload\n        /* \"#utility.yul\":19011:19029   */\n      0xffffffffffffffff\n        /* \"#utility.yul\":19003:19009   */\n      dup2\n        /* \"#utility.yul\":19000:19030   */\n      gt\n        /* \"#utility.yul\":18997:19114   */\n      iszero\n      tag_457\n      jumpi\n        /* \"#utility.yul\":19033:19112   */\n      tag_458\n      tag_225\n      jump\t// in\n    tag_458:\n        /* \"#utility.yul\":18997:19114   */\n    tag_457:\n        /* \"#utility.yul\":19146:19211   */\n      tag_459\n        /* \"#utility.yul\":19203:19210   */\n      dup14\n        /* \"#utility.yul\":19194:19200   */\n      dup3\n        /* \"#utility.yul\":19183:19192   */\n      dup15\n        /* \"#utility.yul\":19179:19201   */\n      add\n        /* \"#utility.yul\":19146:19211   */\n      tag_267\n      jump\t// in\n    tag_459:\n        /* \"#utility.yul\":19128:19211   */\n      swap4\n      pop\n      swap4\n      pop\n        /* \"#utility.yul\":18922:19221   */\n      pop\n        /* \"#utility.yul\":19260:19263   */\n      0xc0\n        /* \"#utility.yul\":19287:19337   */\n      tag_460\n        /* \"#utility.yul\":19329:19336   */\n      dup14\n        /* \"#utility.yul\":19320:19326   */\n      dup3\n        /* \"#utility.yul\":19309:19318   */\n      dup15\n        /* \"#utility.yul\":19305:19327   */\n      add\n        /* \"#utility.yul\":19287:19337   */\n      tag_263\n      jump\t// in\n    tag_460:\n        /* \"#utility.yul\":19277:19337   */\n      swap2\n      pop\n        /* \"#utility.yul\":19231:19347   */\n      pop\n        /* \"#utility.yul\":17547:19354   */\n      swap3\n      swap6\n      swap9\n      swap12\n      swap2\n      swap5\n      swap8\n      swap11\n      pop\n      swap3\n      swap6\n      swap9\n      pop\n      jump\t// out\n        /* \"#utility.yul\":19360:20377   */\n    tag_57:\n        /* \"#utility.yul\":19460:19466   */\n      0x00\n        /* \"#utility.yul\":19468:19474   */\n      0x00\n        /* \"#utility.yul\":19476:19482   */\n      0x00\n        /* \"#utility.yul\":19484:19490   */\n      0x00\n        /* \"#utility.yul\":19492:19498   */\n      0x00\n        /* \"#utility.yul\":19541:19543   */\n      0x60\n        /* \"#utility.yul\":19529:19538   */\n      dup7\n        /* \"#utility.yul\":19520:19527   */\n      dup9\n        /* \"#utility.yul\":19516:19539   */\n      sub\n        /* \"#utility.yul\":19512:19544   */\n      slt\n        /* \"#utility.yul\":19509:19628   */\n      iszero\n      tag_462\n      jumpi\n        /* \"#utility.yul\":19547:19626   */\n      tag_463\n      tag_224\n      jump\t// in\n    tag_463:\n        /* \"#utility.yul\":19509:19628   */\n    tag_462:\n        /* \"#utility.yul\":19667:19668   */\n      0x00\n        /* \"#utility.yul\":19692:19744   */\n      tag_464\n        /* \"#utility.yul\":19736:19743   */\n      dup9\n        /* \"#utility.yul\":19727:19733   */\n      dup3\n        /* \"#utility.yul\":19716:19725   */\n      dup10\n        /* \"#utility.yul\":19712:19734   */\n      add\n        /* \"#utility.yul\":19692:19744   */\n      tag_250\n      jump\t// in\n    tag_464:\n        /* \"#utility.yul\":19682:19744   */\n      swap6\n      pop\n        /* \"#utility.yul\":19638:19754   */\n      pop\n        /* \"#utility.yul\":19821:19823   */\n      0x20\n        /* \"#utility.yul\":19810:19819   */\n      dup7\n        /* \"#utility.yul\":19806:19824   */\n      add\n        /* \"#utility.yul\":19793:19825   */\n      calldataload\n        /* \"#utility.yul\":19852:19870   */\n      0xffffffffffffffff\n        /* \"#utility.yul\":19844:19850   */\n      dup2\n        /* \"#utility.yul\":19841:19871   */\n      gt\n        /* \"#utility.yul\":19838:19955   */\n      iszero\n      tag_465\n      jumpi\n        /* \"#utility.yul\":19874:19953   */\n      tag_466\n      tag_225\n      jump\t// in\n    tag_466:\n        /* \"#utility.yul\":19838:19955   */\n    tag_465:\n        /* \"#utility.yul\":19987:20052   */\n      tag_467\n        /* \"#utility.yul\":20044:20051   */\n      dup9\n        /* \"#utility.yul\":20035:20041   */\n      dup3\n        /* \"#utility.yul\":20024:20033   */\n      dup10\n        /* \"#utility.yul\":20020:20042   */\n      add\n        /* \"#utility.yul\":19987:20052   */\n      tag_267\n      jump\t// in\n    tag_467:\n        /* \"#utility.yul\":19969:20052   */\n      swap5\n      pop\n      swap5\n      pop\n        /* \"#utility.yul\":19764:20062   */\n      pop\n        /* \"#utility.yul\":20129:20131   */\n      0x40\n        /* \"#utility.yul\":20118:20127   */\n      dup7\n        /* \"#utility.yul\":20114:20132   */\n      add\n        /* \"#utility.yul\":20101:20133   */\n      calldataload\n        /* \"#utility.yul\":20160:20178   */\n      0xffffffffffffffff\n        /* \"#utility.yul\":20152:20158   */\n      dup2\n        /* \"#utility.yul\":20149:20179   */\n      gt\n        /* \"#utility.yul\":20146:20263   */\n      iszero\n      tag_468\n      jumpi\n        /* \"#utility.yul\":20182:20261   */\n      tag_469\n      tag_225\n      jump\t// in\n    tag_469:\n        /* \"#utility.yul\":20146:20263   */\n    tag_468:\n        /* \"#utility.yul\":20295:20360   */\n      tag_470\n        /* \"#utility.yul\":20352:20359   */\n      dup9\n        /* \"#utility.yul\":20343:20349   */\n      dup3\n        /* \"#utility.yul\":20332:20341   */\n      dup10\n        /* \"#utility.yul\":20328:20350   */\n      add\n        /* \"#utility.yul\":20295:20360   */\n      tag_267\n      jump\t// in\n    tag_470:\n        /* \"#utility.yul\":20277:20360   */\n      swap3\n      pop\n      swap3\n      pop\n        /* \"#utility.yul\":20072:20370   */\n      pop\n        /* \"#utility.yul\":19360:20377   */\n      swap3\n      swap6\n      pop\n      swap3\n      swap6\n      swap1\n      swap4\n      pop\n      jump\t// out\n        /* \"#utility.yul\":20383:20563   */\n    tag_62:\n        /* \"#utility.yul\":20431:20508   */\n      0x4e487b7100000000000000000000000000000000000000000000000000000000\n        /* \"#utility.yul\":20428:20429   */\n      0x00\n        /* \"#utility.yul\":20421:20509   */\n      mstore\n        /* \"#utility.yul\":20528:20532   */\n      0x41\n        /* \"#utility.yul\":20525:20526   */\n      0x04\n        /* \"#utility.yul\":20518:20533   */\n      mstore\n        /* \"#utility.yul\":20552:20556   */\n      0x24\n        /* \"#utility.yul\":20549:20550   */\n      0x00\n        /* \"#utility.yul\":20542:20557   */\n      revert\n        /* \"#utility.yul\":20569:20749   */\n    tag_73:\n        /* \"#utility.yul\":20617:20694   */\n      0x4e487b7100000000000000000000000000000000000000000000000000000000\n        /* \"#utility.yul\":20614:20615   */\n      0x00\n        /* \"#utility.yul\":20607:20695   */\n      mstore\n        /* \"#utility.yul\":20714:20718   */\n      0x32\n        /* \"#utility.yul\":20711:20712   */\n      0x04\n        /* \"#utility.yul\":20704:20719   */\n      mstore\n        /* \"#utility.yul\":20738:20742   */\n      0x24\n        /* \"#utility.yul\":20735:20736   */\n      0x00\n        /* \"#utility.yul\":20728:20743   */\n      revert\n        /* \"#utility.yul\":20755:20935   */\n    tag_270:\n        /* \"#utility.yul\":20803:20880   */\n      0x4e487b7100000000000000000000000000000000000000000000000000000000\n        /* \"#utility.yul\":20800:20801   */\n      0x00\n        /* \"#utility.yul\":20793:20881   */\n      mstore\n        /* \"#utility.yul\":20900:20904   */\n      0x22\n        /* \"#utility.yul\":20897:20898   */\n      0x04\n        /* \"#utility.yul\":20890:20905   */\n      mstore\n        /* \"#utility.yul\":20924:20928   */\n      0x24\n        /* \"#utility.yul\":20921:20922   */\n      0x00\n        /* \"#utility.yul\":20914:20929   */\n      revert\n        /* \"#utility.yul\":20941:21261   */\n    tag_81:\n        /* \"#utility.yul\":20985:20991   */\n      0x00\n        /* \"#utility.yul\":21022:21023   */\n      0x02\n        /* \"#utility.yul\":21016:21020   */\n      dup3\n        /* \"#utility.yul\":21012:21024   */\n      div\n        /* \"#utility.yul\":21002:21024   */\n      swap1\n      pop\n        /* \"#utility.yul\":21069:21070   */\n      0x01\n        /* \"#utility.yul\":21063:21067   */\n      dup3\n        /* \"#utility.yul\":21059:21071   */\n      and\n        /* \"#utility.yul\":21090:21108   */\n      dup1\n        /* \"#utility.yul\":21080:21161   */\n      tag_475\n      jumpi\n        /* \"#utility.yul\":21146:21150   */\n      0x7f\n        /* \"#utility.yul\":21138:21144   */\n      dup3\n        /* \"#utility.yul\":21134:21151   */\n      and\n        /* \"#utility.yul\":21124:21151   */\n      swap2\n      pop\n        /* \"#utility.yul\":21080:21161   */\n    tag_475:\n        /* \"#utility.yul\":21208:21210   */\n      0x20\n        /* \"#utility.yul\":21200:21206   */\n      dup3\n        /* \"#utility.yul\":21197:21211   */\n      lt\n        /* \"#utility.yul\":21177:21195   */\n      dup2\n        /* \"#utility.yul\":21174:21212   */\n      sub\n        /* \"#utility.yul\":21171:21255   */\n      tag_476\n      jumpi\n        /* \"#utility.yul\":21227:21245   */\n      tag_477\n      tag_270\n      jump\t// in\n    tag_477:\n        /* \"#utility.yul\":21171:21255   */\n    tag_476:\n        /* \"#utility.yul\":20992:21261   */\n      pop\n        /* \"#utility.yul\":20941:21261   */\n      swap2\n      swap1\n      pop\n      jump\t// out\n        /* \"#utility.yul\":21267:21447   */\n    tag_271:\n        /* \"#utility.yul\":21315:21392   */\n      0x4e487b7100000000000000000000000000000000000000000000000000000000\n        /* \"#utility.yul\":21312:21313   */\n      0x00\n        /* \"#utility.yul\":21305:21393   */\n      mstore\n        /* \"#utility.yul\":21412:21416   */\n      0x11\n        /* \"#utility.yul\":21409:21410   */\n      0x04\n        /* \"#utility.yul\":21402:21417   */\n      mstore\n        /* \"#utility.yul\":21436:21440   */\n      0x24\n        /* \"#utility.yul\":21433:21434   */\n      0x00\n        /* \"#utility.yul\":21426:21441   */\n      revert\n        /* \"#utility.yul\":21453:21650   */\n    tag_156:\n        /* \"#utility.yul\":21492:21495   */\n      0x00\n        /* \"#utility.yul\":21511:21530   */\n      tag_480\n        /* \"#utility.yul\":21528:21529   */\n      dup3\n        /* \"#utility.yul\":21511:21530   */\n      tag_233\n      jump\t// in\n    tag_480:\n        /* \"#utility.yul\":21506:21530   */\n      swap2\n      pop\n        /* \"#utility.yul\":21544:21563   */\n      tag_481\n        /* \"#utility.yul\":21561:21562   */\n      dup4\n        /* \"#utility.yul\":21544:21563   */\n      tag_233\n      jump\t// in\n    tag_481:\n        /* \"#utility.yul\":21539:21563   */\n      swap3\n      pop\n        /* \"#utility.yul\":21586:21587   */\n      dup3\n        /* \"#utility.yul\":21583:21584   */\n      dup3\n        /* \"#utility.yul\":21579:21588   */\n      add\n        /* \"#utility.yul\":21572:21588   */\n      swap1\n      pop\n        /* \"#utility.yul\":21609:21619   */\n      0xffffffff\n        /* \"#utility.yul\":21604:21607   */\n      dup2\n        /* \"#utility.yul\":21601:21620   */\n      gt\n        /* \"#utility.yul\":21598:21643   */\n      iszero\n      tag_482\n      jumpi\n        /* \"#utility.yul\":21623:21641   */\n      tag_483\n      tag_271\n      jump\t// in\n    tag_483:\n        /* \"#utility.yul\":21598:21643   */\n    tag_482:\n        /* \"#utility.yul\":21453:21650   */\n      swap3\n      swap2\n      pop\n      pop\n      jump\t// out\n        /* \"#utility.yul\":21656:21797   */\n    tag_272:\n        /* \"#utility.yul\":21705:21709   */\n      0x00\n        /* \"#utility.yul\":21728:21731   */\n      dup2\n        /* \"#utility.yul\":21720:21731   */\n      swap1\n      pop\n        /* \"#utility.yul\":21751:21754   */\n      dup2\n        /* \"#utility.yul\":21748:21749   */\n      0x00\n        /* \"#utility.yul\":21741:21755   */\n      mstore\n        /* \"#utility.yul\":21785:21789   */\n      0x20\n        /* \"#utility.yul\":21782:21783   */\n      0x00\n        /* \"#utility.yul\":21772:21790   */\n      keccak256\n        /* \"#utility.yul\":21764:21790   */\n      swap1\n      pop\n        /* \"#utility.yul\":21656:21797   */\n      swap2\n      swap1\n      pop\n      jump\t// out\n        /* \"#utility.yul\":21803:21896   */\n    tag_273:\n        /* \"#utility.yul\":21840:21846   */\n      0x00\n        /* \"#utility.yul\":21887:21889   */\n      0x20\n        /* \"#utility.yul\":21882:21884   */\n      0x1f\n        /* \"#utility.yul\":21875:21880   */\n      dup4\n        /* \"#utility.yul\":21871:21885   */\n      add\n        /* \"#utility.yul\":21867:21890   */\n      div\n        /* \"#utility.yul\":21857:21890   */\n      swap1\n      pop\n        /* \"#utility.yul\":21803:21896   */\n      swap2\n      swap1\n      pop\n      jump\t// out\n        /* \"#utility.yul\":21902:22009   */\n    tag_274:\n        /* \"#utility.yul\":21946:21954   */\n      0x00\n        /* \"#utility.yul\":21996:22001   */\n      dup3\n        /* \"#utility.yul\":21990:21994   */\n      dup3\n        /* \"#utility.yul\":21986:22002   */\n      shl\n        /* \"#utility.yul\":21965:22002   */\n      swap1\n      pop\n        /* \"#utility.yul\":21902:22009   */\n      swap3\n      swap2\n      pop\n      pop\n      jump\t// out\n        /* \"#utility.yul\":22015:22408   */\n    tag_275:\n        /* \"#utility.yul\":22084:22090   */\n      0x00\n        /* \"#utility.yul\":22134:22135   */\n      0x08\n        /* \"#utility.yul\":22122:22132   */\n      dup4\n        /* \"#utility.yul\":22118:22136   */\n      mul\n        /* \"#utility.yul\":22157:22254   */\n      tag_488\n        /* \"#utility.yul\":22187:22253   */\n      0xffffffffffffffffffffffffffffffffffffffffffffffffffffffffffffffff\n        /* \"#utility.yul\":22176:22185   */\n      dup3\n        /* \"#utility.yul\":22157:22254   */\n      tag_274\n      jump\t// in\n    tag_488:\n        /* \"#utility.yul\":22275:22314   */\n      tag_489\n        /* \"#utility.yul\":22305:22313   */\n      dup7\n        /* \"#utility.yul\":22294:22303   */\n      dup4\n        /* \"#utility.yul\":22275:22314   */\n      tag_274\n      jump\t// in\n    tag_489:\n        /* \"#utility.yul\":22263:22314   */\n      swap6\n      pop\n        /* \"#utility.yul\":22347:22351   */\n      dup1\n        /* \"#utility.yul\":22343:22352   */\n      not\n        /* \"#utility.yul\":22336:22341   */\n      dup5\n        /* \"#utility.yul\":22332:22353   */\n      and\n        /* \"#utility.yul\":22323:22353   */\n      swap4\n      pop\n        /* \"#utility.yul\":22396:22400   */\n      dup1\n        /* \"#utility.yul\":22386:22394   */\n      dup7\n        /* \"#utility.yul\":22382:22401   */\n      and\n        /* \"#utility.yul\":22375:22380   */\n      dup5\n        /* \"#utility.yul\":22372:22402   */\n      or\n        /* \"#utility.yul\":22362:22402   */\n      swap3\n      pop\n        /* \"#utility.yul\":22091:22408   */\n      pop\n      pop\n        /* \"#utility.yul\":22015:22408   */\n      swap4\n      swap3\n      pop\n      pop\n      pop\n      jump\t// out\n        /* \"#utility.yul\":22414:22491   */\n    tag_276:\n        /* \"#utility.yul\":22451:22458   */\n      0x00\n        /* \"#utility.yul\":22480:22485   */\n      dup2\n        /* \"#utility.yul\":22469:22485   */\n      swap1\n      pop\n        /* \"#utility.yul\":22414:22491   */\n      swap2\n      swap1\n      pop\n      jump\t// out\n        /* \"#utility.yul\":22497:22557   */\n    tag_277:\n        /* \"#utility.yul\":22525:22528   */\n      0x00\n        /* \"#utility.yul\":22546:22551   */\n      dup2\n        /* \"#utility.yul\":22539:22551   */\n      swap1\n      pop\n        /* \"#utility.yul\":22497:22557   */\n      swap2\n      swap1\n      pop\n      jump\t// out\n        /* \"#utility.yul\":22563:22705   */\n    tag_278:\n        /* \"#utility.yul\":22613:22622   */\n      0x00\n        /* \"#utility.yul\":22646:22699   */\n      tag_493\n        /* \"#utility.yul\":22664:22698   */\n      tag_494\n        /* \"#utility.yul\":22673:22697   */\n      tag_495\n        /* \"#utility.yul\":22691:22696   */\n      dup5\n        /* \"#utility.yul\":22673:22697   */\n      tag_276\n      jump\t// in\n    tag_495:\n        /* \"#utility.yul\":22664:22698   */\n      tag_277\n      jump\t// in\n    tag_494:\n        /* \"#utility.yul\":22646:22699   */\n      tag_276\n      jump\t// in\n    tag_493:\n        /* \"#utility.yul\":22633:22699   */\n      swap1\n      pop\n        /* \"#utility.yul\":22563:22705   */\n      swap2\n      swap1\n      pop\n      jump\t// out\n        /* \"#utility.yul\":22711:22786   */\n    tag_279:\n        /* \"#utility.yul\":22754:22757   */\n      0x00\n        /* \"#utility.yul\":22775:22780   */\n      dup2\n        /* \"#utility.yul\":22768:22780   */\n      swap1\n      pop\n        /* \"#utility.yul\":22711:22786   */\n      swap2\n      swap1\n      pop\n      jump\t// out\n        /* \"#utility.yul\":22792:23061   */\n    tag_280:\n        /* \"#utility.yul\":22902:22941   */\n      tag_498\n        /* \"#utility.yul\":22933:22940   */\n      dup4\n        /* \"#utility.yul\":22902:22941   */\n      tag_278\n      jump\t// in\n    tag_498:\n        /* \"#utility.yul\":22963:23054   */\n      tag_499\n        /* \"#utility.yul\":23012:23053   */\n      tag_500\n        /* \"#utility.yul\":23036:23052   */\n      dup3\n        /* \"#utility.yul\":23012:23053   */\n      tag_279\n      jump\t// in\n    tag_500:\n        /* \"#utility.yul\":23004:23010   */\n      dup5\n        /* \"#utility.yul\":22997:23001   */\n      dup5\n        /* \"#utility.yul\":22991:23002   */\n      sload\n        /* \"#utility.yul\":22963:23054   */\n      tag_275\n      jump\t// in\n    tag_499:\n        /* \"#utility.yul\":22957:22961   */\n      dup3\n        /* \"#utility.yul\":22950:23055   */\n      sstore\n        /* \"#utility.yul\":22868:23061   */\n      pop\n        /* \"#utility.yul\":22792:23061   */\n      pop\n      pop\n      pop\n      jump\t// out\n        /* \"#utility.yul\":23067:23140   */\n    tag_281:\n        /* \"#utility.yul\":23112:23115   */\n      0x00\n        /* \"#utility.yul\":23133:23134   */\n      0x00\n        /* \"#utility.yul\":23126:23134   */\n      swap1\n      pop\n        /* \"#utility.yul\":23067:23140   */\n      swap1\n      jump\t// out\n        /* \"#utility.yul\":23146:23335   */\n    tag_282:\n        /* \"#utility.yul\":23223:23255   */\n      tag_503\n      tag_281\n      jump\t// in\n    tag_503:\n        /* \"#utility.yul\":23264:23329   */\n      tag_504\n        /* \"#utility.yul\":23322:23328   */\n      dup2\n        /* \"#utility.yul\":23314:23320   */\n      dup5\n        /* \"#utility.yul\":23308:23312   */\n      dup5\n        /* \"#utility.yul\":23264:23329   */\n      tag_280\n      jump\t// in\n    tag_504:\n        /* \"#utility.yul\":23199:23335   */\n      pop\n        /* \"#utility.yul\":23146:23335   */\n      pop\n      pop\n      jump\t// out\n        /* \"#utility.yul\":23341:23527   */\n    tag_283:\n        /* \"#utility.yul\":23401:23521   */\n    tag_506:\n        /* \"#utility.yul\":23418:23421   */\n      dup2\n        /* \"#utility.yul\":23411:23416   */\n      dup2\n        /* \"#utility.yul\":23408:23422   */\n      lt\n        /* \"#utility.yul\":23401:23521   */\n      iszero\n      tag_508\n      jumpi\n        /* \"#utility.yul\":23472:23511   */\n      tag_509\n        /* \"#utility.yul\":23509:23510   */\n      0x00\n        /* \"#utility.yul\":23502:23507   */\n      dup3\n        /* \"#utility.yul\":23472:23511   */\n      tag_282\n      jump\t// in\n    tag_509:\n        /* \"#utility.yul\":23445:23446   */\n      0x01\n        /* \"#utility.yul\":23438:23443   */\n      dup2\n        /* \"#utility.yul\":23434:23447   */\n      add\n        /* \"#utility.yul\":23425:23447   */\n      swap1\n      pop\n        /* \"#utility.yul\":23401:23521   */\n      jump(tag_506)\n    tag_508:\n        /* \"#utility.yul\":23341:23527   */\n      pop\n      pop\n      jump\t// out\n        /* \"#utility.yul\":23533:24076   */\n    tag_284:\n        /* \"#utility.yul\":23634:23636   */\n      0x1f\n        /* \"#utility.yul\":23629:23632   */\n      dup3\n        /* \"#utility.yul\":23626:23637   */\n      gt\n        /* \"#utility.yul\":23623:24069   */\n      iszero\n      tag_511\n      jumpi\n        /* \"#utility.yul\":23668:23706   */\n      tag_512\n        /* \"#utility.yul\":23700:23705   */\n      dup2\n        /* \"#utility.yul\":23668:23706   */\n      tag_272\n      jump\t// in\n    tag_512:\n        /* \"#utility.yul\":23752:23781   */\n      tag_513\n        /* \"#utility.yul\":23770:23780   */\n      dup5\n        /* \"#utility.yul\":23752:23781   */\n      tag_273\n      jump\t// in\n    tag_513:\n        /* \"#utility.yul\":23742:23750   */\n      dup2\n        /* \"#utility.yul\":23738:23782   */\n      add\n        /* \"#utility.yul\":23935:23937   */\n      0x20\n        /* \"#utility.yul\":23923:23933   */\n      dup6\n        /* \"#utility.yul\":23920:23938   */\n      lt\n        /* \"#utility.yul\":23917:23966   */\n      iszero\n      tag_514\n      jumpi\n        /* \"#utility.yul\":23956:23964   */\n      dup2\n        /* \"#utility.yul\":23941:23964   */\n      swap1\n      pop\n        /* \"#utility.yul\":23917:23966   */\n    tag_514:\n        /* \"#utility.yul\":23979:24059   */\n      tag_515\n        /* \"#utility.yul\":24035:24057   */\n      tag_516\n        /* \"#utility.yul\":24053:24056   */\n      dup6\n        /* \"#utility.yul\":24035:24057   */\n      tag_273\n      jump\t// in\n    tag_516:\n        /* \"#utility.yul\":24025:24033   */\n      dup4\n        /* \"#utility.yul\":24021:24058   */\n      add\n        /* \"#utility.yul\":24008:24019   */\n      dup3\n        /* \"#utility.yul\":23979:24059   */\n      tag_283\n      jump\t// in\n    tag_515:\n        /* \"#utility.yul\":23638:24069   */\n      pop\n      pop\n        /* \"#utility.yul\":23623:24069   */\n    tag_511:\n        /* \"#utility.yul\":23533:24076   */\n      pop\n      pop\n      pop\n      jump\t// out\n        /* \"#utility.yul\":24082:24199   */\n    tag_285:\n        /* \"#utility.yul\":24136:24144   */\n      0x00\n        /* \"#utility.yul\":24186:24191   */\n      dup3\n        /* \"#utility.yul\":24180:24184   */\n      dup3\n        /* \"#utility.yul\":24176:24192   */\n      shr\n        /* \"#utility.yul\":24155:24192   */\n      swap1\n      pop\n        /* \"#utility.yul\":24082:24199   */\n      swap3\n      swap2\n      pop\n      pop\n      jump\t// out\n        /* \"#utility.yul\":24205:24374   */\n    tag_286:\n        /* \"#utility.yul\":24249:24255   */\n      0x00\n        /* \"#utility.yul\":24282:24333   */\n      tag_519\n        /* \"#utility.yul\":24330:24331   */\n      0x00\n        /* \"#utility.yul\":24326:24332   */\n      not\n        /* \"#utility.yul\":24318:24323   */\n      dup5\n        /* \"#utility.yul\":24315:24316   */\n      0x08\n        /* \"#utility.yul\":24311:24324   */\n      mul\n        /* \"#utility.yul\":24282:24333   */\n      tag_285\n      jump\t// in\n    tag_519:\n        /* \"#utility.yul\":24278:24334   */\n      not\n        /* \"#utility.yul\":24363:24367   */\n      dup1\n        /* \"#utility.yul\":24357:24361   */\n      dup4\n        /* \"#utility.yul\":24353:24368   */\n      and\n        /* \"#utility.yul\":24343:24368   */\n      swap2\n      pop\n        /* \"#utility.yul\":24256:24374   */\n      pop\n        /* \"#utility.yul\":24205:24374   */\n      swap3\n      swap2\n      pop\n      pop\n      jump\t// out\n        /* \"#utility.yul\":24379:24674   */\n    tag_287:\n        /* \"#utility.yul\":24455:24459   */\n      0x00\n        /* \"#utility.yul\":24601:24630   */\n      tag_521\n        /* \"#utility.yul\":24626:24629   */\n      dup4\n        /* \"#utility.yul\":24620:24624   */\n      dup4\n        /* \"#utility.yul\":24601:24630   */\n      tag_286\n      jump\t// in\n    tag_521:\n        /* \"#utility.yul\":24593:24630   */\n      swap2\n      pop\n        /* \"#utility.yul\":24663:24666   */\n      dup3\n        /* \"#utility.yul\":24660:24661   */\n      0x02\n        /* \"#utility.yul\":24656:24667   */\n      mul\n        /* \"#utility.yul\":24650:24654   */\n      dup3\n        /* \"#utility.yul\":24647:24668   */\n      or\n        /* \"#utility.yul\":24639:24668   */\n      swap1\n      pop\n        /* \"#utility.yul\":24379:24674   */\n      swap3\n      swap2\n      pop\n      pop\n      jump\t// out\n        /* \"#utility.yul\":24679:26074   */\n    tag_168:\n        /* \"#utility.yul\":24796:24833   */\n      tag_523\n        /* \"#utility.yul\":24829:24832   */\n      dup3\n        /* \"#utility.yul\":24796:24833   */\n      tag_236\n      jump\t// in\n    tag_523:\n        /* \"#utility.yul\":24898:24916   */\n      0xffffffffffffffff\n        /* \"#utility.yul\":24890:24896   */\n      dup2\n        /* \"#utility.yul\":24887:24917   */\n      gt\n        /* \"#utility.yul\":24884:24940   */\n      iszero\n      tag_524\n      jumpi\n        /* \"#utility.yul\":24920:24938   */\n      tag_525\n      tag_62\n      jump\t// in\n    tag_525:\n        /* \"#utility.yul\":24884:24940   */\n    tag_524:\n        /* \"#utility.yul\":24964:25002   */\n      tag_526\n        /* \"#utility.yul\":24996:25000   */\n      dup3\n        /* \"#utility.yul\":24990:25001   */\n      sload\n        /* \"#utility.yul\":24964:25002   */\n      tag_81\n      jump\t// in\n    tag_526:\n        /* \"#utility.yul\":25049:25116   */\n      tag_527\n        /* \"#utility.yul\":25109:25115   */\n      dup3\n        /* \"#utility.yul\":25101:25107   */\n      dup3\n        /* \"#utility.yul\":25095:25099   */\n      dup6\n        /* \"#utility.yul\":25049:25116   */\n      tag_284\n      jump\t// in\n    tag_527:\n        /* \"#utility.yul\":25143:25144   */\n      0x00\n        /* \"#utility.yul\":25167:25171   */\n      0x20\n        /* \"#utility.yul\":25154:25171   */\n      swap1\n      pop\n        /* \"#utility.yul\":25199:25201   */\n      0x1f\n        /* \"#utility.yul\":25191:25197   */\n      dup4\n        /* \"#utility.yul\":25188:25202   */\n      gt\n        /* \"#utility.yul\":25216:25217   */\n      0x01\n        /* \"#utility.yul\":25211:25829   */\n      dup2\n      eq\n      tag_529\n      jumpi\n        /* \"#utility.yul\":25873:25874   */\n      0x00\n        /* \"#utility.yul\":25890:25896   */\n      dup5\n        /* \"#utility.yul\":25887:25964   */\n      iszero\n      tag_530\n      jumpi\n        /* \"#utility.yul\":25939:25948   */\n      dup3\n        /* \"#utility.yul\":25934:25937   */\n      dup8\n        /* \"#utility.yul\":25930:25949   */\n      add\n        /* \"#utility.yul\":25924:25950   */\n      mload\n        /* \"#utility.yul\":25915:25950   */\n      swap1\n      pop\n        /* \"#utility.yul\":25887:25964   */\n    tag_530:\n        /* \"#utility.yul\":25990:26057   */\n      tag_531\n        /* \"#utility.yul\":26050:26056   */\n      dup6\n        /* \"#utility.yul\":26043:26048   */\n      dup3\n        /* \"#utility.yul\":25990:26057   */\n      tag_287\n      jump\t// in\n    tag_531:\n        /* \"#utility.yul\":25984:25988   */\n      dup7\n        /* \"#utility.yul\":25977:26058   */\n      sstore\n        /* \"#utility.yul\":25846:26068   */\n      pop\n        /* \"#utility.yul\":25181:26068   */\n      jump(tag_528)\n        /* \"#utility.yul\":25211:25829   */\n    tag_529:\n        /* \"#utility.yul\":25263:25267   */\n      0x1f\n        /* \"#utility.yul\":25259:25268   */\n      not\n        /* \"#utility.yul\":25251:25257   */\n      dup5\n        /* \"#utility.yul\":25247:25269   */\n      and\n        /* \"#utility.yul\":25297:25334   */\n      tag_532\n        /* \"#utility.yul\":25329:25333   */\n      dup7\n        /* \"#utility.yul\":25297:25334   */\n      tag_272\n      jump\t// in\n    tag_532:\n        /* \"#utility.yul\":25356:25357   */\n      0x00\n        /* \"#utility.yul\":25370:25578   */\n    tag_533:\n        /* \"#utility.yul\":25384:25391   */\n      dup3\n        /* \"#utility.yul\":25381:25382   */\n      dup2\n        /* \"#utility.yul\":25378:25392   */\n      lt\n        /* \"#utility.yul\":25370:25578   */\n      iszero\n      tag_535\n      jumpi\n        /* \"#utility.yul\":25463:25472   */\n      dup5\n        /* \"#utility.yul\":25458:25461   */\n      dup10\n        /* \"#utility.yul\":25454:25473   */\n      add\n        /* \"#utility.yul\":25448:25474   */\n      mload\n        /* \"#utility.yul\":25440:25446   */\n      dup3\n        /* \"#utility.yul\":25433:25475   */\n      sstore\n        /* \"#utility.yul\":25514:25515   */\n      0x01\n        /* \"#utility.yul\":25506:25512   */\n      dup3\n        /* \"#utility.yul\":25502:25516   */\n      add\n        /* \"#utility.yul\":25492:25516   */\n      swap2\n      pop\n        /* \"#utility.yul\":25561:25563   */\n      0x20\n        /* \"#utility.yul\":25550:25559   */\n      dup6\n        /* \"#utility.yul\":25546:25564   */\n      add\n        /* \"#utility.yul\":25533:25564   */\n      swap5\n      pop\n        /* \"#utility.yul\":25407:25411   */\n      0x20\n        /* \"#utility.yul\":25404:25405   */\n      dup2\n        /* \"#utility.yul\":25400:25412   */\n      add\n        /* \"#utility.yul\":25395:25412   */\n      swap1\n      pop\n        /* \"#utility.yul\":25370:25578   */\n      jump(tag_533)\n    tag_535:\n        /* \"#utility.yul\":25606:25612   */\n      dup7\n        /* \"#utility.yul\":25597:25604   */\n      dup4\n        /* \"#utility.yul\":25594:25613   */\n      lt\n        /* \"#utility.yul\":25591:25770   */\n      iszero\n      tag_536\n      jumpi\n        /* \"#utility.yul\":25664:25673   */\n      dup5\n        /* \"#utility.yul\":25659:25662   */\n      dup10\n        /* \"#utility.yul\":25655:25674   */\n      add\n        /* \"#utility.yul\":25649:25675   */\n      mload\n        /* \"#utility.yul\":25707:25755   */\n      tag_537\n        /* \"#utility.yul\":25749:25753   */\n      0x1f\n        /* \"#utility.yul\":25741:25747   */\n      dup10\n        /* \"#utility.yul\":25737:25754   */\n      and\n        /* \"#utility.yul\":25726:25735   */\n      dup3\n        /* \"#utility.yul\":25707:25755   */\n      tag_286\n      jump\t// in\n    tag_537:\n        /* \"#utility.yul\":25699:25705   */\n      dup4\n        /* \"#utility.yul\":25692:25756   */\n      sstore\n        /* \"#utility.yul\":25614:25770   */\n      pop\n        /* \"#utility.yul\":25591:25770   */\n    tag_536:\n        /* \"#utility.yul\":25816:25817   */\n      0x01\n        /* \"#utility.yul\":25812:25813   */\n      0x02\n        /* \"#utility.yul\":25804:25810   */\n      dup9\n        /* \"#utility.yul\":25800:25814   */\n      mul\n        /* \"#utility.yul\":25796:25818   */\n      add\n        /* \"#utility.yul\":25790:25794   */\n      dup9\n        /* \"#utility.yul\":25783:25819   */\n      sstore\n        /* \"#utility.yul\":25218:25829   */\n      pop\n      pop\n      pop\n        /* \"#utility.yul\":25181:26068   */\n    tag_528:\n      pop\n        /* \"#utility.yul\":24771:26074   */\n      pop\n      pop\n      pop\n        /* \"#utility.yul\":24679:26074   */\n      pop\n      pop\n      jump\t// out\n        /* \"#utility.yul\":26080:26271   */\n    tag_193:\n        /* \"#utility.yul\":26120:26123   */\n      0x00\n        /* \"#utility.yul\":26139:26159   */\n      tag_539\n        /* \"#utility.yul\":26157:26158   */\n      dup3\n        /* \"#utility.yul\":26139:26159   */\n      tag_276\n      jump\t// in\n    tag_539:\n        /* \"#utility.yul\":26134:26159   */\n      swap2\n      pop\n        /* \"#utility.yul\":26173:26193   */\n      tag_540\n        /* \"#utility.yul\":26191:26192   */\n      dup4\n        /* \"#utility.yul\":26173:26193   */\n      tag_276\n      jump\t// in\n    tag_540:\n        /* \"#utility.yul\":26168:26193   */\n      swap3\n      pop\n        /* \"#utility.yul\":26216:26217   */\n      dup3\n        /* \"#utility.yul\":26213:26214   */\n      dup3\n        /* \"#utility.yul\":26209:26218   */\n      add\n        /* \"#utility.yul\":26202:26218   */\n      swap1\n      pop\n        /* \"#utility.yul\":26237:26240   */\n      dup1\n        /* \"#utility.yul\":26234:26235   */\n      dup3\n        /* \"#utility.yul\":26231:26241   */\n      gt\n        /* \"#utility.yul\":26228:26264   */\n      iszero\n      tag_541\n      jumpi\n        /* \"#utility.yul\":26244:26262   */\n      tag_542\n      tag_271\n      jump\t// in\n    tag_542:\n        /* \"#utility.yul\":26228:26264   */\n    tag_541:\n        /* \"#utility.yul\":26080:26271   */\n      swap3\n      swap2\n      pop\n      pop\n      jump\t// out\n        /* \"#utility.yul\":26277:26374   */\n    tag_288:\n        /* \"#utility.yul\":26336:26342   */\n      0x00\n        /* \"#utility.yul\":26364:26367   */\n      dup3\n        /* \"#utility.yul\":26354:26367   */\n      swap1\n      pop\n        /* \"#utility.yul\":26277:26374   */\n      swap3\n      swap2\n      pop\n      pop\n      jump\t// out\n        /* \"#utility.yul\":26380:27783   */\n    tag_213:\n        /* \"#utility.yul\":26504:26548   */\n      tag_545\n        /* \"#utility.yul\":26544:26547   */\n      dup4\n        /* \"#utility.yul\":26539:26542   */\n      dup4\n        /* \"#utility.yul\":26504:26548   */\n      tag_288\n      jump\t// in\n    tag_545:\n        /* \"#utility.yul\":26613:26631   */\n      0xffffffffffffffff\n        /* \"#utility.yul\":26605:26611   */\n      dup2\n        /* \"#utility.yul\":26602:26632   */\n      gt\n        /* \"#utility.yul\":26599:26655   */\n      iszero\n      tag_546\n      jumpi\n        /* \"#utility.yul\":26635:26653   */\n      tag_547\n      tag_62\n      jump\t// in\n    tag_547:\n        /* \"#utility.yul\":26599:26655   */\n    tag_546:\n        /* \"#utility.yul\":26679:26717   */\n      tag_548\n        /* \"#utility.yul\":26711:26715   */\n      dup3\n        /* \"#utility.yul\":26705:26716   */\n      sload\n        /* \"#utility.yul\":26679:26717   */\n      tag_81\n      jump\t// in\n    tag_548:\n        /* \"#utility.yul\":26764:26831   */\n      tag_549\n        /* \"#utility.yul\":26824:26830   */\n      dup3\n        /* \"#utility.yul\":26816:26822   */\n      dup3\n        /* \"#utility.yul\":26810:26814   */\n      dup6\n        /* \"#utility.yul\":26764:26831   */\n      tag_284\n      jump\t// in\n    tag_549:\n        /* \"#utility.yul\":26858:26859   */\n      0x00\n        /* \"#utility.yul\":26887:26889   */\n      0x1f\n        /* \"#utility.yul\":26879:26885   */\n      dup4\n        /* \"#utility.yul\":26876:26890   */\n      gt\n        /* \"#utility.yul\":26904:26905   */\n      0x01\n        /* \"#utility.yul\":26899:27531   */\n      dup2\n      eq\n      tag_551\n      jumpi\n        /* \"#utility.yul\":27575:27576   */\n      0x00\n        /* \"#utility.yul\":27592:27598   */\n      dup5\n        /* \"#utility.yul\":27589:27673   */\n      iszero\n      tag_552\n      jumpi\n        /* \"#utility.yul\":27648:27657   */\n      dup3\n        /* \"#utility.yul\":27643:27646   */\n      dup8\n        /* \"#utility.yul\":27639:27658   */\n      add\n        /* \"#utility.yul\":27626:27659   */\n      calldataload\n        /* \"#utility.yul\":27617:27659   */\n      swap1\n      pop\n        /* \"#utility.yul\":27589:27673   */\n    tag_552:\n        /* \"#utility.yul\":27699:27766   */\n      tag_553\n        /* \"#utility.yul\":27759:27765   */\n      dup6\n        /* \"#utility.yul\":27752:27757   */\n      dup3\n        /* \"#utility.yul\":27699:27766   */\n      tag_287\n      jump\t// in\n    tag_553:\n        /* \"#utility.yul\":27693:27697   */\n      dup7\n        /* \"#utility.yul\":27686:27767   */\n      sstore\n        /* \"#utility.yul\":27548:27777   */\n      pop\n        /* \"#utility.yul\":26869:27777   */\n      jump(tag_550)\n        /* \"#utility.yul\":26899:27531   */\n    tag_551:\n        /* \"#utility.yul\":26951:26955   */\n      0x1f\n        /* \"#utility.yul\":26947:26956   */\n      not\n        /* \"#utility.yul\":26939:26945   */\n      dup5\n        /* \"#utility.yul\":26935:26957   */\n      and\n        /* \"#utility.yul\":26985:27022   */\n      tag_554\n        /* \"#utility.yul\":27017:27021   */\n      dup7\n        /* \"#utility.yul\":26985:27022   */\n      tag_272\n      jump\t// in\n    tag_554:\n        /* \"#utility.yul\":27044:27045   */\n      0x00\n        /* \"#utility.yul\":27058:27273   */\n    tag_555:\n        /* \"#utility.yul\":27072:27079   */\n      dup3\n        /* \"#utility.yul\":27069:27070   */\n      dup2\n        /* \"#utility.yul\":27066:27080   */\n      lt\n        /* \"#utility.yul\":27058:27273   */\n      iszero\n      tag_557\n      jumpi\n        /* \"#utility.yul\":27158:27167   */\n      dup5\n        /* \"#utility.yul\":27153:27156   */\n      dup10\n        /* \"#utility.yul\":27149:27168   */\n      add\n        /* \"#utility.yul\":27136:27169   */\n      calldataload\n        /* \"#utility.yul\":27128:27134   */\n      dup3\n        /* \"#utility.yul\":27121:27170   */\n      sstore\n        /* \"#utility.yul\":27209:27210   */\n      0x01\n        /* \"#utility.yul\":27201:27207   */\n      dup3\n        /* \"#utility.yul\":27197:27211   */\n      add\n        /* \"#utility.yul\":27187:27211   */\n      swap2\n      pop\n        /* \"#utility.yul\":27256:27258   */\n      0x20\n        /* \"#utility.yul\":27245:27254   */\n      dup6\n        /* \"#utility.yul\":27241:27259   */\n      add\n        /* \"#utility.yul\":27228:27259   */\n      swap5\n      pop\n        /* \"#utility.yul\":27095:27099   */\n      0x20\n        /* \"#utility.yul\":27092:27093   */\n      dup2\n        /* \"#utility.yul\":27088:27100   */\n      add\n        /* \"#utility.yul\":27083:27100   */\n      swap1\n      pop\n        /* \"#utility.yul\":27058:27273   */\n      jump(tag_555)\n    tag_557:\n        /* \"#utility.yul\":27301:27307   */\n      dup7\n        /* \"#utility.yul\":27292:27299   */\n      dup4\n        /* \"#utility.yul\":27289:27308   */\n      lt\n        /* \"#utility.yul\":27286:27472   */\n      iszero\n      tag_558\n      jumpi\n        /* \"#utility.yul\":27366:27375   */\n      dup5\n        /* \"#utility.yul\":27361:27364   */\n      dup10\n        /* \"#utility.yul\":27357:27376   */\n      add\n        /* \"#utility.yul\":27344:27377   */\n      calldataload\n        /* \"#utility.yul\":27409:27457   */\n      tag_559\n        /* \"#utility.yul\":27451:27455   */\n      0x1f\n        /* \"#utility.yul\":27443:27449   */\n      dup10\n        /* \"#utility.yul\":27439:27456   */\n      and\n        /* \"#utility.yul\":27428:27437   */\n      dup3\n        /* \"#utility.yul\":27409:27457   */\n      tag_286\n      jump\t// in\n    tag_559:\n        /* \"#utility.yul\":27401:27407   */\n      dup4\n        /* \"#utility.yul\":27394:27458   */\n      sstore\n        /* \"#utility.yul\":27309:27472   */\n      pop\n        /* \"#utility.yul\":27286:27472   */\n    tag_558:\n        /* \"#utility.yul\":27518:27519   */\n      0x01\n        /* \"#utility.yul\":27514:27515   */\n      0x02\n        /* \"#utility.yul\":27506:27512   */\n      dup9\n        /* \"#utility.yul\":27502:27516   */\n      mul\n        /* \"#utility.yul\":27498:27520   */\n      add\n        /* \"#utility.yul\":27492:27496   */\n      dup9\n        /* \"#utility.yul\":27485:27521   */\n      sstore\n        /* \"#utility.yul\":26906:27531   */\n      pop\n      pop\n      pop\n        /* \"#utility.yul\":26869:27777   */\n    tag_550:\n      pop\n        /* \"#utility.yul\":26479:27783   */\n      pop\n      pop\n      pop\n        /* \"#utility.yul\":26380:27783   */\n      pop\n      pop\n      pop\n      jump\t// out\n\n    auxdata: 0xa26469706673582212201299863cdc383f7634c31dfcb1cc4398772972237625a74db8307c141fad185e64736f6c634300081e0033\n}\n",
				"bytecode": {
					"linkReferences": {},
					"object": "6080604052348015600e575f5ffd5b506129b38061001c5f395ff3fe608060405234801561000f575f5ffd5b506004361061009c575f3560e01c806388c952cb1161006457806388c952cb146101745780638fd421631461019057806395fb43fe146101c0578063ba6eae82146101dc578063bfbb42041461020c5761009c565b806336f32373146100a057806351bb8110146100d0578063556b22c11461010057806362e915151461011e57806371ad72211461013c575b5f5ffd5b6100ba60048036038101906100b59190611bf9565b610228565b6040516100c79190611ea4565b60405180910390f35b6100ea60048036038101906100e59190611eee565b610331565b6040516100f79190612005565b60405180910390f35b61010861073c565b6040516101159190612034565b60405180910390f35b610126610754565b6040516101339190611ea4565b60405180910390f35b61015660048036038101906101519190611bf9565b610825565b60405161016b99989796959493929190612135565b60405180910390f35b61018e600480360381019061018991906121ff565b610b05565b005b6101aa60048036038101906101a5919061229e565b610bb6565b6040516101b79190612034565b60405180910390f35b6101da60048036038101906101d59190612352565b61135c565b005b6101f660048036038101906101f19190611bf9565b611774565b6040516102039190611ea4565b60405180910390f35b6102266004803603810190610221919061244f565b61187d565b005b60605f60045f8473ffffffffffffffffffffffffffffffffffffffff1673ffffffffffffffffffffffffffffffffffffffff1681526020019081526020015f2090505f818054905090505f8167ffffffffffffffff81111561028d5761028c6124e0565b5b6040519080825280602002602001820160405280156102c657816020015b6102b3611b02565b8152602001906001900390816102ab5790505b5090505f5f90505b82811015610325576102fa8482815481106102ec576102eb61250d565b5b905f5260205f200154610331565b82828151811061030d5761030c61250d565b5b602002602001018190525080806001019150506102ce565b50809350505050919050565b610339611b02565b5f60015f8463ffffffff1681526020019081526020015f2090508060060160109054906101000a900460ff1661039b576040517f3e07f1a100000000000000000000000000000000000000000000000000000000815260040160405180910390fd5b80604051806101400160405290815f82015f9054906101000a900463ffffffff1663ffffffff1663ffffffff1681526020015f820160049054906101000a900473ffffffffffffffffffffffffffffffffffffffff1673ffffffffffffffffffffffffffffffffffffffff1673ffffffffffffffffffffffffffffffffffffffff16815260200160018201805461043190612567565b80601f016020809104026020016040519081016040528092919081815260200182805461045d90612567565b80156104a85780601f1061047f576101008083540402835291602001916104a8565b820191905f5260205f20905b81548152906001019060200180831161048b57829003601f168201915b50505050508152602001600282015f9054906101000a900473ffffffffffffffffffffffffffffffffffffffff1673ffffffffffffffffffffffffffffffffffffffff1673ffffffffffffffffffffffffffffffffffffffff16815260200160038201805461051690612567565b80601f016020809104026020016040519081016040528092919081815260200182805461054290612567565b801561058d5780601f106105645761010080835404028352916020019161058d565b820191905f5260205f20905b81548152906001019060200180831161057057829003601f168201915b505050505081526020016004820180546105a690612567565b80601f01602080910402602001604051908101604052809291908181526020018280546105d290612567565b801561061d5780601f106105f45761010080835404028352916020019161061d565b820191905f5260205f20905b81548152906001019060200180831161060057829003601f168201915b5050505050815260200160058201805461063690612567565b80601f016020809104026020016040519081016040528092919081815260200182805461066290612567565b80156106ad5780601f10610684576101008083540402835291602001916106ad565b820191905f5260205f20905b81548152906001019060200180831161069057829003601f168201915b50505050508152602001600682015f9054906101000a900467ffffffffffffffff1667ffffffffffffffff1667ffffffffffffffff1681526020016006820160089054906101000a900467ffffffffffffffff1667ffffffffffffffff1667ffffffffffffffff1681526020016006820160109054906101000a900460ff161515151581525050915050919050565b5f60025f9054906101000a900463ffffffff16905090565b606061075f336119c2565b5f60058054905090505f8167ffffffffffffffff811115610783576107826124e0565b5b6040519080825280602002602001820160405280156107bc57816020015b6107a9611b02565b8152602001906001900390816107a15790505b5090505f5f90505b8281101561081c576107f1600582815481106107e3576107e261250d565b5b905f5260205f200154610331565b8282815181106108045761080361250d565b5b602002602001018190525080806001019150506107c4565b50809250505090565b5f5f60605f6060805f5f5f5f5f5f8c73ffffffffffffffffffffffffffffffffffffffff1673ffffffffffffffffffffffffffffffffffffffff1681526020019081526020015f20905080600501600a9054906101000a900460ff166108b7576040517f670a68cc00000000000000000000000000000000000000000000000000000000815260040160405180910390fd5b805f015f9054906101000a900473ffffffffffffffffffffffffffffffffffffffff16815f0160149054906101000a900460ff1682600101836002015f9054906101000a900463ffffffff168460030185600401866005015f9054906101000a900460ff168760050160019054906101000a900460ff168860050160029054906101000a900467ffffffffffffffff1686805461095390612567565b80601f016020809104026020016040519081016040528092919081815260200182805461097f90612567565b80156109ca5780601f106109a1576101008083540402835291602001916109ca565b820191905f5260205f20905b8154815290600101906020018083116109ad57829003601f168201915b505050505096508480546109dd90612567565b80601f0160208091040260200160405190810160405280929190818152602001828054610a0990612567565b8015610a545780601f10610a2b57610100808354040283529160200191610a54565b820191905f5260205f20905b815481529060010190602001808311610a3757829003601f168201915b50505050509450838054610a6790612567565b80601f0160208091040260200160405190810160405280929190818152602001828054610a9390612567565b8015610ade5780601f10610ab557610100808354040283529160200191610ade565b820191905f5260205f20905b815481529060010190602001808311610ac157829003601f168201915b50505050509350995099509950995099509950995099509950509193959799909294969850565b610b0e336119c2565b5f5f5f8473ffffffffffffffffffffffffffffffffffffffff1673ffffffffffffffffffffffffffffffffffffffff1681526020019081526020015f20905080600501600a9054906101000a900460ff16610b95576040517f670a68cc00000000000000000000000000000000000000000000000000000000815260040160405180910390fd5b818160050160016101000a81548160ff021916908315150217905550505050565b5f5f5f5f3373ffffffffffffffffffffffffffffffffffffffff1673ffffffffffffffffffffffffffffffffffffffff1681526020019081526020015f20905080600501600a9054906101000a900460ff16610c3e576040517f670a68cc00000000000000000000000000000000000000000000000000000000815260040160405180910390fd5b60016002811115610c5257610c5161205c565b5b815f0160149054906101000a900460ff166002811115610c7557610c7461205c565b5b14610cac576040517fd954416a00000000000000000000000000000000000000000000000000000000815260040160405180910390fd5b8060050160019054906101000a900460ff16610cf4576040517f3310e69100000000000000000000000000000000000000000000000000000000815260040160405180910390fd5b5f5f5f8973ffffffffffffffffffffffffffffffffffffffff1673ffffffffffffffffffffffffffffffffffffffff1681526020019081526020015f20905080600501600a9054906101000a900460ff16610d7b576040517f670a68cc00000000000000000000000000000000000000000000000000000000815260040160405180910390fd5b600280811115610d8e57610d8d61205c565b5b815f0160149054906101000a900460ff166002811115610db157610db061205c565b5b14610de8576040517fd954416a00000000000000000000000000000000000000000000000000000000815260040160405180910390fd5b8060050160019054906101000a900460ff16610e30576040517f3310e69100000000000000000000000000000000000000000000000000000000815260040160405180910390fd5b600160025f8282829054906101000a900463ffffffff16610e5191906125c4565b92506101000a81548163ffffffff021916908363ffffffff1602179055505f60025f9054906101000a900463ffffffff1690505f4290506040518061014001604052808363ffffffff1681526020018b73ffffffffffffffffffffffffffffffffffffffff168152602001846001018054610ecb90612567565b80601f0160208091040260200160405190810160405280929190818152602001828054610ef790612567565b8015610f425780601f10610f1957610100808354040283529160200191610f42565b820191905f5260205f20905b815481529060010190602001808311610f2557829003601f168201915b505050505081526020013373ffffffffffffffffffffffffffffffffffffffff168152602001856001018054610f7790612567565b80601f0160208091040260200160405190810160405280929190818152602001828054610fa390612567565b8015610fee5780601f10610fc557610100808354040283529160200191610fee565b820191905f5260205f20905b815481529060010190602001808311610fd157829003601f168201915b505050505081526020018a8a8080601f0160208091040260200160405190810160405280939291908181526020018383808284375f81840152601f19601f82011690508083019250505050505050815260200188888080601f0160208091040260200160405190810160405280939291908181526020018383808284375f81840152601f19601f8201169050808301925050505050505081526020018267ffffffffffffffff1681526020018267ffffffffffffffff1681526020016001151581525060015f8463ffffffff1681526020019081526020015f205f820151815f015f6101000a81548163ffffffff021916908363ffffffff1602179055506020820151815f0160046101000a81548173ffffffffffffffffffffffffffffffffffffffff021916908373ffffffffffffffffffffffffffffffffffffffff160217905550604082015181600101908161114791906127a4565b506060820151816002015f6101000a81548173ffffffffffffffffffffffffffffffffffffffff021916908373ffffffffffffffffffffffffffffffffffffffff16021790555060808201518160030190816111a391906127a4565b5060a08201518160040190816111b991906127a4565b5060c08201518160050190816111cf91906127a4565b5060e0820151816006015f6101000a81548167ffffffffffffffff021916908367ffffffffffffffff1602179055506101008201518160060160086101000a81548167ffffffffffffffff021916908367ffffffffffffffff1602179055506101208201518160060160106101000a81548160ff02191690831515021790555090505060035f8b73ffffffffffffffffffffffffffffffffffffffff1673ffffffffffffffffffffffffffffffffffffffff1681526020019081526020015f2082908060018154018082558091505060019003905f5260205f20015f909163ffffffff1690919091505560045f3373ffffffffffffffffffffffffffffffffffffffff1673ffffffffffffffffffffffffffffffffffffffff1681526020019081526020015f2082908060018154018082558091505060019003905f5260205f20015f909163ffffffff16909190915055600582908060018154018082558091505060019003905f5260205f20015f909163ffffffff169091909150558194505050505095945050505050565b5f60065411156113745761136f336119c2565b6113d2565b5f60028111156113875761138661205c565b5b89600281111561139a5761139961205c565b5b146113d1576040517f82b4290000000000000000000000000000000000000000000000000000000000815260040160405180910390fd5b5b5f5f8b73ffffffffffffffffffffffffffffffffffffffff1673ffffffffffffffffffffffffffffffffffffffff1681526020019081526020015f20600501600a9054906101000a900460ff1615611456576040517f23369fa600000000000000000000000000000000000000000000000000000000815260040160405180910390fd5b6040518061014001604052808b73ffffffffffffffffffffffffffffffffffffffff1681526020018a60028111156114915761149061205c565b5b815260200189898080601f0160208091040260200160405190810160405280939291908181526020018383808284375f81840152601f19601f8201169050808301925050505050505081526020018763ffffffff16815260200186868080601f0160208091040260200160405190810160405280939291908181526020018383808284375f81840152601f19601f82011690508083019250505050505050815260200184848080601f0160208091040260200160405190810160405280939291908181526020018383808284375f81840152601f19601f82011690508083019250505050505050815260200182151581526020016001151581526020014267ffffffffffffffff168152602001600115158152505f5f8c73ffffffffffffffffffffffffffffffffffffffff1673ffffffffffffffffffffffffffffffffffffffff1681526020019081526020015f205f820151815f015f6101000a81548173ffffffffffffffffffffffffffffffffffffffff021916908373ffffffffffffffffffffffffffffffffffffffff1602179055506020820151815f0160146101000a81548160ff0219169083600281111561164f5761164e61205c565b5b0217905550604082015181600101908161166991906127a4565b506060820151816002015f6101000a81548163ffffffff021916908363ffffffff16021790555060808201518160030190816116a591906127a4565b5060a08201518160040190816116bb91906127a4565b5060c0820151816005015f6101000a81548160ff02191690831515021790555060e08201518160050160016101000a81548160ff0219169083151502179055506101008201518160050160026101000a81548167ffffffffffffffff021916908367ffffffffffffffff16021790555061012082015181600501600a6101000a81548160ff021916908315150217905550905050600160065f8282546117619190612873565b9250508190555050505050505050505050565b60605f60035f8473ffffffffffffffffffffffffffffffffffffffff1673ffffffffffffffffffffffffffffffffffffffff1681526020019081526020015f2090505f818054905090505f8167ffffffffffffffff8111156117d9576117d86124e0565b5b60405190808252806020026020018201604052801561181257816020015b6117ff611b02565b8152602001906001900390816117f75790505b5090505f5f90505b82811015611871576118468482815481106118385761183761250d565b5b905f5260205f200154610331565b8282815181106118595761185861250d565b5b6020026020010181905250808060010191505061181a565b50809350505050919050565b5f60015f8763ffffffff1681526020019081526020015f2090508060060160109054906101000a900460ff166118df576040517f3e07f1a100000000000000000000000000000000000000000000000000000000815260040160405180910390fd5b3373ffffffffffffffffffffffffffffffffffffffff16816002015f9054906101000a900473ffffffffffffffffffffffffffffffffffffffff1673ffffffffffffffffffffffffffffffffffffffff1614611967576040517f82b4290000000000000000000000000000000000000000000000000000000000815260040160405180910390fd5b848482600401918261197a9291906128b0565b50828282600501918261198e9291906128b0565b50428160060160086101000a81548167ffffffffffffffff021916908367ffffffffffffffff160217905550505050505050565b5f5f5f8373ffffffffffffffffffffffffffffffffffffffff1673ffffffffffffffffffffffffffffffffffffffff1681526020019081526020015f20905080600501600a9054906101000a900460ff16611a49576040517f670a68cc00000000000000000000000000000000000000000000000000000000815260040160405180910390fd5b5f6002811115611a5c57611a5b61205c565b5b815f0160149054906101000a900460ff166002811115611a7f57611a7e61205c565b5b14611ab6576040517f82b4290000000000000000000000000000000000000000000000000000000000815260040160405180910390fd5b8060050160019054906101000a900460ff16611afe576040517f3310e69100000000000000000000000000000000000000000000000000000000815260040160405180910390fd5b5050565b6040518061014001604052805f63ffffffff1681526020015f73ffffffffffffffffffffffffffffffffffffffff168152602001606081526020015f73ffffffffffffffffffffffffffffffffffffffff1681526020016060815260200160608152602001606081526020015f67ffffffffffffffff1681526020015f67ffffffffffffffff1681526020015f151581525090565b5f5ffd5b5f5ffd5b5f73ffffffffffffffffffffffffffffffffffffffff82169050919050565b5f611bc882611b9f565b9050919050565b611bd881611bbe565b8114611be2575f5ffd5b50565b5f81359050611bf381611bcf565b92915050565b5f60208284031215611c0e57611c0d611b97565b5b5f611c1b84828501611be5565b91505092915050565b5f81519050919050565b5f82825260208201905092915050565b5f819050602082019050919050565b5f63ffffffff82169050919050565b611c6581611c4d565b82525050565b611c7481611bbe565b82525050565b5f81519050919050565b5f82825260208201905092915050565b8281835e5f83830152505050565b5f601f19601f8301169050919050565b5f611cbc82611c7a565b611cc68185611c84565b9350611cd6818560208601611c94565b611cdf81611ca2565b840191505092915050565b5f67ffffffffffffffff82169050919050565b611d0681611cea565b82525050565b5f8115159050919050565b611d2081611d0c565b82525050565b5f61014083015f830151611d3c5f860182611c5c565b506020830151611d4f6020860182611c6b565b5060408301518482036040860152611d678282611cb2565b9150506060830151611d7c6060860182611c6b565b5060808301518482036080860152611d948282611cb2565b91505060a083015184820360a0860152611dae8282611cb2565b91505060c083015184820360c0860152611dc88282611cb2565b91505060e0830151611ddd60e0860182611cfd565b50610100830151611df2610100860182611cfd565b50610120830151611e07610120860182611d17565b508091505092915050565b5f611e1d8383611d26565b905092915050565b5f602082019050919050565b5f611e3b82611c24565b611e458185611c2e565b935083602082028501611e5785611c3e565b805f5b85811015611e925784840389528151611e738582611e12565b9450611e7e83611e25565b925060208a01995050600181019050611e5a565b50829750879550505050505092915050565b5f6020820190508181035f830152611ebc8184611e31565b905092915050565b611ecd81611c4d565b8114611ed7575f5ffd5b50565b5f81359050611ee881611ec4565b92915050565b5f60208284031215611f0357611f02611b97565b5b5f611f1084828501611eda565b91505092915050565b5f61014083015f830151611f2f5f860182611c5c565b506020830151611f426020860182611c6b565b5060408301518482036040860152611f5a8282611cb2565b9150506060830151611f6f6060860182611c6b565b5060808301518482036080860152611f878282611cb2565b91505060a083015184820360a0860152611fa18282611cb2565b91505060c083015184820360c0860152611fbb8282611cb2565b91505060e0830151611fd060e0860182611cfd565b50610100830151611fe5610100860182611cfd565b50610120830151611ffa610120860182611d17565b508091505092915050565b5f6020820190508181035f83015261201d8184611f19565b905092915050565b61202e81611c4d565b82525050565b5f6020820190506120475f830184612025565b92915050565b61205681611bbe565b82525050565b7f4e487b71000000000000000000000000000000000000000000000000000000005f52602160045260245ffd5b6003811061209a5761209961205c565b5b50565b5f8190506120aa82612089565b919050565b5f6120b98261209d565b9050919050565b6120c9816120af565b82525050565b5f82825260208201905092915050565b5f6120e982611c7a565b6120f381856120cf565b9350612103818560208601611c94565b61210c81611ca2565b840191505092915050565b61212081611d0c565b82525050565b61212f81611cea565b82525050565b5f610120820190506121495f83018c61204d565b612156602083018b6120c0565b8181036040830152612168818a6120df565b90506121776060830189612025565b818103608083015261218981886120df565b905081810360a083015261219d81876120df565b90506121ac60c0830186612117565b6121b960e0830185612117565b6121c7610100830184612126565b9a9950505050505050505050565b6121de81611d0c565b81146121e8575f5ffd5b50565b5f813590506121f9816121d5565b92915050565b5f5f6040838503121561221557612214611b97565b5b5f61222285828601611be5565b9250506020612233858286016121eb565b9150509250929050565b5f5ffd5b5f5ffd5b5f5ffd5b5f5f83601f84011261225e5761225d61223d565b5b8235905067ffffffffffffffff81111561227b5761227a612241565b5b60208301915083600182028301111561229757612296612245565b5b9250929050565b5f5f5f5f5f606086880312156122b7576122b6611b97565b5b5f6122c488828901611be5565b955050602086013567ffffffffffffffff8111156122e5576122e4611b9b565b5b6122f188828901612249565b9450945050604086013567ffffffffffffffff81111561231457612313611b9b565b5b61232088828901612249565b92509250509295509295909350565b6003811061233b575f5ffd5b50565b5f8135905061234c8161232f565b92915050565b5f5f5f5f5f5f5f5f5f5f60e08b8d0312156123705761236f611b97565b5b5f61237d8d828e01611be5565b9a5050602061238e8d828e0161233e565b99505060408b013567ffffffffffffffff8111156123af576123ae611b9b565b5b6123bb8d828e01612249565b985098505060606123ce8d828e01611eda565b96505060808b013567ffffffffffffffff8111156123ef576123ee611b9b565b5b6123fb8d828e01612249565b955095505060a08b013567ffffffffffffffff81111561241e5761241d611b9b565b5b61242a8d828e01612249565b935093505060c061243d8d828e016121eb565b9150509295989b9194979a5092959850565b5f5f5f5f5f6060868803121561246857612467611b97565b5b5f61247588828901611eda565b955050602086013567ffffffffffffffff81111561249657612495611b9b565b5b6124a288828901612249565b9450945050604086013567ffffffffffffffff8111156124c5576124c4611b9b565b5b6124d188828901612249565b92509250509295509295909350565b7f4e487b71000000000000000000000000000000000000000000000000000000005f52604160045260245ffd5b7f4e487b71000000000000000000000000000000000000000000000000000000005f52603260045260245ffd5b7f4e487b71000000000000000000000000000000000000000000000000000000005f52602260045260245ffd5b5f600282049050600182168061257e57607f821691505b6020821081036125915761259061253a565b5b50919050565b7f4e487b71000000000000000000000000000000000000000000000000000000005f52601160045260245ffd5b5f6125ce82611c4d565b91506125d983611c4d565b9250828201905063ffffffff8111156125f5576125f4612597565b5b92915050565b5f819050815f5260205f209050919050565b5f6020601f8301049050919050565b5f82821b905092915050565b5f600883026126577fffffffffffffffffffffffffffffffffffffffffffffffffffffffffffffffff8261261c565b612661868361261c565b95508019841693508086168417925050509392505050565b5f819050919050565b5f819050919050565b5f6126a56126a061269b84612679565b612682565b612679565b9050919050565b5f819050919050565b6126be8361268b565b6126d26126ca826126ac565b848454612628565b825550505050565b5f5f905090565b6126e96126da565b6126f48184846126b5565b505050565b5b818110156127175761270c5f826126e1565b6001810190506126fa565b5050565b601f82111561275c5761272d816125fb565b6127368461260d565b81016020851015612745578190505b6127596127518561260d565b8301826126f9565b50505b505050565b5f82821c905092915050565b5f61277c5f1984600802612761565b1980831691505092915050565b5f612794838361276d565b9150826002028217905092915050565b6127ad82611c7a565b67ffffffffffffffff8111156127c6576127c56124e0565b5b6127d08254612567565b6127db82828561271b565b5f60209050601f83116001811461280c575f84156127fa578287015190505b6128048582612789565b86555061286b565b601f19841661281a866125fb565b5f5b828110156128415784890151825560018201915060208501945060208101905061281c565b8683101561285e578489015161285a601f89168261276d565b8355505b6001600288020188555050505b505050505050565b5f61287d82612679565b915061288883612679565b92508282019050808211156128a05761289f612597565b5b92915050565b5f82905092915050565b6128ba83836128a6565b67ffffffffffffffff8111156128d3576128d26124e0565b5b6128dd8254612567565b6128e882828561271b565b5f601f831160018114612915575f8415612903578287013590505b61290d8582612789565b865550612974565b601f198416612923866125fb565b5f5b8281101561294a57848901358255600182019150602085019450602081019050612925565b868310156129675784890135612963601f89168261276d565b8355505b6001600288020188555050505b5050505050505056fea26469706673582212201299863cdc383f7634c31dfcb1cc4398772972237625a74db8307c141fad185e64736f6c634300081e0033",
					"opcodes": "PUSH1 0x80 PUSH1 0x40 MSTORE CALLVALUE DUP1 ISZERO PUSH1 0xE JUMPI PUSH0 PUSH0 REVERT JUMPDEST POP PUSH2 0x29B3 DUP1 PUSH2 0x1C PUSH0 CODECOPY PUSH0 RETURN INVALID PUSH1 0x80 PUSH1 0x40 MSTORE CALLVALUE DUP1 ISZERO PUSH2 0xF JUMPI PUSH0 PUSH0 REVERT JUMPDEST POP PUSH1 0x4 CALLDATASIZE LT PUSH2 0x9C JUMPI PUSH0 CALLDATALOAD PUSH1 0xE0 SHR DUP1 PUSH4 0x88C952CB GT PUSH2 0x64 JUMPI DUP1 PUSH4 0x88C952CB EQ PUSH2 0x174 JUMPI DUP1 PUSH4 0x8FD42163 EQ PUSH2 0x190 JUMPI DUP1 PUSH4 0x95FB43FE EQ PUSH2 0x1C0 JUMPI DUP1 PUSH4 0xBA6EAE82 EQ PUSH2 0x1DC JUMPI DUP1 PUSH4 0xBFBB4204 EQ PUSH2 0x20C JUMPI PUSH2 0x9C JUMP JUMPDEST DUP1 PUSH4 0x36F32373 EQ PUSH2 0xA0 JUMPI DUP1 PUSH4 0x51BB8110 EQ PUSH2 0xD0 JUMPI DUP1 PUSH4 0x556B22C1 EQ PUSH2 0x100 JUMPI DUP1 PUSH4 0x62E91515 EQ PUSH2 0x11E JUMPI DUP1 PUSH4 0x71AD7221 EQ PUSH2 0x13C JUMPI JUMPDEST PUSH0 PUSH0 REVERT JUMPDEST PUSH2 0xBA PUSH1 0x4 DUP1 CALLDATASIZE SUB DUP2 ADD SWAP1 PUSH2 0xB5 SWAP2 SWAP1 PUSH2 0x1BF9 JUMP JUMPDEST PUSH2 0x228 JUMP JUMPDEST PUSH1 0x40 MLOAD PUSH2 0xC7 SWAP2 SWAP1 PUSH2 0x1EA4 JUMP JUMPDEST PUSH1 0x40 MLOAD DUP1 SWAP2 SUB SWAP1 RETURN JUMPDEST PUSH2 0xEA PUSH1 0x4 DUP1 CALLDATASIZE SUB DUP2 ADD SWAP1 PUSH2 0xE5 SWAP2 SWAP1 PUSH2 0x1EEE JUMP JUMPDEST PUSH2 0x331 JUMP JUMPDEST PUSH1 0x40 MLOAD PUSH2 0xF7 SWAP2 SWAP1 PUSH2 0x2005 JUMP JUMPDEST PUSH1 0x40 MLOAD DUP1 SWAP2 SUB SWAP1 RETURN JUMPDEST PUSH2 0x108 PUSH2 0x73C JUMP JUMPDEST PUSH1 0x40 MLOAD PUSH2 0x115 SWAP2 SWAP1 PUSH2 0x2034 JUMP JUMPDEST PUSH1 0x40 MLOAD DUP1 SWAP2 SUB SWAP1 RETURN JUMPDEST PUSH2 0x126 PUSH2 0x754 JUMP JUMPDEST PUSH1 0x40 MLOAD PUSH2 0x133 SWAP2 SWAP1 PUSH2 0x1EA4 JUMP JUMPDEST PUSH1 0x40 MLOAD DUP1 SWAP2 SUB SWAP1 RETURN JUMPDEST PUSH2 0x156 PUSH1 0x4 DUP1 CALLDATASIZE SUB DUP2 ADD SWAP1 PUSH2 0x151 SWAP2 SWAP1 PUSH2 0x1BF9 JUMP JUMPDEST PUSH2 0x825 JUMP JUMPDEST PUSH1 0x40 MLOAD PUSH2 0x16B SWAP10 SWAP9 SWAP8 SWAP7 SWAP6 SWAP5 SWAP4 SWAP3 SWAP2 SWAP1 PUSH2 0x2135 JUMP JUMPDEST PUSH1 0x40 MLOAD DUP1 SWAP2 SUB SWAP1 RETURN JUMPDEST PUSH2 0x18E PUSH1 0x4 DUP1 CALLDATASIZE SUB DUP2 ADD SWAP1 PUSH2 0x189 SWAP2 SWAP1 PUSH2 0x21FF JUMP JUMPDEST PUSH2 0xB05 JUMP JUMPDEST STOP JUMPDEST PUSH2 0x1AA PUSH1 0x4 DUP1 CALLDATASIZE SUB DUP2 ADD SWAP1 PUSH2 0x1A5 SWAP2 SWAP1 PUSH2 0x229E JUMP JUMPDEST PUSH2 0xBB6 JUMP JUMPDEST PUSH1 0x40 MLOAD PUSH2 0x1B7 SWAP2 SWAP1 PUSH2 0x2034 JUMP JUMPDEST PUSH1 0x40 MLOAD DUP1 SWAP2 SUB SWAP1 RETURN JUMPDEST PUSH2 0x1DA PUSH1 0x4 DUP1 CALLDATASIZE SUB DUP2 ADD SWAP1 PUSH2 0x1D5 SWAP2 SWAP1 PUSH2 0x2352 JUMP JUMPDEST PUSH2 0x135C JUMP JUMPDEST STOP JUMPDEST PUSH2 0x1F6 PUSH1 0x4 DUP1 CALLDATASIZE SUB DUP2 ADD SWAP1 PUSH2 0x1F1 SWAP2 SWAP1 PUSH2 0x1BF9 JUMP JUMPDEST PUSH2 0x1774 JUMP JUMPDEST PUSH1 0x40 MLOAD PUSH2 0x203 SWAP2 SWAP1 PUSH2 0x1EA4 JUMP JUMPDEST PUSH1 0x40 MLOAD DUP1 SWAP2 SUB SWAP1 RETURN JUMPDEST PUSH2 0x226 PUSH1 0x4 DUP1 CALLDATASIZE SUB DUP2 ADD SWAP1 PUSH2 0x221 SWAP2 SWAP1 PUSH2 0x244F JUMP JUMPDEST PUSH2 0x187D JUMP JUMPDEST STOP JUMPDEST PUSH1 0x60 PUSH0 PUSH1 0x4 PUSH0 DUP5 PUSH20 0xFFFFFFFFFFFFFFFFFFFFFFFFFFFFFFFFFFFFFFFF AND PUSH20 0xFFFFFFFFFFFFFFFFFFFFFFFFFFFFFFFFFFFFFFFF AND DUP2 MSTORE PUSH1 0x20 ADD SWAP1 DUP2 MSTORE PUSH1 0x20 ADD PUSH0 KECCAK256 SWAP1 POP PUSH0 DUP2 DUP1 SLOAD SWAP1 POP SWAP1 POP PUSH0 DUP2 PUSH8 0xFFFFFFFFFFFFFFFF DUP2 GT ISZERO PUSH2 0x28D JUMPI PUSH2 0x28C PUSH2 0x24E0 JUMP JUMPDEST JUMPDEST PUSH1 0x40 MLOAD SWAP1 DUP1 DUP3 MSTORE DUP1 PUSH1 0x20 MUL PUSH1 0x20 ADD DUP3 ADD PUSH1 0x40 MSTORE DUP1 ISZERO PUSH2 0x2C6 JUMPI DUP2 PUSH1 0x20 ADD JUMPDEST PUSH2 0x2B3 PUSH2 0x1B02 JUMP JUMPDEST DUP2 MSTORE PUSH1 0x20 ADD SWAP1 PUSH1 0x1 SWAP1 SUB SWAP1 DUP2 PUSH2 0x2AB JUMPI SWAP1 POP JUMPDEST POP SWAP1 POP PUSH0 PUSH0 SWAP1 POP JUMPDEST DUP3 DUP2 LT ISZERO PUSH2 0x325 JUMPI PUSH2 0x2FA DUP5 DUP3 DUP2 SLOAD DUP2 LT PUSH2 0x2EC JUMPI PUSH2 0x2EB PUSH2 0x250D JUMP JUMPDEST JUMPDEST SWAP1 PUSH0 MSTORE PUSH1 0x20 PUSH0 KECCAK256 ADD SLOAD PUSH2 0x331 JUMP JUMPDEST DUP3 DUP3 DUP2 MLOAD DUP2 LT PUSH2 0x30D JUMPI PUSH2 0x30C PUSH2 0x250D JUMP JUMPDEST JUMPDEST PUSH1 0x20 MUL PUSH1 0x20 ADD ADD DUP2 SWAP1 MSTORE POP DUP1 DUP1 PUSH1 0x1 ADD SWAP2 POP POP PUSH2 0x2CE JUMP JUMPDEST POP DUP1 SWAP4 POP POP POP POP SWAP2 SWAP1 POP JUMP JUMPDEST PUSH2 0x339 PUSH2 0x1B02 JUMP JUMPDEST PUSH0 PUSH1 0x1 PUSH0 DUP5 PUSH4 0xFFFFFFFF AND DUP2 MSTORE PUSH1 0x20 ADD SWAP1 DUP2 MSTORE PUSH1 0x20 ADD PUSH0 KECCAK256 SWAP1 POP DUP1 PUSH1 0x6 ADD PUSH1 0x10 SWAP1 SLOAD SWAP1 PUSH2 0x100 EXP SWAP1 DIV PUSH1 0xFF AND PUSH2 0x39B JUMPI PUSH1 0x40 MLOAD PUSH32 0x3E07F1A100000000000000000000000000000000000000000000000000000000 DUP2 MSTORE PUSH1 0x4 ADD PUSH1 0x40 MLOAD DUP1 SWAP2 SUB SWAP1 REVERT JUMPDEST DUP1 PUSH1 0x40 MLOAD DUP1 PUSH2 0x140 ADD PUSH1 0x40 MSTORE SWAP1 DUP2 PUSH0 DUP3 ADD PUSH0 SWAP1 SLOAD SWAP1 PUSH2 0x100 EXP SWAP1 DIV PUSH4 0xFFFFFFFF AND PUSH4 0xFFFFFFFF AND PUSH4 0xFFFFFFFF AND DUP2 MSTORE PUSH1 0x20 ADD PUSH0 DUP3 ADD PUSH1 0x4 SWAP1 SLOAD SWAP1 PUSH2 0x100 EXP SWAP1 DIV PUSH20 0xFFFFFFFFFFFFFFFFFFFFFFFFFFFFFFFFFFFFFFFF AND PUSH20 0xFFFFFFFFFFFFFFFFFFFFFFFFFFFFFFFFFFFFFFFF AND PUSH20 0xFFFFFFFFFFFFFFFFFFFFFFFFFFFFFFFFFFFFFFFF AND DUP2 MSTORE PUSH1 0x20 ADD PUSH1 0x1 DUP3 ADD DUP1 SLOAD PUSH2 0x431 SWAP1 PUSH2 0x2567 JUMP JUMPDEST DUP1 PUSH1 0x1F ADD PUSH1 0x20 DUP1 SWAP2 DIV MUL PUSH1 0x20 ADD PUSH1 0x40 MLOAD SWAP1 DUP2 ADD PUSH1 0x40 MSTORE DUP1 SWAP3 SWAP2 SWAP1 DUP2 DUP2 MSTORE PUSH1 0x20 ADD DUP3 DUP1 SLOAD PUSH2 0x45D SWAP1 PUSH2 0x2567 JUMP JUMPDEST DUP1 ISZERO PUSH2 0x4A8 JUMPI DUP1 PUSH1 0x1F LT PUSH2 0x47F JUMPI PUSH2 0x100 DUP1 DUP4 SLOAD DIV MUL DUP4 MSTORE SWAP2 PUSH1 0x20 ADD SWAP2 PUSH2 0x4A8 JUMP JUMPDEST DUP3 ADD SWAP2 SWAP1 PUSH0 MSTORE PUSH1 0x20 PUSH0 KECCAK256 SWAP1 JUMPDEST DUP2 SLOAD DUP2 MSTORE SWAP1 PUSH1 0x1 ADD SWAP1 PUSH1 0x20 ADD DUP1 DUP4 GT PUSH2 0x48B JUMPI DUP3 SWAP1 SUB PUSH1 0x1F AND DUP3 ADD SWAP2 JUMPDEST POP POP POP POP POP DUP2 MSTORE PUSH1 0x20 ADD PUSH1 0x2 DUP3 ADD PUSH0 SWAP1 SLOAD SWAP1 PUSH2 0x100 EXP SWAP1 DIV PUSH20 0xFFFFFFFFFFFFFFFFFFFFFFFFFFFFFFFFFFFFFFFF AND PUSH20 0xFFFFFFFFFFFFFFFFFFFFFFFFFFFFFFFFFFFFFFFF AND PUSH20 0xFFFFFFFFFFFFFFFFFFFFFFFFFFFFFFFFFFFFFFFF AND DUP2 MSTORE PUSH1 0x20 ADD PUSH1 0x3 DUP3 ADD DUP1 SLOAD PUSH2 0x516 SWAP1 PUSH2 0x2567 JUMP JUMPDEST DUP1 PUSH1 0x1F ADD PUSH1 0x20 DUP1 SWAP2 DIV MUL PUSH1 0x20 ADD PUSH1 0x40 MLOAD SWAP1 DUP2 ADD PUSH1 0x40 MSTORE DUP1 SWAP3 SWAP2 SWAP1 DUP2 DUP2 MSTORE PUSH1 0x20 ADD DUP3 DUP1 SLOAD PUSH2 0x542 SWAP1 PUSH2 0x2567 JUMP JUMPDEST DUP1 ISZERO PUSH2 0x58D JUMPI DUP1 PUSH1 0x1F LT PUSH2 0x564 JUMPI PUSH2 0x100 DUP1 DUP4 SLOAD DIV MUL DUP4 MSTORE SWAP2 PUSH1 0x20 ADD SWAP2 PUSH2 0x58D JUMP JUMPDEST DUP3 ADD SWAP2 SWAP1 PUSH0 MSTORE PUSH1 0x20 PUSH0 KECCAK256 SWAP1 JUMPDEST DUP2 SLOAD DUP2 MSTORE SWAP1 PUSH1 0x1 ADD SWAP1 PUSH1 0x20 ADD DUP1 DUP4 GT PUSH2 0x570 JUMPI DUP3 SWAP1 SUB PUSH1 0x1F AND DUP3 ADD SWAP2 JUMPDEST POP POP POP POP POP DUP2 MSTORE PUSH1 0x20 ADD PUSH1 0x4 DUP3 ADD DUP1 SLOAD PUSH2 0x5A6 SWAP1 PUSH2 0x2567 JUMP JUMPDEST DUP1 PUSH1 0x1F ADD PUSH1 0x20 DUP1 SWAP2 DIV MUL PUSH1 0x20 ADD PUSH1 0x40 MLOAD SWAP1 DUP2 ADD PUSH1 0x40 MSTORE DUP1 SWAP3 SWAP2 SWAP1 DUP2 DUP2 MSTORE PUSH1 0x20 ADD DUP3 DUP1 SLOAD PUSH2 0x5D2 SWAP1 PUSH2 0x2567 JUMP JUMPDEST DUP1 ISZERO PUSH2 0x61D JUMPI DUP1 PUSH1 0x1F LT PUSH2 0x5F4 JUMPI PUSH2 0x100 DUP1 DUP4 SLOAD DIV MUL DUP4 MSTORE SWAP2 PUSH1 0x20 ADD SWAP2 PUSH2 0x61D JUMP JUMPDEST DUP3 ADD SWAP2 SWAP1 PUSH0 MSTORE PUSH1 0x20 PUSH0 KECCAK256 SWAP1 JUMPDEST DUP2 SLOAD DUP2 MSTORE SWAP1 PUSH1 0x1 ADD SWAP1 PUSH1 0x20 ADD DUP1 DUP4 GT PUSH2 0x600 JUMPI DUP3 SWAP1 SUB PUSH1 0x1F AND DUP3 ADD SWAP2 JUMPDEST POP POP POP POP POP DUP2 MSTORE PUSH1 0x20 ADD PUSH1 0x5 DUP3 ADD DUP1 SLOAD PUSH2 0x636 SWAP1 PUSH2 0x2567 JUMP JUMPDEST DUP1 PUSH1 0x1F ADD PUSH1 0x20 DUP1 SWAP2 DIV MUL PUSH1 0x20 ADD PUSH1 0x40 MLOAD SWAP1 DUP2 ADD PUSH1 0x40 MSTORE DUP1 SWAP3 SWAP2 SWAP1 DUP2 DUP2 MSTORE PUSH1 0x20 ADD DUP3 DUP1 SLOAD PUSH2 0x662 SWAP1 PUSH2 0x2567 JUMP JUMPDEST DUP1 ISZERO PUSH2 0x6AD JUMPI DUP1 PUSH1 0x1F LT PUSH2 0x684 JUMPI PUSH2 0x100 DUP1 DUP4 SLOAD DIV MUL DUP4 MSTORE SWAP2 PUSH1 0x20 ADD SWAP2 PUSH2 0x6AD JUMP JUMPDEST DUP3 ADD SWAP2 SWAP1 PUSH0 MSTORE PUSH1 0x20 PUSH0 KECCAK256 SWAP1 JUMPDEST DUP2 SLOAD DUP2 MSTORE SWAP1 PUSH1 0x1 ADD SWAP1 PUSH1 0x20 ADD DUP1 DUP4 GT PUSH2 0x690 JUMPI DUP3 SWAP1 SUB PUSH1 0x1F AND DUP3 ADD SWAP2 JUMPDEST POP POP POP POP POP DUP2 MSTORE PUSH1 0x20 ADD PUSH1 0x6 DUP3 ADD PUSH0 SWAP1 SLOAD SWAP1 PUSH2 0x100 EXP SWAP1 DIV PUSH8 0xFFFFFFFFFFFFFFFF AND PUSH8 0xFFFFFFFFFFFFFFFF AND PUSH8 0xFFFFFFFFFFFFFFFF AND DUP2 MSTORE PUSH1 0x20 ADD PUSH1 0x6 DUP3 ADD PUSH1 0x8 SWAP1 SLOAD SWAP1 PUSH2 0x100 EXP SWAP1 DIV PUSH8 0xFFFFFFFFFFFFFFFF AND PUSH8 0xFFFFFFFFFFFFFFFF AND PUSH8 0xFFFFFFFFFFFFFFFF AND DUP2 MSTORE PUSH1 0x20 ADD PUSH1 0x6 DUP3 ADD PUSH1 0x10 SWAP1 SLOAD SWAP1 PUSH2 0x100 EXP SWAP1 DIV PUSH1 0xFF AND ISZERO ISZERO ISZERO ISZERO DUP2 MSTORE POP POP SWAP2 POP POP SWAP2 SWAP1 POP JUMP JUMPDEST PUSH0 PUSH1 0x2 PUSH0 SWAP1 SLOAD SWAP1 PUSH2 0x100 EXP SWAP1 DIV PUSH4 0xFFFFFFFF AND SWAP1 POP SWAP1 JUMP JUMPDEST PUSH1 0x60 PUSH2 0x75F CALLER PUSH2 0x19C2 JUMP JUMPDEST PUSH0 PUSH1 0x5 DUP1 SLOAD SWAP1 POP SWAP1 POP PUSH0 DUP2 PUSH8 0xFFFFFFFFFFFFFFFF DUP2 GT ISZERO PUSH2 0x783 JUMPI PUSH2 0x782 PUSH2 0x24E0 JUMP JUMPDEST JUMPDEST PUSH1 0x40 MLOAD SWAP1 DUP1 DUP3 MSTORE DUP1 PUSH1 0x20 MUL PUSH1 0x20 ADD DUP3 ADD PUSH1 0x40 MSTORE DUP1 ISZERO PUSH2 0x7BC JUMPI DUP2 PUSH1 0x20 ADD JUMPDEST PUSH2 0x7A9 PUSH2 0x1B02 JUMP JUMPDEST DUP2 MSTORE PUSH1 0x20 ADD SWAP1 PUSH1 0x1 SWAP1 SUB SWAP1 DUP2 PUSH2 0x7A1 JUMPI SWAP1 POP JUMPDEST POP SWAP1 POP PUSH0 PUSH0 SWAP1 POP JUMPDEST DUP3 DUP2 LT ISZERO PUSH2 0x81C JUMPI PUSH2 0x7F1 PUSH1 0x5 DUP3 DUP2 SLOAD DUP2 LT PUSH2 0x7E3 JUMPI PUSH2 0x7E2 PUSH2 0x250D JUMP JUMPDEST JUMPDEST SWAP1 PUSH0 MSTORE PUSH1 0x20 PUSH0 KECCAK256 ADD SLOAD PUSH2 0x331 JUMP JUMPDEST DUP3 DUP3 DUP2 MLOAD DUP2 LT PUSH2 0x804 JUMPI PUSH2 0x803 PUSH2 0x250D JUMP JUMPDEST JUMPDEST PUSH1 0x20 MUL PUSH1 0x20 ADD ADD DUP2 SWAP1 MSTORE POP DUP1 DUP1 PUSH1 0x1 ADD SWAP2 POP POP PUSH2 0x7C4 JUMP JUMPDEST POP DUP1 SWAP3 POP POP POP SWAP1 JUMP JUMPDEST PUSH0 PUSH0 PUSH1 0x60 PUSH0 PUSH1 0x60 DUP1 PUSH0 PUSH0 PUSH0 PUSH0 PUSH0 PUSH0 DUP13 PUSH20 0xFFFFFFFFFFFFFFFFFFFFFFFFFFFFFFFFFFFFFFFF AND PUSH20 0xFFFFFFFFFFFFFFFFFFFFFFFFFFFFFFFFFFFFFFFF AND DUP2 MSTORE PUSH1 0x20 ADD SWAP1 DUP2 MSTORE PUSH1 0x20 ADD PUSH0 KECCAK256 SWAP1 POP DUP1 PUSH1 0x5 ADD PUSH1 0xA SWAP1 SLOAD SWAP1 PUSH2 0x100 EXP SWAP1 DIV PUSH1 0xFF AND PUSH2 0x8B7 JUMPI PUSH1 0x40 MLOAD PUSH32 0x670A68CC00000000000000000000000000000000000000000000000000000000 DUP2 MSTORE PUSH1 0x4 ADD PUSH1 0x40 MLOAD DUP1 SWAP2 SUB SWAP1 REVERT JUMPDEST DUP1 PUSH0 ADD PUSH0 SWAP1 SLOAD SWAP1 PUSH2 0x100 EXP SWAP1 DIV PUSH20 0xFFFFFFFFFFFFFFFFFFFFFFFFFFFFFFFFFFFFFFFF AND DUP2 PUSH0 ADD PUSH1 0x14 SWAP1 SLOAD SWAP1 PUSH2 0x100 EXP SWAP1 DIV PUSH1 0xFF AND DUP3 PUSH1 0x1 ADD DUP4 PUSH1 0x2 ADD PUSH0 SWAP1 SLOAD SWAP1 PUSH2 0x100 EXP SWAP1 DIV PUSH4 0xFFFFFFFF AND DUP5 PUSH1 0x3 ADD DUP6 PUSH1 0x4 ADD DUP7 PUSH1 0x5 ADD PUSH0 SWAP1 SLOAD SWAP1 PUSH2 0x100 EXP SWAP1 DIV PUSH1 0xFF AND DUP8 PUSH1 0x5 ADD PUSH1 0x1 SWAP1 SLOAD SWAP1 PUSH2 0x100 EXP SWAP1 DIV PUSH1 0xFF AND DUP9 PUSH1 0x5 ADD PUSH1 0x2 SWAP1 SLOAD SWAP1 PUSH2 0x100 EXP SWAP1 DIV PUSH8 0xFFFFFFFFFFFFFFFF AND DUP7 DUP1 SLOAD PUSH2 0x953 SWAP1 PUSH2 0x2567 JUMP JUMPDEST DUP1 PUSH1 0x1F ADD PUSH1 0x20 DUP1 SWAP2 DIV MUL PUSH1 0x20 ADD PUSH1 0x40 MLOAD SWAP1 DUP2 ADD PUSH1 0x40 MSTORE DUP1 SWAP3 SWAP2 SWAP1 DUP2 DUP2 MSTORE PUSH1 0x20 ADD DUP3 DUP1 SLOAD PUSH2 0x97F SWAP1 PUSH2 0x2567 JUMP JUMPDEST DUP1 ISZERO PUSH2 0x9CA JUMPI DUP1 PUSH1 0x1F LT PUSH2 0x9A1 JUMPI PUSH2 0x100 DUP1 DUP4 SLOAD DIV MUL DUP4 MSTORE SWAP2 PUSH1 0x20 ADD SWAP2 PUSH2 0x9CA JUMP JUMPDEST DUP3 ADD SWAP2 SWAP1 PUSH0 MSTORE PUSH1 0x20 PUSH0 KECCAK256 SWAP1 JUMPDEST DUP2 SLOAD DUP2 MSTORE SWAP1 PUSH1 0x1 ADD SWAP1 PUSH1 0x20 ADD DUP1 DUP4 GT PUSH2 0x9AD JUMPI DUP3 SWAP1 SUB PUSH1 0x1F AND DUP3 ADD SWAP2 JUMPDEST POP POP POP POP POP SWAP7 POP DUP5 DUP1 SLOAD PUSH2 0x9DD SWAP1 PUSH2 0x2567 JUMP JUMPDEST DUP1 PUSH1 0x1F ADD PUSH1 0x20 DUP1 SWAP2 DIV MUL PUSH1 0x20 ADD PUSH1 0x40 MLOAD SWAP1 DUP2 ADD PUSH1 0x40 MSTORE DUP1 SWAP3 SWAP2 SWAP1 DUP2 DUP2 MSTORE PUSH1 0x20 ADD DUP3 DUP1 SLOAD PUSH2 0xA09 SWAP1 PUSH2 0x2567 JUMP JUMPDEST DUP1 ISZERO PUSH2 0xA54 JUMPI DUP1 PUSH1 0x1F LT PUSH2 0xA2B JUMPI PUSH2 0x100 DUP1 DUP4 SLOAD DIV MUL DUP4 MSTORE SWAP2 PUSH1 0x20 ADD SWAP2 PUSH2 0xA54 JUMP JUMPDEST DUP3 ADD SWAP2 SWAP1 PUSH0 MSTORE PUSH1 0x20 PUSH0 KECCAK256 SWAP1 JUMPDEST DUP2 SLOAD DUP2 MSTORE SWAP1 PUSH1 0x1 ADD SWAP1 PUSH1 0x20 ADD DUP1 DUP4 GT PUSH2 0xA37 JUMPI DUP3 SWAP1 SUB PUSH1 0x1F AND DUP3 ADD SWAP2 JUMPDEST POP POP POP POP POP SWAP5 POP DUP4 DUP1 SLOAD PUSH2 0xA67 SWAP1 PUSH2 0x2567 JUMP JUMPDEST DUP1 PUSH1 0x1F ADD PUSH1 0x20 DUP1 SWAP2 DIV MUL PUSH1 0x20 ADD PUSH1 0x40 MLOAD SWAP1 DUP2 ADD PUSH1 0x40 MSTORE DUP1 SWAP3 SWAP2 SWAP1 DUP2 DUP2 MSTORE PUSH1 0x20 ADD DUP3 DUP1 SLOAD PUSH2 0xA93 SWAP1 PUSH2 0x2567 JUMP JUMPDEST DUP1 ISZERO PUSH2 0xADE JUMPI DUP1 PUSH1 0x1F LT PUSH2 0xAB5 JUMPI PUSH2 0x100 DUP1 DUP4 SLOAD DIV MUL DUP4 MSTORE SWAP2 PUSH1 0x20 ADD SWAP2 PUSH2 0xADE JUMP JUMPDEST DUP3 ADD SWAP2 SWAP1 PUSH0 MSTORE PUSH1 0x20 PUSH0 KECCAK256 SWAP1 JUMPDEST DUP2 SLOAD DUP2 MSTORE SWAP1 PUSH1 0x1 ADD SWAP1 PUSH1 0x20 ADD DUP1 DUP4 GT PUSH2 0xAC1 JUMPI DUP3 SWAP1 SUB PUSH1 0x1F AND DUP3 ADD SWAP2 JUMPDEST POP POP POP POP POP SWAP4 POP SWAP10 POP SWAP10 POP SWAP10 POP SWAP10 POP SWAP10 POP SWAP10 POP SWAP10 POP SWAP10 POP SWAP10 POP POP SWAP2 SWAP4 SWAP6 SWAP8 SWAP10 SWAP1 SWAP3 SWAP5 SWAP7 SWAP9 POP JUMP JUMPDEST PUSH2 0xB0E CALLER PUSH2 0x19C2 JUMP JUMPDEST PUSH0 PUSH0 PUSH0 DUP5 PUSH20 0xFFFFFFFFFFFFFFFFFFFFFFFFFFFFFFFFFFFFFFFF AND PUSH20 0xFFFFFFFFFFFFFFFFFFFFFFFFFFFFFFFFFFFFFFFF AND DUP2 MSTORE PUSH1 0x20 ADD SWAP1 DUP2 MSTORE PUSH1 0x20 ADD PUSH0 KECCAK256 SWAP1 POP DUP1 PUSH1 0x5 ADD PUSH1 0xA SWAP1 SLOAD SWAP1 PUSH2 0x100 EXP SWAP1 DIV PUSH1 0xFF AND PUSH2 0xB95 JUMPI PUSH1 0x40 MLOAD PUSH32 0x670A68CC00000000000000000000000000000000000000000000000000000000 DUP2 MSTORE PUSH1 0x4 ADD PUSH1 0x40 MLOAD DUP1 SWAP2 SUB SWAP1 REVERT JUMPDEST DUP2 DUP2 PUSH1 0x5 ADD PUSH1 0x1 PUSH2 0x100 EXP DUP2 SLOAD DUP2 PUSH1 0xFF MUL NOT AND SWAP1 DUP4 ISZERO ISZERO MUL OR SWAP1 SSTORE POP POP POP POP JUMP JUMPDEST PUSH0 PUSH0 PUSH0 PUSH0 CALLER PUSH20 0xFFFFFFFFFFFFFFFFFFFFFFFFFFFFFFFFFFFFFFFF AND PUSH20 0xFFFFFFFFFFFFFFFFFFFFFFFFFFFFFFFFFFFFFFFF AND DUP2 MSTORE PUSH1 0x20 ADD SWAP1 DUP2 MSTORE PUSH1 0x20 ADD PUSH0 KECCAK256 SWAP1 POP DUP1 PUSH1 0x5 ADD PUSH1 0xA SWAP1 SLOAD SWAP1 PUSH2 0x100 EXP SWAP1 DIV PUSH1 0xFF AND PUSH2 0xC3E JUMPI PUSH1 0x40 MLOAD PUSH32 0x670A68CC00000000000000000000000000000000000000000000000000000000 DUP2 MSTORE PUSH1 0x4 ADD PUSH1 0x40 MLOAD DUP1 SWAP2 SUB SWAP1 REVERT JUMPDEST PUSH1 0x1 PUSH1 0x2 DUP2 GT ISZERO PUSH2 0xC52 JUMPI PUSH2 0xC51 PUSH2 0x205C JUMP JUMPDEST JUMPDEST DUP2 PUSH0 ADD PUSH1 0x14 SWAP1 SLOAD SWAP1 PUSH2 0x100 EXP SWAP1 DIV PUSH1 0xFF AND PUSH1 0x2 DUP2 GT ISZERO PUSH2 0xC75 JUMPI PUSH2 0xC74 PUSH2 0x205C JUMP JUMPDEST JUMPDEST EQ PUSH2 0xCAC JUMPI PUSH1 0x40 MLOAD PUSH32 0xD954416A00000000000000000000000000000000000000000000000000000000 DUP2 MSTORE PUSH1 0x4 ADD PUSH1 0x40 MLOAD DUP1 SWAP2 SUB SWAP1 REVERT JUMPDEST DUP1 PUSH1 0x5 ADD PUSH1 0x1 SWAP1 SLOAD SWAP1 PUSH2 0x100 EXP SWAP1 DIV PUSH1 0xFF AND PUSH2 0xCF4 JUMPI PUSH1 0x40 MLOAD PUSH32 0x3310E69100000000000000000000000000000000000000000000000000000000 DUP2 MSTORE PUSH1 0x4 ADD PUSH1 0x40 MLOAD DUP1 SWAP2 SUB SWAP1 REVERT JUMPDEST PUSH0 PUSH0 PUSH0 DUP10 PUSH20 0xFFFFFFFFFFFFFFFFFFFFFFFFFFFFFFFFFFFFFFFF AND PUSH20 0xFFFFFFFFFFFFFFFFFFFFFFFFFFFFFFFFFFFFFFFF AND DUP2 MSTORE PUSH1 0x20 ADD SWAP1 DUP2 MSTORE PUSH1 0x20 ADD PUSH0 KECCAK256 SWAP1 POP DUP1 PUSH1 0x5 ADD PUSH1 0xA SWAP1 SLOAD SWAP1 PUSH2 0x100 EXP SWAP1 DIV PUSH1 0xFF AND PUSH2 0xD7B JUMPI PUSH1 0x40 MLOAD PUSH32 0x670A68CC00000000000000000000000000000000000000000000000000000000 DUP2 MSTORE PUSH1 0x4 ADD PUSH1 0x40 MLOAD DUP1 SWAP2 SUB SWAP1 REVERT JUMPDEST PUSH1 0x2 DUP1 DUP2 GT ISZERO PUSH2 0xD8E JUMPI PUSH2 0xD8D PUSH2 0x205C JUMP JUMPDEST JUMPDEST DUP2 PUSH0 ADD PUSH1 0x14 SWAP1 SLOAD SWAP1 PUSH2 0x100 EXP SWAP1 DIV PUSH1 0xFF AND PUSH1 0x2 DUP2 GT ISZERO PUSH2 0xDB1 JUMPI PUSH2 0xDB0 PUSH2 0x205C JUMP JUMPDEST JUMPDEST EQ PUSH2 0xDE8 JUMPI PUSH1 0x40 MLOAD PUSH32 0xD954416A00000000000000000000000000000000000000000000000000000000 DUP2 MSTORE PUSH1 0x4 ADD PUSH1 0x40 MLOAD DUP1 SWAP2 SUB SWAP1 REVERT JUMPDEST DUP1 PUSH1 0x5 ADD PUSH1 0x1 SWAP1 SLOAD SWAP1 PUSH2 0x100 EXP SWAP1 DIV PUSH1 0xFF AND PUSH2 0xE30 JUMPI PUSH1 0x40 MLOAD PUSH32 0x3310E69100000000000000000000000000000000000000000000000000000000 DUP2 MSTORE PUSH1 0x4 ADD PUSH1 0x40 MLOAD DUP1 SWAP2 SUB SWAP1 REVERT JUMPDEST PUSH1 0x1 PUSH1 0x2 PUSH0 DUP3 DUP3 DUP3 SWAP1 SLOAD SWAP1 PUSH2 0x100 EXP SWAP1 DIV PUSH4 0xFFFFFFFF AND PUSH2 0xE51 SWAP2 SWAP1 PUSH2 0x25C4 JUMP JUMPDEST SWAP3 POP PUSH2 0x100 EXP DUP2 SLOAD DUP2 PUSH4 0xFFFFFFFF MUL NOT AND SWAP1 DUP4 PUSH4 0xFFFFFFFF AND MUL OR SWAP1 SSTORE POP PUSH0 PUSH1 0x2 PUSH0 SWAP1 SLOAD SWAP1 PUSH2 0x100 EXP SWAP1 DIV PUSH4 0xFFFFFFFF AND SWAP1 POP PUSH0 TIMESTAMP SWAP1 POP PUSH1 0x40 MLOAD DUP1 PUSH2 0x140 ADD PUSH1 0x40 MSTORE DUP1 DUP4 PUSH4 0xFFFFFFFF AND DUP2 MSTORE PUSH1 0x20 ADD DUP12 PUSH20 0xFFFFFFFFFFFFFFFFFFFFFFFFFFFFFFFFFFFFFFFF AND DUP2 MSTORE PUSH1 0x20 ADD DUP5 PUSH1 0x1 ADD DUP1 SLOAD PUSH2 0xECB SWAP1 PUSH2 0x2567 JUMP JUMPDEST DUP1 PUSH1 0x1F ADD PUSH1 0x20 DUP1 SWAP2 DIV MUL PUSH1 0x20 ADD PUSH1 0x40 MLOAD SWAP1 DUP2 ADD PUSH1 0x40 MSTORE DUP1 SWAP3 SWAP2 SWAP1 DUP2 DUP2 MSTORE PUSH1 0x20 ADD DUP3 DUP1 SLOAD PUSH2 0xEF7 SWAP1 PUSH2 0x2567 JUMP JUMPDEST DUP1 ISZERO PUSH2 0xF42 JUMPI DUP1 PUSH1 0x1F LT PUSH2 0xF19 JUMPI PUSH2 0x100 DUP1 DUP4 SLOAD DIV MUL DUP4 MSTORE SWAP2 PUSH1 0x20 ADD SWAP2 PUSH2 0xF42 JUMP JUMPDEST DUP3 ADD SWAP2 SWAP1 PUSH0 MSTORE PUSH1 0x20 PUSH0 KECCAK256 SWAP1 JUMPDEST DUP2 SLOAD DUP2 MSTORE SWAP1 PUSH1 0x1 ADD SWAP1 PUSH1 0x20 ADD DUP1 DUP4 GT PUSH2 0xF25 JUMPI DUP3 SWAP1 SUB PUSH1 0x1F AND DUP3 ADD SWAP2 JUMPDEST POP POP POP POP POP DUP2 MSTORE PUSH1 0x20 ADD CALLER PUSH20 0xFFFFFFFFFFFFFFFFFFFFFFFFFFFFFFFFFFFFFFFF AND DUP2 MSTORE PUSH1 0x20 ADD DUP6 PUSH1 0x1 ADD DUP1 SLOAD PUSH2 0xF77 SWAP1 PUSH2 0x2567 JUMP JUMPDEST DUP1 PUSH1 0x1F ADD PUSH1 0x20 DUP1 SWAP2 DIV MUL PUSH1 0x20 ADD PUSH1 0x40 MLOAD SWAP1 DUP2 ADD PUSH1 0x40 MSTORE DUP1 SWAP3 SWAP2 SWAP1 DUP2 DUP2 MSTORE PUSH1 0x20 ADD DUP3 DUP1 SLOAD PUSH2 0xFA3 SWAP1 PUSH2 0x2567 JUMP JUMPDEST DUP1 ISZERO PUSH2 0xFEE JUMPI DUP1 PUSH1 0x1F LT PUSH2 0xFC5 JUMPI PUSH2 0x100 DUP1 DUP4 SLOAD DIV MUL DUP4 MSTORE SWAP2 PUSH1 0x20 ADD SWAP2 PUSH2 0xFEE JUMP JUMPDEST DUP3 ADD SWAP2 SWAP1 PUSH0 MSTORE PUSH1 0x20 PUSH0 KECCAK256 SWAP1 JUMPDEST DUP2 SLOAD DUP2 MSTORE SWAP1 PUSH1 0x1 ADD SWAP1 PUSH1 0x20 ADD DUP1 DUP4 GT PUSH2 0xFD1 JUMPI DUP3 SWAP1 SUB PUSH1 0x1F AND DUP3 ADD SWAP2 JUMPDEST POP POP POP POP POP DUP2 MSTORE PUSH1 0x20 ADD DUP11 DUP11 DUP1 DUP1 PUSH1 0x1F ADD PUSH1 0x20 DUP1 SWAP2 DIV MUL PUSH1 0x20 ADD PUSH1 0x40 MLOAD SWAP1 DUP2 ADD PUSH1 0x40 MSTORE DUP1 SWAP4 SWAP3 SWAP2 SWAP1 DUP2 DUP2 MSTORE PUSH1 0x20 ADD DUP4 DUP4 DUP1 DUP3 DUP5 CALLDATACOPY PUSH0 DUP2 DUP5 ADD MSTORE PUSH1 0x1F NOT PUSH1 0x1F DUP3 ADD AND SWAP1 POP DUP1 DUP4 ADD SWAP3 POP POP POP POP POP POP POP DUP2 MSTORE PUSH1 0x20 ADD DUP9 DUP9 DUP1 DUP1 PUSH1 0x1F ADD PUSH1 0x20 DUP1 SWAP2 DIV MUL PUSH1 0x20 ADD PUSH1 0x40 MLOAD SWAP1 DUP2 ADD PUSH1 0x40 MSTORE DUP1 SWAP4 SWAP3 SWAP2 SWAP1 DUP2 DUP2 MSTORE PUSH1 0x20 ADD DUP4 DUP4 DUP1 DUP3 DUP5 CALLDATACOPY PUSH0 DUP2 DUP5 ADD MSTORE PUSH1 0x1F NOT PUSH1 0x1F DUP3 ADD AND SWAP1 POP DUP1 DUP4 ADD SWAP3 POP POP POP POP POP POP POP DUP2 MSTORE PUSH1 0x20 ADD DUP3 PUSH8 0xFFFFFFFFFFFFFFFF AND DUP2 MSTORE PUSH1 0x20 ADD DUP3 PUSH8 0xFFFFFFFFFFFFFFFF AND DUP2 MSTORE PUSH1 0x20 ADD PUSH1 0x1 ISZERO ISZERO DUP2 MSTORE POP PUSH1 0x1 PUSH0 DUP5 PUSH4 0xFFFFFFFF AND DUP2 MSTORE PUSH1 0x20 ADD SWAP1 DUP2 MSTORE PUSH1 0x20 ADD PUSH0 KECCAK256 PUSH0 DUP3 ADD MLOAD DUP2 PUSH0 ADD PUSH0 PUSH2 0x100 EXP DUP2 SLOAD DUP2 PUSH4 0xFFFFFFFF MUL NOT AND SWAP1 DUP4 PUSH4 0xFFFFFFFF AND MUL OR SWAP1 SSTORE POP PUSH1 0x20 DUP3 ADD MLOAD DUP2 PUSH0 ADD PUSH1 0x4 PUSH2 0x100 EXP DUP2 SLOAD DUP2 PUSH20 0xFFFFFFFFFFFFFFFFFFFFFFFFFFFFFFFFFFFFFFFF MUL NOT AND SWAP1 DUP4 PUSH20 0xFFFFFFFFFFFFFFFFFFFFFFFFFFFFFFFFFFFFFFFF AND MUL OR SWAP1 SSTORE POP PUSH1 0x40 DUP3 ADD MLOAD DUP2 PUSH1 0x1 ADD SWAP1 DUP2 PUSH2 0x1147 SWAP2 SWAP1 PUSH2 0x27A4 JUMP JUMPDEST POP PUSH1 0x60 DUP3 ADD MLOAD DUP2 PUSH1 0x2 ADD PUSH0 PUSH2 0x100 EXP DUP2 SLOAD DUP2 PUSH20 0xFFFFFFFFFFFFFFFFFFFFFFFFFFFFFFFFFFFFFFFF MUL NOT AND SWAP1 DUP4 PUSH20 0xFFFFFFFFFFFFFFFFFFFFFFFFFFFFFFFFFFFFFFFF AND MUL OR SWAP1 SSTORE POP PUSH1 0x80 DUP3 ADD MLOAD DUP2 PUSH1 0x3 ADD SWAP1 DUP2 PUSH2 0x11A3 SWAP2 SWAP1 PUSH2 0x27A4 JUMP JUMPDEST POP PUSH1 0xA0 DUP3 ADD MLOAD DUP2 PUSH1 0x4 ADD SWAP1 DUP2 PUSH2 0x11B9 SWAP2 SWAP1 PUSH2 0x27A4 JUMP JUMPDEST POP PUSH1 0xC0 DUP3 ADD MLOAD DUP2 PUSH1 0x5 ADD SWAP1 DUP2 PUSH2 0x11CF SWAP2 SWAP1 PUSH2 0x27A4 JUMP JUMPDEST POP PUSH1 0xE0 DUP3 ADD MLOAD DUP2 PUSH1 0x6 ADD PUSH0 PUSH2 0x100 EXP DUP2 SLOAD DUP2 PUSH8 0xFFFFFFFFFFFFFFFF MUL NOT AND SWAP1 DUP4 PUSH8 0xFFFFFFFFFFFFFFFF AND MUL OR SWAP1 SSTORE POP PUSH2 0x100 DUP3 ADD MLOAD DUP2 PUSH1 0x6 ADD PUSH1 0x8 PUSH2 0x100 EXP DUP2 SLOAD DUP2 PUSH8 0xFFFFFFFFFFFFFFFF MUL NOT AND SWAP1 DUP4 PUSH8 0xFFFFFFFFFFFFFFFF AND MUL OR SWAP1 SSTORE POP PUSH2 0x120 DUP3 ADD MLOAD DUP2 PUSH1 0x6 ADD PUSH1 0x10 PUSH2 0x100 EXP DUP2 SLOAD DUP2 PUSH1 0xFF MUL NOT AND SWAP1 DUP4 ISZERO ISZERO MUL OR SWAP1 SSTORE POP SWAP1 POP POP PUSH1 0x3 PUSH0 DUP12 PUSH20 0xFFFFFFFFFFFFFFFFFFFFFFFFFFFFFFFFFFFFFFFF AND PUSH20 0xFFFFFFFFFFFFFFFFFFFFFFFFFFFFFFFFFFFFFFFF AND DUP2 MSTORE PUSH1 0x20 ADD SWAP1 DUP2 MSTORE PUSH1 0x20 ADD PUSH0 KECCAK256 DUP3 SWAP1 DUP1 PUSH1 0x1 DUP2 SLOAD ADD DUP1 DUP3 SSTORE DUP1 SWAP2 POP POP PUSH1 0x1 SWAP1 SUB SWAP1 PUSH0 MSTORE PUSH1 0x20 PUSH0 KECCAK256 ADD PUSH0 SWAP1 SWAP2 PUSH4 0xFFFFFFFF AND SWAP1 SWAP2 SWAP1 SWAP2 POP SSTORE PUSH1 0x4 PUSH0 CALLER PUSH20 0xFFFFFFFFFFFFFFFFFFFFFFFFFFFFFFFFFFFFFFFF AND PUSH20 0xFFFFFFFFFFFFFFFFFFFFFFFFFFFFFFFFFFFFFFFF AND DUP2 MSTORE PUSH1 0x20 ADD SWAP1 DUP2 MSTORE PUSH1 0x20 ADD PUSH0 KECCAK256 DUP3 SWAP1 DUP1 PUSH1 0x1 DUP2 SLOAD ADD DUP1 DUP3 SSTORE DUP1 SWAP2 POP POP PUSH1 0x1 SWAP1 SUB SWAP1 PUSH0 MSTORE PUSH1 0x20 PUSH0 KECCAK256 ADD PUSH0 SWAP1 SWAP2 PUSH4 0xFFFFFFFF AND SWAP1 SWAP2 SWAP1 SWAP2 POP SSTORE PUSH1 0x5 DUP3 SWAP1 DUP1 PUSH1 0x1 DUP2 SLOAD ADD DUP1 DUP3 SSTORE DUP1 SWAP2 POP POP PUSH1 0x1 SWAP1 SUB SWAP1 PUSH0 MSTORE PUSH1 0x20 PUSH0 KECCAK256 ADD PUSH0 SWAP1 SWAP2 PUSH4 0xFFFFFFFF AND SWAP1 SWAP2 SWAP1 SWAP2 POP SSTORE DUP2 SWAP5 POP POP POP POP POP SWAP6 SWAP5 POP POP POP POP POP JUMP JUMPDEST PUSH0 PUSH1 0x6 SLOAD GT ISZERO PUSH2 0x1374 JUMPI PUSH2 0x136F CALLER PUSH2 0x19C2 JUMP JUMPDEST PUSH2 0x13D2 JUMP JUMPDEST PUSH0 PUSH1 0x2 DUP2 GT ISZERO PUSH2 0x1387 JUMPI PUSH2 0x1386 PUSH2 0x205C JUMP JUMPDEST JUMPDEST DUP10 PUSH1 0x2 DUP2 GT ISZERO PUSH2 0x139A JUMPI PUSH2 0x1399 PUSH2 0x205C JUMP JUMPDEST JUMPDEST EQ PUSH2 0x13D1 JUMPI PUSH1 0x40 MLOAD PUSH32 0x82B4290000000000000000000000000000000000000000000000000000000000 DUP2 MSTORE PUSH1 0x4 ADD PUSH1 0x40 MLOAD DUP1 SWAP2 SUB SWAP1 REVERT JUMPDEST JUMPDEST PUSH0 PUSH0 DUP12 PUSH20 0xFFFFFFFFFFFFFFFFFFFFFFFFFFFFFFFFFFFFFFFF AND PUSH20 0xFFFFFFFFFFFFFFFFFFFFFFFFFFFFFFFFFFFFFFFF AND DUP2 MSTORE PUSH1 0x20 ADD SWAP1 DUP2 MSTORE PUSH1 0x20 ADD PUSH0 KECCAK256 PUSH1 0x5 ADD PUSH1 0xA SWAP1 SLOAD SWAP1 PUSH2 0x100 EXP SWAP1 DIV PUSH1 0xFF AND ISZERO PUSH2 0x1456 JUMPI PUSH1 0x40 MLOAD PUSH32 0x23369FA600000000000000000000000000000000000000000000000000000000 DUP2 MSTORE PUSH1 0x4 ADD PUSH1 0x40 MLOAD DUP1 SWAP2 SUB SWAP1 REVERT JUMPDEST PUSH1 0x40 MLOAD DUP1 PUSH2 0x140 ADD PUSH1 0x40 MSTORE DUP1 DUP12 PUSH20 0xFFFFFFFFFFFFFFFFFFFFFFFFFFFFFFFFFFFFFFFF AND DUP2 MSTORE PUSH1 0x20 ADD DUP11 PUSH1 0x2 DUP2 GT ISZERO PUSH2 0x1491 JUMPI PUSH2 0x1490 PUSH2 0x205C JUMP JUMPDEST JUMPDEST DUP2 MSTORE PUSH1 0x20 ADD DUP10 DUP10 DUP1 DUP1 PUSH1 0x1F ADD PUSH1 0x20 DUP1 SWAP2 DIV MUL PUSH1 0x20 ADD PUSH1 0x40 MLOAD SWAP1 DUP2 ADD PUSH1 0x40 MSTORE DUP1 SWAP4 SWAP3 SWAP2 SWAP1 DUP2 DUP2 MSTORE PUSH1 0x20 ADD DUP4 DUP4 DUP1 DUP3 DUP5 CALLDATACOPY PUSH0 DUP2 DUP5 ADD MSTORE PUSH1 0x1F NOT PUSH1 0x1F DUP3 ADD AND SWAP1 POP DUP1 DUP4 ADD SWAP3 POP POP POP POP POP POP POP DUP2 MSTORE PUSH1 0x20 ADD DUP8 PUSH4 0xFFFFFFFF AND DUP2 MSTORE PUSH1 0x20 ADD DUP7 DUP7 DUP1 DUP1 PUSH1 0x1F ADD PUSH1 0x20 DUP1 SWAP2 DIV MUL PUSH1 0x20 ADD PUSH1 0x40 MLOAD SWAP1 DUP2 ADD PUSH1 0x40 MSTORE DUP1 SWAP4 SWAP3 SWAP2 SWAP1 DUP2 DUP2 MSTORE PUSH1 0x20 ADD DUP4 DUP4 DUP1 DUP3 DUP5 CALLDATACOPY PUSH0 DUP2 DUP5 ADD MSTORE PUSH1 0x1F NOT PUSH1 0x1F DUP3 ADD AND SWAP1 POP DUP1 DUP4 ADD SWAP3 POP POP POP POP POP POP POP DUP2 MSTORE PUSH1 0x20 ADD DUP5 DUP5 DUP1 DUP1 PUSH1 0x1F ADD PUSH1 0x20 DUP1 SWAP2 DIV MUL PUSH1 0x20 ADD PUSH1 0x40 MLOAD SWAP1 DUP2 ADD PUSH1 0x40 MSTORE DUP1 SWAP4 SWAP3 SWAP2 SWAP1 DUP2 DUP2 MSTORE PUSH1 0x20 ADD DUP4 DUP4 DUP1 DUP3 DUP5 CALLDATACOPY PUSH0 DUP2 DUP5 ADD MSTORE PUSH1 0x1F NOT PUSH1 0x1F DUP3 ADD AND SWAP1 POP DUP1 DUP4 ADD SWAP3 POP POP POP POP POP POP POP DUP2 MSTORE PUSH1 0x20 ADD DUP3 ISZERO ISZERO DUP2 MSTORE PUSH1 0x20 ADD PUSH1 0x1 ISZERO ISZERO DUP2 MSTORE PUSH1 0x20 ADD TIMESTAMP PUSH8 0xFFFFFFFFFFFFFFFF AND DUP2 MSTORE PUSH1 0x20 ADD PUSH1 0x1 ISZERO ISZERO DUP2 MSTORE POP PUSH0 PUSH0 DUP13 PUSH20 0xFFFFFFFFFFFFFFFFFFFFFFFFFFFFFFFFFFFFFFFF AND PUSH20 0xFFFFFFFFFFFFFFFFFFFFFFFFFFFFFFFFFFFFFFFF AND DUP2 MSTORE PUSH1 0x20 ADD SWAP1 DUP2 MSTORE PUSH1 0x20 ADD PUSH0 KECCAK256 PUSH0 DUP3 ADD MLOAD DUP2 PUSH0 ADD PUSH0 PUSH2 0x100 EXP DUP2 SLOAD DUP2 PUSH20 0xFFFFFFFFFFFFFFFFFFFFFFFFFFFFFFFFFFFFFFFF MUL NOT AND SWAP1 DUP4 PUSH20 0xFFFFFFFFFFFFFFFFFFFFFFFFFFFFFFFFFFFFFFFF AND MUL OR SWAP1 SSTORE POP PUSH1 0x20 DUP3 ADD MLOAD DUP2 PUSH0 ADD PUSH1 0x14 PUSH2 0x100 EXP DUP2 SLOAD DUP2 PUSH1 0xFF MUL NOT AND SWAP1 DUP4 PUSH1 0x2 DUP2 GT ISZERO PUSH2 0x164F JUMPI PUSH2 0x164E PUSH2 0x205C JUMP JUMPDEST JUMPDEST MUL OR SWAP1 SSTORE POP PUSH1 0x40 DUP3 ADD MLOAD DUP2 PUSH1 0x1 ADD SWAP1 DUP2 PUSH2 0x1669 SWAP2 SWAP1 PUSH2 0x27A4 JUMP JUMPDEST POP PUSH1 0x60 DUP3 ADD MLOAD DUP2 PUSH1 0x2 ADD PUSH0 PUSH2 0x100 EXP DUP2 SLOAD DUP2 PUSH4 0xFFFFFFFF MUL NOT AND SWAP1 DUP4 PUSH4 0xFFFFFFFF AND MUL OR SWAP1 SSTORE POP PUSH1 0x80 DUP3 ADD MLOAD DUP2 PUSH1 0x3 ADD SWAP1 DUP2 PUSH2 0x16A5 SWAP2 SWAP1 PUSH2 0x27A4 JUMP JUMPDEST POP PUSH1 0xA0 DUP3 ADD MLOAD DUP2 PUSH1 0x4 ADD SWAP1 DUP2 PUSH2 0x16BB SWAP2 SWAP1 PUSH2 0x27A4 JUMP JUMPDEST POP PUSH1 0xC0 DUP3 ADD MLOAD DUP2 PUSH1 0x5 ADD PUSH0 PUSH2 0x100 EXP DUP2 SLOAD DUP2 PUSH1 0xFF MUL NOT AND SWAP1 DUP4 ISZERO ISZERO MUL OR SWAP1 SSTORE POP PUSH1 0xE0 DUP3 ADD MLOAD DUP2 PUSH1 0x5 ADD PUSH1 0x1 PUSH2 0x100 EXP DUP2 SLOAD DUP2 PUSH1 0xFF MUL NOT AND SWAP1 DUP4 ISZERO ISZERO MUL OR SWAP1 SSTORE POP PUSH2 0x100 DUP3 ADD MLOAD DUP2 PUSH1 0x5 ADD PUSH1 0x2 PUSH2 0x100 EXP DUP2 SLOAD DUP2 PUSH8 0xFFFFFFFFFFFFFFFF MUL NOT AND SWAP1 DUP4 PUSH8 0xFFFFFFFFFFFFFFFF AND MUL OR SWAP1 SSTORE POP PUSH2 0x120 DUP3 ADD MLOAD DUP2 PUSH1 0x5 ADD PUSH1 0xA PUSH2 0x100 EXP DUP2 SLOAD DUP2 PUSH1 0xFF MUL NOT AND SWAP1 DUP4 ISZERO ISZERO MUL OR SWAP1 SSTORE POP SWAP1 POP POP PUSH1 0x1 PUSH1 0x6 PUSH0 DUP3 DUP3 SLOAD PUSH2 0x1761 SWAP2 SWAP1 PUSH2 0x2873 JUMP JUMPDEST SWAP3 POP POP DUP2 SWAP1 SSTORE POP POP POP POP POP POP POP POP POP POP POP JUMP JUMPDEST PUSH1 0x60 PUSH0 PUSH1 0x3 PUSH0 DUP5 PUSH20 0xFFFFFFFFFFFFFFFFFFFFFFFFFFFFFFFFFFFFFFFF AND PUSH20 0xFFFFFFFFFFFFFFFFFFFFFFFFFFFFFFFFFFFFFFFF AND DUP2 MSTORE PUSH1 0x20 ADD SWAP1 DUP2 MSTORE PUSH1 0x20 ADD PUSH0 KECCAK256 SWAP1 POP PUSH0 DUP2 DUP1 SLOAD SWAP1 POP SWAP1 POP PUSH0 DUP2 PUSH8 0xFFFFFFFFFFFFFFFF DUP2 GT ISZERO PUSH2 0x17D9 JUMPI PUSH2 0x17D8 PUSH2 0x24E0 JUMP JUMPDEST JUMPDEST PUSH1 0x40 MLOAD SWAP1 DUP1 DUP3 MSTORE DUP1 PUSH1 0x20 MUL PUSH1 0x20 ADD DUP3 ADD PUSH1 0x40 MSTORE DUP1 ISZERO PUSH2 0x1812 JUMPI DUP2 PUSH1 0x20 ADD JUMPDEST PUSH2 0x17FF PUSH2 0x1B02 JUMP JUMPDEST DUP2 MSTORE PUSH1 0x20 ADD SWAP1 PUSH1 0x1 SWAP1 SUB SWAP1 DUP2 PUSH2 0x17F7 JUMPI SWAP1 POP JUMPDEST POP SWAP1 POP PUSH0 PUSH0 SWAP1 POP JUMPDEST DUP3 DUP2 LT ISZERO PUSH2 0x1871 JUMPI PUSH2 0x1846 DUP5 DUP3 DUP2 SLOAD DUP2 LT PUSH2 0x1838 JUMPI PUSH2 0x1837 PUSH2 0x250D JUMP JUMPDEST JUMPDEST SWAP1 PUSH0 MSTORE PUSH1 0x20 PUSH0 KECCAK256 ADD SLOAD PUSH2 0x331 JUMP JUMPDEST DUP3 DUP3 DUP2 MLOAD DUP2 LT PUSH2 0x1859 JUMPI PUSH2 0x1858 PUSH2 0x250D JUMP JUMPDEST JUMPDEST PUSH1 0x20 MUL PUSH1 0x20 ADD ADD DUP2 SWAP1 MSTORE POP DUP1 DUP1 PUSH1 0x1 ADD SWAP2 POP POP PUSH2 0x181A JUMP JUMPDEST POP DUP1 SWAP4 POP POP POP POP SWAP2 SWAP1 POP JUMP JUMPDEST PUSH0 PUSH1 0x1 PUSH0 DUP8 PUSH4 0xFFFFFFFF AND DUP2 MSTORE PUSH1 0x20 ADD SWAP1 DUP2 MSTORE PUSH1 0x20 ADD PUSH0 KECCAK256 SWAP1 POP DUP1 PUSH1 0x6 ADD PUSH1 0x10 SWAP1 SLOAD SWAP1 PUSH2 0x100 EXP SWAP1 DIV PUSH1 0xFF AND PUSH2 0x18DF JUMPI PUSH1 0x40 MLOAD PUSH32 0x3E07F1A100000000000000000000000000000000000000000000000000000000 DUP2 MSTORE PUSH1 0x4 ADD PUSH1 0x40 MLOAD DUP1 SWAP2 SUB SWAP1 REVERT JUMPDEST CALLER PUSH20 0xFFFFFFFFFFFFFFFFFFFFFFFFFFFFFFFFFFFFFFFF AND DUP2 PUSH1 0x2 ADD PUSH0 SWAP1 SLOAD SWAP1 PUSH2 0x100 EXP SWAP1 DIV PUSH20 0xFFFFFFFFFFFFFFFFFFFFFFFFFFFFFFFFFFFFFFFF AND PUSH20 0xFFFFFFFFFFFFFFFFFFFFFFFFFFFFFFFFFFFFFFFF AND EQ PUSH2 0x1967 JUMPI PUSH1 0x40 MLOAD PUSH32 0x82B4290000000000000000000000000000000000000000000000000000000000 DUP2 MSTORE PUSH1 0x4 ADD PUSH1 0x40 MLOAD DUP1 SWAP2 SUB SWAP1 REVERT JUMPDEST DUP5 DUP5 DUP3 PUSH1 0x4 ADD SWAP2 DUP3 PUSH2 0x197A SWAP3 SWAP2 SWAP1 PUSH2 0x28B0 JUMP JUMPDEST POP DUP3 DUP3 DUP3 PUSH1 0x5 ADD SWAP2 DUP3 PUSH2 0x198E SWAP3 SWAP2 SWAP1 PUSH2 0x28B0 JUMP JUMPDEST POP TIMESTAMP DUP2 PUSH1 0x6 ADD PUSH1 0x8 PUSH2 0x100 EXP DUP2 SLOAD DUP2 PUSH8 0xFFFFFFFFFFFFFFFF MUL NOT AND SWAP1 DUP4 PUSH8 0xFFFFFFFFFFFFFFFF AND MUL OR SWAP1 SSTORE POP POP POP POP POP POP POP JUMP JUMPDEST PUSH0 PUSH0 PUSH0 DUP4 PUSH20 0xFFFFFFFFFFFFFFFFFFFFFFFFFFFFFFFFFFFFFFFF AND PUSH20 0xFFFFFFFFFFFFFFFFFFFFFFFFFFFFFFFFFFFFFFFF AND DUP2 MSTORE PUSH1 0x20 ADD SWAP1 DUP2 MSTORE PUSH1 0x20 ADD PUSH0 KECCAK256 SWAP1 POP DUP1 PUSH1 0x5 ADD PUSH1 0xA SWAP1 SLOAD SWAP1 PUSH2 0x100 EXP SWAP1 DIV PUSH1 0xFF AND PUSH2 0x1A49 JUMPI PUSH1 0x40 MLOAD PUSH32 0x670A68CC00000000000000000000000000000000000000000000000000000000 DUP2 MSTORE PUSH1 0x4 ADD PUSH1 0x40 MLOAD DUP1 SWAP2 SUB SWAP1 REVERT JUMPDEST PUSH0 PUSH1 0x2 DUP2 GT ISZERO PUSH2 0x1A5C JUMPI PUSH2 0x1A5B PUSH2 0x205C JUMP JUMPDEST JUMPDEST DUP2 PUSH0 ADD PUSH1 0x14 SWAP1 SLOAD SWAP1 PUSH2 0x100 EXP SWAP1 DIV PUSH1 0xFF AND PUSH1 0x2 DUP2 GT ISZERO PUSH2 0x1A7F JUMPI PUSH2 0x1A7E PUSH2 0x205C JUMP JUMPDEST JUMPDEST EQ PUSH2 0x1AB6 JUMPI PUSH1 0x40 MLOAD PUSH32 0x82B4290000000000000000000000000000000000000000000000000000000000 DUP2 MSTORE PUSH1 0x4 ADD PUSH1 0x40 MLOAD DUP1 SWAP2 SUB SWAP1 REVERT JUMPDEST DUP1 PUSH1 0x5 ADD PUSH1 0x1 SWAP1 SLOAD SWAP1 PUSH2 0x100 EXP SWAP1 DIV PUSH1 0xFF AND PUSH2 0x1AFE JUMPI PUSH1 0x40 MLOAD PUSH32 0x3310E69100000000000000000000000000000000000000000000000000000000 DUP2 MSTORE PUSH1 0x4 ADD PUSH1 0x40 MLOAD DUP1 SWAP2 SUB SWAP1 REVERT JUMPDEST POP POP JUMP JUMPDEST PUSH1 0x40 MLOAD DUP1 PUSH2 0x140 ADD PUSH1 0x40 MSTORE DUP1 PUSH0 PUSH4 0xFFFFFFFF AND DUP2 MSTORE PUSH1 0x20 ADD PUSH0 PUSH20 0xFFFFFFFFFFFFFFFFFFFFFFFFFFFFFFFFFFFFFFFF AND DUP2 MSTORE PUSH1 0x20 ADD PUSH1 0x60 DUP2 MSTORE PUSH1 0x20 ADD PUSH0 PUSH20 0xFFFFFFFFFFFFFFFFFFFFFFFFFFFFFFFFFFFFFFFF AND DUP2 MSTORE PUSH1 0x20 ADD PUSH1 0x60 DUP2 MSTORE PUSH1 0x20 ADD PUSH1 0x60 DUP2 MSTORE PUSH1 0x20 ADD PUSH1 0x60 DUP2 MSTORE PUSH1 0x20 ADD PUSH0 PUSH8 0xFFFFFFFFFFFFFFFF AND DUP2 MSTORE PUSH1 0x20 ADD PUSH0 PUSH8 0xFFFFFFFFFFFFFFFF AND DUP2 MSTORE PUSH1 0x20 ADD PUSH0 ISZERO ISZERO DUP2 MSTORE POP SWAP1 JUMP JUMPDEST PUSH0 PUSH0 REVERT JUMPDEST PUSH0 PUSH0 REVERT JUMPDEST PUSH0 PUSH20 0xFFFFFFFFFFFFFFFFFFFFFFFFFFFFFFFFFFFFFFFF DUP3 AND SWAP1 POP SWAP2 SWAP1 POP JUMP JUMPDEST PUSH0 PUSH2 0x1BC8 DUP3 PUSH2 0x1B9F JUMP JUMPDEST SWAP1 POP SWAP2 SWAP1 POP JUMP JUMPDEST PUSH2 0x1BD8 DUP2 PUSH2 0x1BBE JUMP JUMPDEST DUP2 EQ PUSH2 0x1BE2 JUMPI PUSH0 PUSH0 REVERT JUMPDEST POP JUMP JUMPDEST PUSH0 DUP2 CALLDATALOAD SWAP1 POP PUSH2 0x1BF3 DUP2 PUSH2 0x1BCF JUMP JUMPDEST SWAP3 SWAP2 POP POP JUMP JUMPDEST PUSH0 PUSH1 0x20 DUP3 DUP5 SUB SLT ISZERO PUSH2 0x1C0E JUMPI PUSH2 0x1C0D PUSH2 0x1B97 JUMP JUMPDEST JUMPDEST PUSH0 PUSH2 0x1C1B DUP5 DUP3 DUP6 ADD PUSH2 0x1BE5 JUMP JUMPDEST SWAP2 POP POP SWAP3 SWAP2 POP POP JUMP JUMPDEST PUSH0 DUP2 MLOAD SWAP1 POP SWAP2 SWAP1 POP JUMP JUMPDEST PUSH0 DUP3 DUP3 MSTORE PUSH1 0x20 DUP3 ADD SWAP1 POP SWAP3 SWAP2 POP POP JUMP JUMPDEST PUSH0 DUP2 SWAP1 POP PUSH1 0x20 DUP3 ADD SWAP1 POP SWAP2 SWAP1 POP JUMP JUMPDEST PUSH0 PUSH4 0xFFFFFFFF DUP3 AND SWAP1 POP SWAP2 SWAP1 POP JUMP JUMPDEST PUSH2 0x1C65 DUP2 PUSH2 0x1C4D JUMP JUMPDEST DUP3 MSTORE POP POP JUMP JUMPDEST PUSH2 0x1C74 DUP2 PUSH2 0x1BBE JUMP JUMPDEST DUP3 MSTORE POP POP JUMP JUMPDEST PUSH0 DUP2 MLOAD SWAP1 POP SWAP2 SWAP1 POP JUMP JUMPDEST PUSH0 DUP3 DUP3 MSTORE PUSH1 0x20 DUP3 ADD SWAP1 POP SWAP3 SWAP2 POP POP JUMP JUMPDEST DUP3 DUP2 DUP4 MCOPY PUSH0 DUP4 DUP4 ADD MSTORE POP POP POP JUMP JUMPDEST PUSH0 PUSH1 0x1F NOT PUSH1 0x1F DUP4 ADD AND SWAP1 POP SWAP2 SWAP1 POP JUMP JUMPDEST PUSH0 PUSH2 0x1CBC DUP3 PUSH2 0x1C7A JUMP JUMPDEST PUSH2 0x1CC6 DUP2 DUP6 PUSH2 0x1C84 JUMP JUMPDEST SWAP4 POP PUSH2 0x1CD6 DUP2 DUP6 PUSH1 0x20 DUP7 ADD PUSH2 0x1C94 JUMP JUMPDEST PUSH2 0x1CDF DUP2 PUSH2 0x1CA2 JUMP JUMPDEST DUP5 ADD SWAP2 POP POP SWAP3 SWAP2 POP POP JUMP JUMPDEST PUSH0 PUSH8 0xFFFFFFFFFFFFFFFF DUP3 AND SWAP1 POP SWAP2 SWAP1 POP JUMP JUMPDEST PUSH2 0x1D06 DUP2 PUSH2 0x1CEA JUMP JUMPDEST DUP3 MSTORE POP POP JUMP JUMPDEST PUSH0 DUP2 ISZERO ISZERO SWAP1 POP SWAP2 SWAP1 POP JUMP JUMPDEST PUSH2 0x1D20 DUP2 PUSH2 0x1D0C JUMP JUMPDEST DUP3 MSTORE POP POP JUMP JUMPDEST PUSH0 PUSH2 0x140 DUP4 ADD PUSH0 DUP4 ADD MLOAD PUSH2 0x1D3C PUSH0 DUP7 ADD DUP3 PUSH2 0x1C5C JUMP JUMPDEST POP PUSH1 0x20 DUP4 ADD MLOAD PUSH2 0x1D4F PUSH1 0x20 DUP7 ADD DUP3 PUSH2 0x1C6B JUMP JUMPDEST POP PUSH1 0x40 DUP4 ADD MLOAD DUP5 DUP3 SUB PUSH1 0x40 DUP7 ADD MSTORE PUSH2 0x1D67 DUP3 DUP3 PUSH2 0x1CB2 JUMP JUMPDEST SWAP2 POP POP PUSH1 0x60 DUP4 ADD MLOAD PUSH2 0x1D7C PUSH1 0x60 DUP7 ADD DUP3 PUSH2 0x1C6B JUMP JUMPDEST POP PUSH1 0x80 DUP4 ADD MLOAD DUP5 DUP3 SUB PUSH1 0x80 DUP7 ADD MSTORE PUSH2 0x1D94 DUP3 DUP3 PUSH2 0x1CB2 JUMP JUMPDEST SWAP2 POP POP PUSH1 0xA0 DUP4 ADD MLOAD DUP5 DUP3 SUB PUSH1 0xA0 DUP7 ADD MSTORE PUSH2 0x1DAE DUP3 DUP3 PUSH2 0x1CB2 JUMP JUMPDEST SWAP2 POP POP PUSH1 0xC0 DUP4 ADD MLOAD DUP5 DUP3 SUB PUSH1 0xC0 DUP7 ADD MSTORE PUSH2 0x1DC8 DUP3 DUP3 PUSH2 0x1CB2 JUMP JUMPDEST SWAP2 POP POP PUSH1 0xE0 DUP4 ADD MLOAD PUSH2 0x1DDD PUSH1 0xE0 DUP7 ADD DUP3 PUSH2 0x1CFD JUMP JUMPDEST POP PUSH2 0x100 DUP4 ADD MLOAD PUSH2 0x1DF2 PUSH2 0x100 DUP7 ADD DUP3 PUSH2 0x1CFD JUMP JUMPDEST POP PUSH2 0x120 DUP4 ADD MLOAD PUSH2 0x1E07 PUSH2 0x120 DUP7 ADD DUP3 PUSH2 0x1D17 JUMP JUMPDEST POP DUP1 SWAP2 POP POP SWAP3 SWAP2 POP POP JUMP JUMPDEST PUSH0 PUSH2 0x1E1D DUP4 DUP4 PUSH2 0x1D26 JUMP JUMPDEST SWAP1 POP SWAP3 SWAP2 POP POP JUMP JUMPDEST PUSH0 PUSH1 0x20 DUP3 ADD SWAP1 POP SWAP2 SWAP1 POP JUMP JUMPDEST PUSH0 PUSH2 0x1E3B DUP3 PUSH2 0x1C24 JUMP JUMPDEST PUSH2 0x1E45 DUP2 DUP6 PUSH2 0x1C2E JUMP JUMPDEST SWAP4 POP DUP4 PUSH1 0x20 DUP3 MUL DUP6 ADD PUSH2 0x1E57 DUP6 PUSH2 0x1C3E JUMP JUMPDEST DUP1 PUSH0 JUMPDEST DUP6 DUP2 LT ISZERO PUSH2 0x1E92 JUMPI DUP5 DUP5 SUB DUP10 MSTORE DUP2 MLOAD PUSH2 0x1E73 DUP6 DUP3 PUSH2 0x1E12 JUMP JUMPDEST SWAP5 POP PUSH2 0x1E7E DUP4 PUSH2 0x1E25 JUMP JUMPDEST SWAP3 POP PUSH1 0x20 DUP11 ADD SWAP10 POP POP PUSH1 0x1 DUP2 ADD SWAP1 POP PUSH2 0x1E5A JUMP JUMPDEST POP DUP3 SWAP8 POP DUP8 SWAP6 POP POP POP POP POP POP SWAP3 SWAP2 POP POP JUMP JUMPDEST PUSH0 PUSH1 0x20 DUP3 ADD SWAP1 POP DUP2 DUP2 SUB PUSH0 DUP4 ADD MSTORE PUSH2 0x1EBC DUP2 DUP5 PUSH2 0x1E31 JUMP JUMPDEST SWAP1 POP SWAP3 SWAP2 POP POP JUMP JUMPDEST PUSH2 0x1ECD DUP2 PUSH2 0x1C4D JUMP JUMPDEST DUP2 EQ PUSH2 0x1ED7 JUMPI PUSH0 PUSH0 REVERT JUMPDEST POP JUMP JUMPDEST PUSH0 DUP2 CALLDATALOAD SWAP1 POP PUSH2 0x1EE8 DUP2 PUSH2 0x1EC4 JUMP JUMPDEST SWAP3 SWAP2 POP POP JUMP JUMPDEST PUSH0 PUSH1 0x20 DUP3 DUP5 SUB SLT ISZERO PUSH2 0x1F03 JUMPI PUSH2 0x1F02 PUSH2 0x1B97 JUMP JUMPDEST JUMPDEST PUSH0 PUSH2 0x1F10 DUP5 DUP3 DUP6 ADD PUSH2 0x1EDA JUMP JUMPDEST SWAP2 POP POP SWAP3 SWAP2 POP POP JUMP JUMPDEST PUSH0 PUSH2 0x140 DUP4 ADD PUSH0 DUP4 ADD MLOAD PUSH2 0x1F2F PUSH0 DUP7 ADD DUP3 PUSH2 0x1C5C JUMP JUMPDEST POP PUSH1 0x20 DUP4 ADD MLOAD PUSH2 0x1F42 PUSH1 0x20 DUP7 ADD DUP3 PUSH2 0x1C6B JUMP JUMPDEST POP PUSH1 0x40 DUP4 ADD MLOAD DUP5 DUP3 SUB PUSH1 0x40 DUP7 ADD MSTORE PUSH2 0x1F5A DUP3 DUP3 PUSH2 0x1CB2 JUMP JUMPDEST SWAP2 POP POP PUSH1 0x60 DUP4 ADD MLOAD PUSH2 0x1F6F PUSH1 0x60 DUP7 ADD DUP3 PUSH2 0x1C6B JUMP JUMPDEST POP PUSH1 0x80 DUP4 ADD MLOAD DUP5 DUP3 SUB PUSH1 0x80 DUP7 ADD MSTORE PUSH2 0x1F87 DUP3 DUP3 PUSH2 0x1CB2 JUMP JUMPDEST SWAP2 POP POP PUSH1 0xA0 DUP4 ADD MLOAD DUP5 DUP3 SUB PUSH1 0xA0 DUP7 ADD MSTORE PUSH2 0x1FA1 DUP3 DUP3 PUSH2 0x1CB2 JUMP JUMPDEST SWAP2 POP POP PUSH1 0xC0 DUP4 ADD MLOAD DUP5 DUP3 SUB PUSH1 0xC0 DUP7 ADD MSTORE PUSH2 0x1FBB DUP3 DUP3 PUSH2 0x1CB2 JUMP JUMPDEST SWAP2 POP POP PUSH1 0xE0 DUP4 ADD MLOAD PUSH2 0x1FD0 PUSH1 0xE0 DUP7 ADD DUP3 PUSH2 0x1CFD JUMP JUMPDEST POP PUSH2 0x100 DUP4 ADD MLOAD PUSH2 0x1FE5 PUSH2 0x100 DUP7 ADD DUP3 PUSH2 0x1CFD JUMP JUMPDEST POP PUSH2 0x120 DUP4 ADD MLOAD PUSH2 0x1FFA PUSH2 0x120 DUP7 ADD DUP3 PUSH2 0x1D17 JUMP JUMPDEST POP DUP1 SWAP2 POP POP SWAP3 SWAP2 POP POP JUMP JUMPDEST PUSH0 PUSH1 0x20 DUP3 ADD SWAP1 POP DUP2 DUP2 SUB PUSH0 DUP4 ADD MSTORE PUSH2 0x201D DUP2 DUP5 PUSH2 0x1F19 JUMP JUMPDEST SWAP1 POP SWAP3 SWAP2 POP POP JUMP JUMPDEST PUSH2 0x202E DUP2 PUSH2 0x1C4D JUMP JUMPDEST DUP3 MSTORE POP POP JUMP JUMPDEST PUSH0 PUSH1 0x20 DUP3 ADD SWAP1 POP PUSH2 0x2047 PUSH0 DUP4 ADD DUP5 PUSH2 0x2025 JUMP JUMPDEST SWAP3 SWAP2 POP POP JUMP JUMPDEST PUSH2 0x2056 DUP2 PUSH2 0x1BBE JUMP JUMPDEST DUP3 MSTORE POP POP JUMP JUMPDEST PUSH32 0x4E487B7100000000000000000000000000000000000000000000000000000000 PUSH0 MSTORE PUSH1 0x21 PUSH1 0x4 MSTORE PUSH1 0x24 PUSH0 REVERT JUMPDEST PUSH1 0x3 DUP2 LT PUSH2 0x209A JUMPI PUSH2 0x2099 PUSH2 0x205C JUMP JUMPDEST JUMPDEST POP JUMP JUMPDEST PUSH0 DUP2 SWAP1 POP PUSH2 0x20AA DUP3 PUSH2 0x2089 JUMP JUMPDEST SWAP2 SWAP1 POP JUMP JUMPDEST PUSH0 PUSH2 0x20B9 DUP3 PUSH2 0x209D JUMP JUMPDEST SWAP1 POP SWAP2 SWAP1 POP JUMP JUMPDEST PUSH2 0x20C9 DUP2 PUSH2 0x20AF JUMP JUMPDEST DUP3 MSTORE POP POP JUMP JUMPDEST PUSH0 DUP3 DUP3 MSTORE PUSH1 0x20 DUP3 ADD SWAP1 POP SWAP3 SWAP2 POP POP JUMP JUMPDEST PUSH0 PUSH2 0x20E9 DUP3 PUSH2 0x1C7A JUMP JUMPDEST PUSH2 0x20F3 DUP2 DUP6 PUSH2 0x20CF JUMP JUMPDEST SWAP4 POP PUSH2 0x2103 DUP2 DUP6 PUSH1 0x20 DUP7 ADD PUSH2 0x1C94 JUMP JUMPDEST PUSH2 0x210C DUP2 PUSH2 0x1CA2 JUMP JUMPDEST DUP5 ADD SWAP2 POP POP SWAP3 SWAP2 POP POP JUMP JUMPDEST PUSH2 0x2120 DUP2 PUSH2 0x1D0C JUMP JUMPDEST DUP3 MSTORE POP POP JUMP JUMPDEST PUSH2 0x212F DUP2 PUSH2 0x1CEA JUMP JUMPDEST DUP3 MSTORE POP POP JUMP JUMPDEST PUSH0 PUSH2 0x120 DUP3 ADD SWAP1 POP PUSH2 0x2149 PUSH0 DUP4 ADD DUP13 PUSH2 0x204D JUMP JUMPDEST PUSH2 0x2156 PUSH1 0x20 DUP4 ADD DUP12 PUSH2 0x20C0 JUMP JUMPDEST DUP2 DUP2 SUB PUSH1 0x40 DUP4 ADD MSTORE PUSH2 0x2168 DUP2 DUP11 PUSH2 0x20DF JUMP JUMPDEST SWAP1 POP PUSH2 0x2177 PUSH1 0x60 DUP4 ADD DUP10 PUSH2 0x2025 JUMP JUMPDEST DUP2 DUP2 SUB PUSH1 0x80 DUP4 ADD MSTORE PUSH2 0x2189 DUP2 DUP9 PUSH2 0x20DF JUMP JUMPDEST SWAP1 POP DUP2 DUP2 SUB PUSH1 0xA0 DUP4 ADD MSTORE PUSH2 0x219D DUP2 DUP8 PUSH2 0x20DF JUMP JUMPDEST SWAP1 POP PUSH2 0x21AC PUSH1 0xC0 DUP4 ADD DUP7 PUSH2 0x2117 JUMP JUMPDEST PUSH2 0x21B9 PUSH1 0xE0 DUP4 ADD DUP6 PUSH2 0x2117 JUMP JUMPDEST PUSH2 0x21C7 PUSH2 0x100 DUP4 ADD DUP5 PUSH2 0x2126 JUMP JUMPDEST SWAP11 SWAP10 POP POP POP POP POP POP POP POP POP POP JUMP JUMPDEST PUSH2 0x21DE DUP2 PUSH2 0x1D0C JUMP JUMPDEST DUP2 EQ PUSH2 0x21E8 JUMPI PUSH0 PUSH0 REVERT JUMPDEST POP JUMP JUMPDEST PUSH0 DUP2 CALLDATALOAD SWAP1 POP PUSH2 0x21F9 DUP2 PUSH2 0x21D5 JUMP JUMPDEST SWAP3 SWAP2 POP POP JUMP JUMPDEST PUSH0 PUSH0 PUSH1 0x40 DUP4 DUP6 SUB SLT ISZERO PUSH2 0x2215 JUMPI PUSH2 0x2214 PUSH2 0x1B97 JUMP JUMPDEST JUMPDEST PUSH0 PUSH2 0x2222 DUP6 DUP3 DUP7 ADD PUSH2 0x1BE5 JUMP JUMPDEST SWAP3 POP POP PUSH1 0x20 PUSH2 0x2233 DUP6 DUP3 DUP7 ADD PUSH2 0x21EB JUMP JUMPDEST SWAP2 POP POP SWAP3 POP SWAP3 SWAP1 POP JUMP JUMPDEST PUSH0 PUSH0 REVERT JUMPDEST PUSH0 PUSH0 REVERT JUMPDEST PUSH0 PUSH0 REVERT JUMPDEST PUSH0 PUSH0 DUP4 PUSH1 0x1F DUP5 ADD SLT PUSH2 0x225E JUMPI PUSH2 0x225D PUSH2 0x223D JUMP JUMPDEST JUMPDEST DUP3 CALLDATALOAD SWAP1 POP PUSH8 0xFFFFFFFFFFFFFFFF DUP2 GT ISZERO PUSH2 0x227B JUMPI PUSH2 0x227A PUSH2 0x2241 JUMP JUMPDEST JUMPDEST PUSH1 0x20 DUP4 ADD SWAP2 POP DUP4 PUSH1 0x1 DUP3 MUL DUP4 ADD GT ISZERO PUSH2 0x2297 JUMPI PUSH2 0x2296 PUSH2 0x2245 JUMP JUMPDEST JUMPDEST SWAP3 POP SWAP3 SWAP1 POP JUMP JUMPDEST PUSH0 PUSH0 PUSH0 PUSH0 PUSH0 PUSH1 0x60 DUP7 DUP9 SUB SLT ISZERO PUSH2 0x22B7 JUMPI PUSH2 0x22B6 PUSH2 0x1B97 JUMP JUMPDEST JUMPDEST PUSH0 PUSH2 0x22C4 DUP9 DUP3 DUP10 ADD PUSH2 0x1BE5 JUMP JUMPDEST SWAP6 POP POP PUSH1 0x20 DUP7 ADD CALLDATALOAD PUSH8 0xFFFFFFFFFFFFFFFF DUP2 GT ISZERO PUSH2 0x22E5 JUMPI PUSH2 0x22E4 PUSH2 0x1B9B JUMP JUMPDEST JUMPDEST PUSH2 0x22F1 DUP9 DUP3 DUP10 ADD PUSH2 0x2249 JUMP JUMPDEST SWAP5 POP SWAP5 POP POP PUSH1 0x40 DUP7 ADD CALLDATALOAD PUSH8 0xFFFFFFFFFFFFFFFF DUP2 GT ISZERO PUSH2 0x2314 JUMPI PUSH2 0x2313 PUSH2 0x1B9B JUMP JUMPDEST JUMPDEST PUSH2 0x2320 DUP9 DUP3 DUP10 ADD PUSH2 0x2249 JUMP JUMPDEST SWAP3 POP SWAP3 POP POP SWAP3 SWAP6 POP SWAP3 SWAP6 SWAP1 SWAP4 POP JUMP JUMPDEST PUSH1 0x3 DUP2 LT PUSH2 0x233B JUMPI PUSH0 PUSH0 REVERT JUMPDEST POP JUMP JUMPDEST PUSH0 DUP2 CALLDATALOAD SWAP1 POP PUSH2 0x234C DUP2 PUSH2 0x232F JUMP JUMPDEST SWAP3 SWAP2 POP POP JUMP JUMPDEST PUSH0 PUSH0 PUSH0 PUSH0 PUSH0 PUSH0 PUSH0 PUSH0 PUSH0 PUSH0 PUSH1 0xE0 DUP12 DUP14 SUB SLT ISZERO PUSH2 0x2370 JUMPI PUSH2 0x236F PUSH2 0x1B97 JUMP JUMPDEST JUMPDEST PUSH0 PUSH2 0x237D DUP14 DUP3 DUP15 ADD PUSH2 0x1BE5 JUMP JUMPDEST SWAP11 POP POP PUSH1 0x20 PUSH2 0x238E DUP14 DUP3 DUP15 ADD PUSH2 0x233E JUMP JUMPDEST SWAP10 POP POP PUSH1 0x40 DUP12 ADD CALLDATALOAD PUSH8 0xFFFFFFFFFFFFFFFF DUP2 GT ISZERO PUSH2 0x23AF JUMPI PUSH2 0x23AE PUSH2 0x1B9B JUMP JUMPDEST JUMPDEST PUSH2 0x23BB DUP14 DUP3 DUP15 ADD PUSH2 0x2249 JUMP JUMPDEST SWAP9 POP SWAP9 POP POP PUSH1 0x60 PUSH2 0x23CE DUP14 DUP3 DUP15 ADD PUSH2 0x1EDA JUMP JUMPDEST SWAP7 POP POP PUSH1 0x80 DUP12 ADD CALLDATALOAD PUSH8 0xFFFFFFFFFFFFFFFF DUP2 GT ISZERO PUSH2 0x23EF JUMPI PUSH2 0x23EE PUSH2 0x1B9B JUMP JUMPDEST JUMPDEST PUSH2 0x23FB DUP14 DUP3 DUP15 ADD PUSH2 0x2249 JUMP JUMPDEST SWAP6 POP SWAP6 POP POP PUSH1 0xA0 DUP12 ADD CALLDATALOAD PUSH8 0xFFFFFFFFFFFFFFFF DUP2 GT ISZERO PUSH2 0x241E JUMPI PUSH2 0x241D PUSH2 0x1B9B JUMP JUMPDEST JUMPDEST PUSH2 0x242A DUP14 DUP3 DUP15 ADD PUSH2 0x2249 JUMP JUMPDEST SWAP4 POP SWAP4 POP POP PUSH1 0xC0 PUSH2 0x243D DUP14 DUP3 DUP15 ADD PUSH2 0x21EB JUMP JUMPDEST SWAP2 POP POP SWAP3 SWAP6 SWAP9 SWAP12 SWAP2 SWAP5 SWAP8 SWAP11 POP SWAP3 SWAP6 SWAP9 POP JUMP JUMPDEST PUSH0 PUSH0 PUSH0 PUSH0 PUSH0 PUSH1 0x60 DUP7 DUP9 SUB SLT ISZERO PUSH2 0x2468 JUMPI PUSH2 0x2467 PUSH2 0x1B97 JUMP JUMPDEST JUMPDEST PUSH0 PUSH2 0x2475 DUP9 DUP3 DUP10 ADD PUSH2 0x1EDA JUMP JUMPDEST SWAP6 POP POP PUSH1 0x20 DUP7 ADD CALLDATALOAD PUSH8 0xFFFFFFFFFFFFFFFF DUP2 GT ISZERO PUSH2 0x2496 JUMPI PUSH2 0x2495 PUSH2 0x1B9B JUMP JUMPDEST JUMPDEST PUSH2 0x24A2 DUP9 DUP3 DUP10 ADD PUSH2 0x2249 JUMP JUMPDEST SWAP5 POP SWAP5 POP POP PUSH1 0x40 DUP7 ADD CALLDATALOAD PUSH8 0xFFFFFFFFFFFFFFFF DUP2 GT ISZERO PUSH2 0x24C5 JUMPI PUSH2 0x24C4 PUSH2 0x1B9B JUMP JUMPDEST JUMPDEST PUSH2 0x24D1 DUP9 DUP3 DUP10 ADD PUSH2 0x2249 JUMP JUMPDEST SWAP3 POP SWAP3 POP POP SWAP3 SWAP6 POP SWAP3 SWAP6 SWAP1 SWAP4 POP JUMP JUMPDEST PUSH32 0x4E487B7100000000000000000000000000000000000000000000000000000000 PUSH0 MSTORE PUSH1 0x41 PUSH1 0x4 MSTORE PUSH1 0x24 PUSH0 REVERT JUMPDEST PUSH32 0x4E487B7100000000000000000000000000000000000000000000000000000000 PUSH0 MSTORE PUSH1 0x32 PUSH1 0x4 MSTORE PUSH1 0x24 PUSH0 REVERT JUMPDEST PUSH32 0x4E487B7100000000000000000000000000000000000000000000000000000000 PUSH0 MSTORE PUSH1 0x22 PUSH1 0x4 MSTORE PUSH1 0x24 PUSH0 REVERT JUMPDEST PUSH0 PUSH1 0x2 DUP3 DIV SWAP1 POP PUSH1 0x1 DUP3 AND DUP1 PUSH2 0x257E JUMPI PUSH1 0x7F DUP3 AND SWAP2 POP JUMPDEST PUSH1 0x20 DUP3 LT DUP2 SUB PUSH2 0x2591 JUMPI PUSH2 0x2590 PUSH2 0x253A JUMP JUMPDEST JUMPDEST POP SWAP2 SWAP1 POP JUMP JUMPDEST PUSH32 0x4E487B7100000000000000000000000000000000000000000000000000000000 PUSH0 MSTORE PUSH1 0x11 PUSH1 0x4 MSTORE PUSH1 0x24 PUSH0 REVERT JUMPDEST PUSH0 PUSH2 0x25CE DUP3 PUSH2 0x1C4D JUMP JUMPDEST SWAP2 POP PUSH2 0x25D9 DUP4 PUSH2 0x1C4D JUMP JUMPDEST SWAP3 POP DUP3 DUP3 ADD SWAP1 POP PUSH4 0xFFFFFFFF DUP2 GT ISZERO PUSH2 0x25F5 JUMPI PUSH2 0x25F4 PUSH2 0x2597 JUMP JUMPDEST JUMPDEST SWAP3 SWAP2 POP POP JUMP JUMPDEST PUSH0 DUP2 SWAP1 POP DUP2 PUSH0 MSTORE PUSH1 0x20 PUSH0 KECCAK256 SWAP1 POP SWAP2 SWAP1 POP JUMP JUMPDEST PUSH0 PUSH1 0x20 PUSH1 0x1F DUP4 ADD DIV SWAP1 POP SWAP2 SWAP1 POP JUMP JUMPDEST PUSH0 DUP3 DUP3 SHL SWAP1 POP SWAP3 SWAP2 POP POP JUMP JUMPDEST PUSH0 PUSH1 0x8 DUP4 MUL PUSH2 0x2657 PUSH32 0xFFFFFFFFFFFFFFFFFFFFFFFFFFFFFFFFFFFFFFFFFFFFFFFFFFFFFFFFFFFFFFFF DUP3 PUSH2 0x261C JUMP JUMPDEST PUSH2 0x2661 DUP7 DUP4 PUSH2 0x261C JUMP JUMPDEST SWAP6 POP DUP1 NOT DUP5 AND SWAP4 POP DUP1 DUP7 AND DUP5 OR SWAP3 POP POP POP SWAP4 SWAP3 POP POP POP JUMP JUMPDEST PUSH0 DUP2 SWAP1 POP SWAP2 SWAP1 POP JUMP JUMPDEST PUSH0 DUP2 SWAP1 POP SWAP2 SWAP1 POP JUMP JUMPDEST PUSH0 PUSH2 0x26A5 PUSH2 0x26A0 PUSH2 0x269B DUP5 PUSH2 0x2679 JUMP JUMPDEST PUSH2 0x2682 JUMP JUMPDEST PUSH2 0x2679 JUMP JUMPDEST SWAP1 POP SWAP2 SWAP1 POP JUMP JUMPDEST PUSH0 DUP2 SWAP1 POP SWAP2 SWAP1 POP JUMP JUMPDEST PUSH2 0x26BE DUP4 PUSH2 0x268B JUMP JUMPDEST PUSH2 0x26D2 PUSH2 0x26CA DUP3 PUSH2 0x26AC JUMP JUMPDEST DUP5 DUP5 SLOAD PUSH2 0x2628 JUMP JUMPDEST DUP3 SSTORE POP POP POP POP JUMP JUMPDEST PUSH0 PUSH0 SWAP1 POP SWAP1 JUMP JUMPDEST PUSH2 0x26E9 PUSH2 0x26DA JUMP JUMPDEST PUSH2 0x26F4 DUP2 DUP5 DUP5 PUSH2 0x26B5 JUMP JUMPDEST POP POP POP JUMP JUMPDEST JUMPDEST DUP2 DUP2 LT ISZERO PUSH2 0x2717 JUMPI PUSH2 0x270C PUSH0 DUP3 PUSH2 0x26E1 JUMP JUMPDEST PUSH1 0x1 DUP2 ADD SWAP1 POP PUSH2 0x26FA JUMP JUMPDEST POP POP JUMP JUMPDEST PUSH1 0x1F DUP3 GT ISZERO PUSH2 0x275C JUMPI PUSH2 0x272D DUP2 PUSH2 0x25FB JUMP JUMPDEST PUSH2 0x2736 DUP5 PUSH2 0x260D JUMP JUMPDEST DUP2 ADD PUSH1 0x20 DUP6 LT ISZERO PUSH2 0x2745 JUMPI DUP2 SWAP1 POP JUMPDEST PUSH2 0x2759 PUSH2 0x2751 DUP6 PUSH2 0x260D JUMP JUMPDEST DUP4 ADD DUP3 PUSH2 0x26F9 JUMP JUMPDEST POP POP JUMPDEST POP POP POP JUMP JUMPDEST PUSH0 DUP3 DUP3 SHR SWAP1 POP SWAP3 SWAP2 POP POP JUMP JUMPDEST PUSH0 PUSH2 0x277C PUSH0 NOT DUP5 PUSH1 0x8 MUL PUSH2 0x2761 JUMP JUMPDEST NOT DUP1 DUP4 AND SWAP2 POP POP SWAP3 SWAP2 POP POP JUMP JUMPDEST PUSH0 PUSH2 0x2794 DUP4 DUP4 PUSH2 0x276D JUMP JUMPDEST SWAP2 POP DUP3 PUSH1 0x2 MUL DUP3 OR SWAP1 POP SWAP3 SWAP2 POP POP JUMP JUMPDEST PUSH2 0x27AD DUP3 PUSH2 0x1C7A JUMP JUMPDEST PUSH8 0xFFFFFFFFFFFFFFFF DUP2 GT ISZERO PUSH2 0x27C6 JUMPI PUSH2 0x27C5 PUSH2 0x24E0 JUMP JUMPDEST JUMPDEST PUSH2 0x27D0 DUP3 SLOAD PUSH2 0x2567 JUMP JUMPDEST PUSH2 0x27DB DUP3 DUP3 DUP6 PUSH2 0x271B JUMP JUMPDEST PUSH0 PUSH1 0x20 SWAP1 POP PUSH1 0x1F DUP4 GT PUSH1 0x1 DUP2 EQ PUSH2 0x280C JUMPI PUSH0 DUP5 ISZERO PUSH2 0x27FA JUMPI DUP3 DUP8 ADD MLOAD SWAP1 POP JUMPDEST PUSH2 0x2804 DUP6 DUP3 PUSH2 0x2789 JUMP JUMPDEST DUP7 SSTORE POP PUSH2 0x286B JUMP JUMPDEST PUSH1 0x1F NOT DUP5 AND PUSH2 0x281A DUP7 PUSH2 0x25FB JUMP JUMPDEST PUSH0 JUMPDEST DUP3 DUP2 LT ISZERO PUSH2 0x2841 JUMPI DUP5 DUP10 ADD MLOAD DUP3 SSTORE PUSH1 0x1 DUP3 ADD SWAP2 POP PUSH1 0x20 DUP6 ADD SWAP5 POP PUSH1 0x20 DUP2 ADD SWAP1 POP PUSH2 0x281C JUMP JUMPDEST DUP7 DUP4 LT ISZERO PUSH2 0x285E JUMPI DUP5 DUP10 ADD MLOAD PUSH2 0x285A PUSH1 0x1F DUP10 AND DUP3 PUSH2 0x276D JUMP JUMPDEST DUP4 SSTORE POP JUMPDEST PUSH1 0x1 PUSH1 0x2 DUP9 MUL ADD DUP9 SSTORE POP POP POP JUMPDEST POP POP POP POP POP POP JUMP JUMPDEST PUSH0 PUSH2 0x287D DUP3 PUSH2 0x2679 JUMP JUMPDEST SWAP2 POP PUSH2 0x2888 DUP4 PUSH2 0x2679 JUMP JUMPDEST SWAP3 POP DUP3 DUP3 ADD SWAP1 POP DUP1 DUP3 GT ISZERO PUSH2 0x28A0 JUMPI PUSH2 0x289F PUSH2 0x2597 JUMP JUMPDEST JUMPDEST SWAP3 SWAP2 POP POP JUMP JUMPDEST PUSH0 DUP3 SWAP1 POP SWAP3 SWAP2 POP POP JUMP JUMPDEST PUSH2 0x28BA DUP4 DUP4 PUSH2 0x28A6 JUMP JUMPDEST PUSH8 0xFFFFFFFFFFFFFFFF DUP2 GT ISZERO PUSH2 0x28D3 JUMPI PUSH2 0x28D2 PUSH2 0x24E0 JUMP JUMPDEST JUMPDEST PUSH2 0x28DD DUP3 SLOAD PUSH2 0x2567 JUMP JUMPDEST PUSH2 0x28E8 DUP3 DUP3 DUP6 PUSH2 0x271B JUMP JUMPDEST PUSH0 PUSH1 0x1F DUP4 GT PUSH1 0x1 DUP2 EQ PUSH2 0x2915 JUMPI PUSH0 DUP5 ISZERO PUSH2 0x2903 JUMPI DUP3 DUP8 ADD CALLDATALOAD SWAP1 POP JUMPDEST PUSH2 0x290D DUP6 DUP3 PUSH2 0x2789 JUMP JUMPDEST DUP7 SSTORE POP PUSH2 0x2974 JUMP JUMPDEST PUSH1 0x1F NOT DUP5 AND PUSH2 0x2923 DUP7 PUSH2 0x25FB JUMP JUMPDEST PUSH0 JUMPDEST DUP3 DUP2 LT ISZERO PUSH2 0x294A JUMPI DUP5 DUP10 ADD CALLDATALOAD DUP3 SSTORE PUSH1 0x1 DUP3 ADD SWAP2 POP PUSH1 0x20 DUP6 ADD SWAP5 POP PUSH1 0x20 DUP2 ADD SWAP1 POP PUSH2 0x2925 JUMP JUMPDEST DUP7 DUP4 LT ISZERO PUSH2 0x2967 JUMPI DUP5 DUP10 ADD CALLDATALOAD PUSH2 0x2963 PUSH1 0x1F DUP10 AND DUP3 PUSH2 0x276D JUMP JUMPDEST DUP4 SSTORE POP JUMPDEST PUSH1 0x1 PUSH1 0x2 DUP9 MUL ADD DUP9 SSTORE POP POP POP JUMPDEST POP POP POP POP POP POP POP JUMP INVALID LOG2 PUSH5 0x6970667358 0x22 SLT KECCAK256 SLT SWAP10 DUP7 EXTCODECOPY 0xDC CODESIZE EXTCODEHASH PUSH23 0x34C31DFCB1CC4398772972237625A74DB8307C141FAD18 MCOPY PUSH5 0x736F6C6343 STOP ADDMOD 0x1E STOP CALLER "
				},
				"gasEstimates": {
					"creation": {
						"codeDepositCost": "2135000",
						"executionCost": "2270",
						"totalCost": "2137270"
					},
					"external": {
						"create_record(address,string,string)": "infinite",
						"get_all_records()": "infinite",
						"get_record(uint32)": "infinite",
						"get_record_count()": "2518",
						"get_records_by_doctor(address)": "infinite",
						"get_records_by_patient(address)": "infinite",
						"get_user(address)": "infinite",
						"register_user(address,uint8,string,uint32,string,string,bool)": "infinite",
						"set_user_active(address,bool)": "34066",
						"update_record(uint32,string,string)": "infinite"
					},
					"internal": {
						"_requireAdmin(address)": "infinite"
					}
				},
				"methodIdentifiers": {
					"create_record(address,string,string)": "8fd42163",
					"get_all_records()": "62e91515",
					"get_record(uint32)": "51bb8110",
					"get_record_count()": "556b22c1",
					"get_records_by_doctor(address)": "36f32373",
					"get_records_by_patient(address)": "ba6eae82",
					"get_user(address)": "71ad7221",
					"register_user(address,uint8,string,uint32,string,string,bool)": "95fb43fe",
					"set_user_active(address,bool)": "88c952cb",
					"update_record(uint32,string,string)": "bfbb4204"
				}
			},
			"storageLayout": {
				"storage": [
					{
						"astId": 54,
						"contract": "SimpleStorage.sol:MedicalRecordsContract",
						"label": "users",
						"offset": 0,
						"slot": "0",
						"type": "t_mapping(t_address,t_struct(User)28_storage)"
					},
					{
						"astId": 59,
						"contract": "SimpleStorage.sol:MedicalRecordsContract",
						"label": "records",
						"offset": 0,
						"slot": "1",
						"type": "t_mapping(t_uint256,t_struct(MedicalRecord)49_storage)"
					},
					{
						"astId": 61,
						"contract": "SimpleStorage.sol:MedicalRecordsContract",
						"label": "recordCounter",
						"offset": 0,
						"slot": "2",
						"type": "t_uint32"
					},
					{
						"astId": 66,
						"contract": "SimpleStorage.sol:MedicalRecordsContract",
						"label": "patientRecords",
						"offset": 0,
						"slot": "3",
						"type": "t_mapping(t_address,t_array(t_uint256)dyn_storage)"
					},
					{
						"astId": 71,
						"contract": "SimpleStorage.sol:MedicalRecordsContract",
						"label": "doctorRecords",
						"offset": 0,
						"slot": "4",
						"type": "t_mapping(t_address,t_array(t_uint256)dyn_storage)"
					},
					{
						"astId": 74,
						"contract": "SimpleStorage.sol:MedicalRecordsContract",
						"label": "allRecordIds",
						"offset": 0,
						"slot": "5",
						"type": "t_array(t_uint256)dyn_storage"
					},
					{
						"astId": 76,
						"contract": "SimpleStorage.sol:MedicalRecordsContract",
						"label": "totalUsers",
						"offset": 0,
						"slot": "6",
						"type": "t_uint256"
					}
				],
				"types": {
					"t_address": {
						"encoding": "inplace",
						"label": "address",
						"numberOfBytes": "20"
					},
					"t_array(t_uint256)dyn_storage": {
						"base": "t_uint256",
						"encoding": "dynamic_array",
						"label": "uint256[]",
						"numberOfBytes": "32"
					},
					"t_bool": {
						"encoding": "inplace",
						"label": "bool",
						"numberOfBytes": "1"
					},
					"t_enum(Role)6": {
						"encoding": "inplace",
						"label": "enum MedicalRecordsContract.Role",
						"numberOfBytes": "1"
					},
					"t_mapping(t_address,t_array(t_uint256)dyn_storage)": {
						"encoding": "mapping",
						"key": "t_address",
						"label": "mapping(address => uint256[])",
						"numberOfBytes": "32",
						"value": "t_array(t_uint256)dyn_storage"
					},
					"t_mapping(t_address,t_struct(User)28_storage)": {
						"encoding": "mapping",
						"key": "t_address",
						"label": "mapping(address => struct MedicalRecordsContract.User)",
						"numberOfBytes": "32",
						"value": "t_struct(User)28_storage"
					},
					"t_mapping(t_uint256,t_struct(MedicalRecord)49_storage)": {
						"encoding": "mapping",
						"key": "t_uint256",
						"label": "mapping(uint256 => struct MedicalRecordsContract.MedicalRecord)",
						"numberOfBytes": "32",
						"value": "t_struct(MedicalRecord)49_storage"
					},
					"t_string_storage": {
						"encoding": "bytes",
						"label": "string",
						"numberOfBytes": "32"
					},
					"t_struct(MedicalRecord)49_storage": {
						"encoding": "inplace",
						"label": "struct MedicalRecordsContract.MedicalRecord",
						"members": [
							{
								"astId": 30,
								"contract": "SimpleStorage.sol:MedicalRecordsContract",
								"label": "id",
								"offset": 0,
								"slot": "0",
								"type": "t_uint32"
							},
							{
								"astId": 32,
								"contract": "SimpleStorage.sol:MedicalRecordsContract",
								"label": "patientAddress",
								"offset": 4,
								"slot": "0",
								"type": "t_address"
							},
							{
								"astId": 34,
								"contract": "SimpleStorage.sol:MedicalRecordsContract",
								"label": "patientName",
								"offset": 0,
								"slot": "1",
								"type": "t_string_storage"
							},
							{
								"astId": 36,
								"contract": "SimpleStorage.sol:MedicalRecordsContract",
								"label": "doctorAddress",
								"offset": 0,
								"slot": "2",
								"type": "t_address"
							},
							{
								"astId": 38,
								"contract": "SimpleStorage.sol:MedicalRecordsContract",
								"label": "doctorName",
								"offset": 0,
								"slot": "3",
								"type": "t_string_storage"
							},
							{
								"astId": 40,
								"contract": "SimpleStorage.sol:MedicalRecordsContract",
								"label": "diagnosis",
								"offset": 0,
								"slot": "4",
								"type": "t_string_storage"
							},
							{
								"astId": 42,
								"contract": "SimpleStorage.sol:MedicalRecordsContract",
								"label": "treatment",
								"offset": 0,
								"slot": "5",
								"type": "t_string_storage"
							},
							{
								"astId": 44,
								"contract": "SimpleStorage.sol:MedicalRecordsContract",
								"label": "createdAt",
								"offset": 0,
								"slot": "6",
								"type": "t_uint64"
							},
							{
								"astId": 46,
								"contract": "SimpleStorage.sol:MedicalRecordsContract",
								"label": "updatedAt",
								"offset": 8,
								"slot": "6",
								"type": "t_uint64"
							},
							{
								"astId": 48,
								"contract": "SimpleStorage.sol:MedicalRecordsContract",
								"label": "exists",
								"offset": 16,
								"slot": "6",
								"type": "t_bool"
							}
						],
						"numberOfBytes": "224"
					},
					"t_struct(User)28_storage": {
						"encoding": "inplace",
						"label": "struct MedicalRecordsContract.User",
						"members": [
							{
								"astId": 8,
								"contract": "SimpleStorage.sol:MedicalRecordsContract",
								"label": "userAddress",
								"offset": 0,
								"slot": "0",
								"type": "t_address"
							},
							{
								"astId": 11,
								"contract": "SimpleStorage.sol:MedicalRecordsContract",
								"label": "role",
								"offset": 20,
								"slot": "0",
								"type": "t_enum(Role)6"
							},
							{
								"astId": 13,
								"contract": "SimpleStorage.sol:MedicalRecordsContract",
								"label": "name",
								"offset": 0,
								"slot": "1",
								"type": "t_string_storage"
							},
							{
								"astId": 15,
								"contract": "SimpleStorage.sol:MedicalRecordsContract",
								"label": "age",
								"offset": 0,
								"slot": "2",
								"type": "t_uint32"
							},
							{
								"astId": 17,
								"contract": "SimpleStorage.sol:MedicalRecordsContract",
								"label": "email",
								"offset": 0,
								"slot": "3",
								"type": "t_string_storage"
							},
							{
								"astId": 19,
								"contract": "SimpleStorage.sol:MedicalRecordsContract",
								"label": "specialty",
								"offset": 0,
								"slot": "4",
								"type": "t_string_storage"
							},
							{
								"astId": 21,
								"contract": "SimpleStorage.sol:MedicalRecordsContract",
								"label": "hasSpecialty",
								"offset": 0,
								"slot": "5",
								"type": "t_bool"
							},
							{
								"astId": 23,
								"contract": "SimpleStorage.sol:MedicalRecordsContract",
								"label": "isActive",
								"offset": 1,
								"slot": "5",
								"type": "t_bool"
							},
							{
								"astId": 25,
								"contract": "SimpleStorage.sol:MedicalRecordsContract",
								"label": "createdAt",
								"offset": 2,
								"slot": "5",
								"type": "t_uint64"
							},
							{
								"astId": 27,
								"contract": "SimpleStorage.sol:MedicalRecordsContract",
								"label": "exists",
								"offset": 10,
								"slot": "5",
								"type": "t_bool"
							}
						],
						"numberOfBytes": "192"
					},
					"t_uint256": {
						"encoding": "inplace",
						"label": "uint256",
						"numberOfBytes": "32"
					},
					"t_uint32": {
						"encoding": "inplace",
						"label": "uint32",
						"numberOfBytes": "4"
					},
					"t_uint64": {
						"encoding": "inplace",
						"label": "uint64",
						"numberOfBytes": "8"
					}
				}
			},
			"userdoc": {
				"kind": "user",
				"methods": {
					"create_record(address,string,string)": {
						"notice": "Tạo hồ sơ y tế mới (chỉ Doctor) Rust: create_record(env, doctor, patient, diagnosis, treatment) Solidity: dùng msg.sender là doctor"
					},
					"get_all_records()": {
						"notice": "Lấy tất cả hồ sơ (Admin only)"
					},
					"get_record(uint32)": {
						"notice": "Lấy thông tin record"
					},
					"get_record_count()": {
						"notice": "Lấy số lượng records"
					},
					"get_records_by_doctor(address)": {
						"notice": "Lấy tất cả hồ sơ của bác sĩ"
					},
					"get_records_by_patient(address)": {
						"notice": "Lấy tất cả hồ sơ của bệnh nhân"
					},
					"get_user(address)": {
						"notice": "Lấy thông tin user"
					},
					"register_user(address,uint8,string,uint32,string,string,bool)": {
						"notice": "Đăng ký người dùng mới (chỉ Admin; riêng lần đầu cho phép tạo Admin) Rust: register_user(env, caller, address, role, name, age, email, specialty) Solidity: dùng msg.sender thay cho caller"
					},
					"set_user_active(address,bool)": {
						"notice": "Kích hoạt/vô hiệu hóa user (chỉ Admin) Rust: set_user_active(env, caller, user_address, is_active) Solidity: dùng msg.sender thay cho caller"
					},
					"update_record(uint32,string,string)": {
						"notice": "Cập nhật hồ sơ (chỉ Doctor tạo hồ sơ đó) Rust: update_record(env, doctor, record_id, diagnosis, treatment) Solidity: dùng msg.sender là doctor"
					}
				},
				"notice": "Giữ nguyên tên hàm & chức năng cốt lõi so với bản Rust. Quy ước: - \"caller.require_auth()\" -> dùng msg.sender - Lần đăng ký đầu tiên chỉ cho phép tạo Admin - get_all_records: chỉ Admin được gọi (theo comment gốc)",
				"version": 1
			}
		}
	}
}